:100000000C94C1010C94F2010C94F2010C94F201D5
:100010000C94F2010C94F2010C94F2010C94F20194
:100020000C94F2010C94F2010C94F2010C94F20184
:100030000C94F2010C94F2010C94F2010C94F20174
:100040000C94F2010C94F2010C94F2010C94F20164
:100050000C94F2010C94F2010C94F2010C947B14B8
:100060000C94F2010C943A110C942A120C94F201A3
:100070000C94F2010C94F2010C94F2010C94F20134
:100080000C94F2010C94F2010C94F2010C94F20124
:100090000C946E110C9469120C94F2010C94F20100
:1000A0000C94F2010C94F2010C94F2010C94F20104
:1000B0000C94F2010C94F2010C94F2010C94F201F4
:1000C0000C94F2010C94F2010C94F2010C94A21124
:1000D0000C94A8120C94F2010C94D6110C94E71213
:1000E0000C94F201141617160A160E164E161B164D
:1000F0001F16251629162D16331637163B164E16C3
:10010000411645164916E216E716EC16F6166F1755
:100110000017081710171A1724172E173D1747171F
:100120006F1751175B1765170C9437160C9445160B
:100130000C9439150C9408170C94F4010C947E1748
:100140000C9497030C9457100C94DD100C94EE0A49
:100150000C949C060C941B160C946A020C941716B3
:100160000C94B7030C94BA030C94F10B0C949A03FF
:100170000C94B0030C945E020C9498070C94E71650
:100180000C9461020C94030D0C9465170C94630B92
:100190000C946F170C9429160C94AA0B0C94A00FB6
:1001A0000C9480080C9445090C942E170C949A0D0D
:1001B0000C941F160C940A160C94EC160C945B17F6
:1001C0000C9473020C9451170C94F6160C9433167D
:1001D0000C9468070C9464020C9496100C94781795
:1001E0000C94E80A0C940E160C947C020C943F08B4
:1001F0000C9441160C9449160C94EA020C94D210FB
:100200000C943D170C9424170C9410170C943B1667
:100210000C9447170C9418020C9400170C94670266
:100220000C942C130C9486100C94B4030C94E216CA
:100230000C9439080C94A00D0C9476020C94D10AFD
:100240000C944E160C941A170C9425160C946D02EF
:100250000C94B2100C9470020C9494030C94091238
:100260000C942D160C94A9130C947A080C944B0939
:100270000C9414160C9492070000090A02080B0C47
:100280000D0706030401000000000000000000004C
:10029000000000000000000000000000000000005E
:1002A0000000000011100F0000000000000000001E
:1002B000000000000000000000000000000001023B
:1002C0001020200808102040102040800201020168
:1002D0000804020101020408102040808040201020
:1002E0000804020180040201804020100804020179
:1002F00008040201010204081020408001020408E1
:1003000010204080050505050705080808080202B9
:1003100002020A0A0808040404040101010101019F
:1003200001010303030303030303040707070C0C82
:100330000C0C0C0C0C0C0202020206060606060649
:1003400006060B0B0B0B0B0B0B0B00002200250002
:1003500028002B002E0031003400020100000501AE
:1003600008010B0100002100240027002A002D00B5
:100370003000330001010000040107010A01A00F51
:10038000A91311241FBECFEFD1E2DEBFCDBF00E025
:100390000CBF14E0A0E0B2E0EEE4F5E300E00BBF38
:1003A00002C007900D92A033B107D9F72BE0A0E36C
:1003B000B4E001C01D92A73BB207E1F711E0C1EC28
:1003C000D1E000E006C021970109802FFE010E94C4
:1003D0002F1ACF3BD10780E00807A9F70E947910B8
:1003E0000C94A51A0C940000DC01FB0112968C9170
:1003F0001297808313968C911397818314968C9116
:100400001497828315968C911597838316968C91F9
:100410001697848317968C911797858318968C91DD
:100420001897868319968C91878388E090E00895C9
:10043000FC01DB014C9150E060E070E042835383AB
:100440006483758311968C911197582B4283538343
:100450006483758312968C911297682B4283538321
:100460006483758313968C911397782B42835383FF
:100470006483758314964C91149750E060E070E0AB
:10048000468357836087718715968C911597582BF3
:10049000468357836087718716968C911697682BD1
:1004A000468357836087718717968C91782B468394
:1004B00057836087718788E090E008958EE192E02D
:1004C00008958CE292E008958DE492E0089586E626
:1004D00092E0089587E892E008958AE992E008950D
:1004E00082EB93E008958BEB92E00895A0E0B0E0FA
:1004F000ECE7F2E00C94481AEB01FC018280938057
:10050000A480B580D501C40177E1B595A7959795ED
:1005100087957A95D1F79927AA27BB270097A10538
:10052000B10521F080589C4FAF4FBF4F1882198200
:100530001A82B501A40125E0440F551F661F771FDD
:100540002A95D1F74B83B501A40133E075956795E2
:10055000579547953A95D1F74C83B501A401EBE047
:100560007595679557954795EA95D1F74D83AC01F9
:10057000BD01F4E0440F551F661F771FFA95D1F7B0
:100580009501840153E135952795179507955A955F
:10059000D1F70F70402B4E836C017D0164E0F59420
:1005A000E794D794C7946A95D1F720E030E0A90189
:1005B000C501B4010E94C71887FD02C0CF8203C0E5
:1005C0008C2D80688F8388E090E0CDB7DEB7ECE0BB
:1005D0000C94641A8F929F92AF92BF92CF92DF9247
:1005E000EF92FF920F931F93FC01DB011396CC90C7
:1005F0001397C294C69497E0C9228C2C912CA12CFD
:10060000B12C82829382A482B5821496CC901497E6
:10061000D12CE12CF12C23E0CC0CDD1CEE1CFF1CBA
:100620002A95D1F7C828D928EA28FB28C282D38284
:10063000E482F58215960C91159710E020E030E0E9
:100640004BE0000F111F221F331F4A95D1F7C02A1C
:10065000D12AE22AF32AC282D382E482F582169654
:100660000C9116970F7010E020E030E053E1000F7E
:10067000111F221F331F5A95D1F70C291D292E292E
:100680003F29028313832483358316968C91169712
:1006900082958F7017964C9117974F7750E060E0D6
:1006A00070E094E0440F551F661F771F9A95D1F7AD
:1006B000482B411551056105710599F0405853408B
:1006C0006109710987E1440F551F661F771F8A95DD
:1006D000D1F7402B512B622B732B428353836483BE
:1006E000758317968C91807890E0A0E0B0E0B82FE9
:1006F000AA27992788274281538164817581842B99
:10070000952BA62BB72B82839383A483B58388E094
:1007100090E01F910F91FF90EF90DF90CF90BF90EE
:10072000AF909F908F9008958CED92E008958DEE9C
:1007300092E008950F931F93CF93DF938C01EC0108
:100740002696CE010E94EA02D8011C96ED91FC91FA
:100750001D97CE011995DF91CF911F910F910895AB
:10076000FC018685978508958CED92E008958DEEC5
:1007700092E00895FC01EA57FB4F808108958F9223
:100780009F92AF92BF92CF92DF92EF92FF926B0156
:100790007C0149015A0161E0809114020E948B168C
:1007A00060E0809112020E948B1661E080910E023F
:1007B0000E948B1660E080910C020E948B1620E054
:1007C00030E042E852E4C501B4010E947C190E9465
:1007D000CC18809116020E94BB1620E030E048E160
:1007E00052E4C701B6010E947C190E94CC18809186
:1007F00010020E94BB1661E0809108020E948B16D5
:1008000060E0809106020E948B1661E080910202F6
:100810000E948B1660E0809100020E948B1620E0FF
:1008200030E042EA52E4C501B4010E947C190E9402
:10083000CC1880910A020E94BB1620E030E048E408
:1008400052E4C701B6010E947C190E94CC18809125
:1008500004020E94BB16FF90EF90DF90CF90BF90F4
:10086000AF909F908F9008958F929F92AF92BF927A
:10087000CF92DF92EF92FF926B017C0149015A0106
:1008800060E0809114020E948B1661E08091120258
:100890000E948B1661E080910E020E948B1660E030
:1008A00080910C020E948B1620E030E042E852E476
:1008B000C501B4010E947C190E94CC1880911602D7
:1008C0000E94BB1620E030E048E152E4C701B601C7
:1008D0000E947C190E94CC18809110020E94BB16C5
:1008E00060E0809108020E948B1661E08091060210
:1008F0000E948B1661E0809102020E948B1660E0DC
:10090000809100020E948B1620E030E042EA52E41F
:10091000C501B4010E947C190E94CC1880910A0282
:100920000E94BB1620E030E048E452E4C701B60163
:100930000E947C190E94CC18809104020E94BB1670
:10094000FF90EF90DF90CF90BF90AF909F908F90EF
:1009500008958F929F92AF92BF92CF92DF92EF92C3
:10096000FF926B017C0149015A0161E08091140200
:100970000E948B1660E0809112020E948B1660E04C
:1009800080910E020E948B1661E080910C020E9401
:100990008B1620E030E042E852E4C501B4010E9429
:1009A0007C190E94CC18809116020E94BB1620E090
:1009B00030E048E152E4C701B6010E947C190E9470
:1009C000CC18809110020E94BB1661E08091080251
:1009D0000E948B1660E0809106020E948B1660E0F8
:1009E000809102020E948B1661E0809100020E94B9
:1009F0008B1620E030E042EA52E4C501B4010E94C7
:100A00007C190E94CC1880910A020E94BB1620E03B
:100A100030E048E452E4C701B6010E947C190E940C
:100A2000CC18809104020E94BB16FF90EF90DF90DB
:100A3000CF90BF90AF909F908F9008958F929F928C
:100A4000AF92BF92CF92DF92EF92FF926B017C0147
:100A500049015A0161E0809114020E948B1660E006
:100A6000809112020E948B1660E080910E020E941B
:100A70008B1661E080910C020E948B1620E030E022
:100A800042E852E4C501B4010E947C190E94CC18CE
:100A9000809116020E94BB1620E030E048E152E44B
:100AA000C701B6010E947C190E94CC1880911002E7
:100AB0000E94BB1660E0809108020E948B1661E0E4
:100AC000809106020E948B1661E0809102020E94D2
:100AD0008B1660E0809100020E948B1620E030E0CF
:100AE00042EA52E4C501B4010E947C190E94CC186C
:100AF00080910A020E94BB1620E030E048E452E4F4
:100B0000C701B6010E947C190E94CC188091040292
:100B10000E94BB16FF90EF90DF90CF90BF90AF90F8
:100B20009F908F9008958F929F92AF92BF92CF9295
:100B3000DF92EF92FF926B017C0149015A0160E064
:100B4000809114020E948B1661E0809112020E9433
:100B50008B1661E080910E020E948B1660E08091FE
:100B60000C020E948B1620E030E042E852E4C501FE
:100B7000B4010E947C190E94CC18809116020E9438
:100B8000BB1620E030E048E152E4C701B6010E9404
:100B90007C190E94CC18809110020E94BB1661E063
:100BA000809108020E948B1660E0809106020E94EC
:100BB0008B1660E0809102020E948B1661E08091AA
:100BC00000020E948B1620E030E042EA52E4C501A8
:100BD000B4010E947C190E94CC1880910A020E94E4
:100BE000BB1620E030E048E452E4C701B6010E94A1
:100BF0007C190E94CC18809104020E94BB16FF90C1
:100C0000EF90DF90CF90BF90AF909F908F9008951E
:100C100061E0809114020E944F1661E080911202FF
:100C20000E944F1661E0809116020E944F1661E00B
:100C300080910E020E944F1661E080910C020E948A
:100C40004F1661E0809110020E944F1661E0809182
:100C500008020E944F1661E0809106020E944F1622
:100C600061E080910A020E944F1661E080910202C9
:100C70000E944F1661E0809100020E944F1661E0D1
:100C8000809104020E944F164091540450915504E3
:100C900060915604709157048091520490915304CE
:100CA0000E9426131092CD081092CC081092CF0803
:100CB0001092CE081092D3081092D2081092D10848
:100CC0001092D008EAE9F8E080E090E021913191BB
:100CD000232B81F4FC01EE0FFF1FE656F74F20E4B3
:100CE00034E0318320838C599F4F90934304809349
:100CF0004204089501968931910541F70895CF92F4
:100D0000DF92EF92FF9220E030E06A017B01022E39
:100D100004C0F694E794D794C7940A94D2F7FC01E0
:100D2000C192CF01285F3F4F2032310571F7FF900C
:100D3000EF90DF90CF9008954F925F926F927F92E5
:100D4000AF92BF92CF92DF92EF92FF920F931F93D9
:100D5000CF93DF93EC017B018A81FB0180838B8140
:100D600081838C8182838D818383DB01179640E0B0
:100D700050E0BA01E4E0F0E04A805B806C807D8066
:100D80008F010C5F1F4F4415550566057705C0F4AC
:100D90008A859B85E80FF91F3497D0802181928145
:100DA0008381FD013397D0823196208331969083E1
:100DB0008C93F8014F5F5F4F6F4F7F4F1496DCCFDE
:100DC000EE0DFF1D8C8580838D8581838E858283CA
:100DD0008F85838380E090E040E050E0BA014C844E
:100DE0005D846E847F84F701E00FF11F0C5F1F4F5D
:100DF0004415550566057705B8F4AC89BD89A80F7B
:100E0000B91FCC901196DC90119712963C911297D5
:100E100013962C91C082D182328323834F5F5F4F20
:100E20006F4F7F4F0496DBCF8E8980838F898183BC
:100E3000888D8283898D8383412C512C32018E8948
:100E40009F89A88DB98D481659066A067B0680F5DC
:100E50005201AA0CBB1CEC8DFD8DEA0DFB1DA0817F
:100E6000B181FD0101900020E9F731976F01CA1AA5
:100E7000DB0AA60160E070E0C701800F911F0E94AD
:100E80007F060C5F1F4F8C8D9D8DFC01EA0DFB1DB5
:100E900060817181A601C701800F911F0E949C1A79
:100EA0000C0D1D1DFFEF4F1A5F0A6F0A7F0AC7CF97
:100EB000C801DF91CF911F910F91FF90EF90DF90CC
:100EC000CF90BF90AF907F906F905F904F900895BC
:100ED000EF92FF920F931F93CF93DF938C017B01CF
:100EE000EC018A81FB018193AB81BC81ED0109900A
:100EF0000020E9F72197CA1BDB0BAE0160E070E030
:100F0000CF010E947F06F80163817481AE01C701A1
:100F100005960E949C1ACE010596CDB7DEB7E6E095
:100F20000C946A1AA0E0B0E0E8E9F7E00C944C1ADF
:100F30006C01EB01FC018281888383818983A48118
:100F4000B581FD0101900020E9F731978F010A1B5F
:100F50001B0BA80160E070E0CE0102960E947F06A4
:100F6000F60164817581A801CE0106960E949C1A43
:100F7000C8010696F601A681B781FD010190002007
:100F8000E9F731977F01EA1AFB0AA70160E070E0F8
:100F90008C0F9D1F0E947F06065F1F4FF601668122
:100FA0007781A701CE01800F911F0E949C1A0E0D20
:100FB0001F1DF601A085B185FD0101900020E9F714
:100FC00031977F01EA1AFB0AA70160E070E0CE01C9
:100FD000800F911F0E947F060C5F1F4FF6016085F6
:100FE0007185A701CE01800F911F0E949C1AC80134
:100FF0008E0D9F1DF6016285438534852585C80FBA
:10100000D91F688349833A832B830496CDB7DEB713
:10101000E8E00C94681ACF92DF92EF92FF92FC0105
:101020001082118212821382DB0120E030E04D91A8
:1010300050E0022E02C0440F551F0A94E2F7052E1D
:10104000000C660B770BC080D180E280F3804C29C6
:101050005D296E297F294083518362837383285FD2
:101060003F4F2032310519F7FF90EF90DF90CF907E
:101070000895A4E0B0E0EFE3F8E00C94481A7C0196
:101080008B01FB018191BF01F7018283CE010196A3
:101090000E940B0889819A81AB81BC814C015D0162
:1010A000F5E08F0E911CA11CB11C680125E0C20E59
:1010B000D11CA601401B510B60E070E0481559059A
:1010C0006A057B0548F4F60141916F019F012250AA
:1010D0003109F9014083EDCFF801E80FF91F1482BF
:1010E0000C5F1F4FF7011483038305962496ECE0F1
:1010F0000C94641AACE0B0E0E0E8F8E00C94441A18
:101100007C018B01DB018C9190E0F701938382835A
:1011100011962C91922B938382836E5F7F4FCE0129
:1011200009960E940B0889849A84AB84BC84B5011B
:10113000A4014A5F5F4F6F4F7F4FF8013696CF0192
:10114000801B910BA0E0B0E084179507A607B707B6
:1011500028F48191DF0112978C93F1CFF801E80D0B
:10116000F91D1582C8010596D70115969C938E939B
:101170001497B4016A5F7F4F600F711FCE0105960F
:101180000E940B08BAE08B0E911C4D815E816F812D
:1011900078852401092C000C66087708440E551E3A
:1011A000661E771EF801E80DF91DCF01801B910B1B
:1011B000A0E0B0E084159505A605B70528F4819157
:1011C000DF0112978C93F1CF6401C40ED51EB801D4
:1011D0006C0D7D1DFB0131971082C4010197800FBA
:1011E000911FF70197838683CE0101960E940B0819
:1011F000A6014C5F5F4F49805A806B807C804A011A
:10120000052E000CAA08BB08840C951CA61CB71C54
:10121000F801E40FF51F9F01201B310BC901A0E06D
:10122000B0E088159905AA05BB0528F48191DF0176
:1012300012978C93F0CFCA01840D951DF801E80F29
:10124000F91FDF0111971C929A0121503109020FF9
:10125000131FD70119961C930E9318972181428171
:1012600050E060E070E0BA0155274427522B2081FE
:10127000422B2381722BF70142875387648775873E
:1012800004962C96E0E10C94601AA8E0B0E0EBE440
:10129000F9E00C94421A8C015B01DB018C911196F0
:1012A0009C9111971296CC901297D12CE12CF12C95
:1012B0007601DD24CC24D92AC82A13968C91F82AE9
:1012C000F80182819381A481B5818C159D05AE05BD
:1012D000BF0570F4B601660F771F660F771F828512
:1012E00093850E943315D8011B969C938E931A9771
:1012F000F801C282D382E482F582D5011796C12C0F
:10130000D12C7601F4E08F2E912C98012A5F3F4F6B
:10131000F8014281538164817581C4010496C41629
:10132000D506E606F70680F54C9150E060E070E0E7
:10133000742F662755274427FD013397E0814E2BF4
:10134000FD013297E0815E2BFD013197E0816E2B2C
:10135000F80146835783608771874C01089742855F
:101360005385840F951FF9014081518162817381FA
:10137000FC014083518362837383FFEFCF1ADF0A3E
:10138000EF0AFF0A1496C4CFF401EA0DFB1D208179
:101390003181C280D12CE12CF12C7601DD24CC24CA
:1013A000D32AC22A2381F22A4C01F801848595852B
:1013B000A685B7858C159D05AE05BF0570F4B601F1
:1013C000660F771F660F771F848995890E943315F2
:1013D000D80155969C938E935497F801C486D58670
:1013E000E686F78620E030E0C12CD12C7601D801CA
:1013F0005096F8014485558566857785F501E80D99
:10140000F91DC4010496C416D506E606F70648F58C
:101410009180428150E060E070E0BA015527442796
:10142000592990804929E3817E2BF801408B518B0B
:10143000628B738B4C0184899589FC01E20FF31F49
:101440004D915D916D917C9113974083518362839F
:101450007383FFEFCF1ADF0AEF0AFF0A2C5F3F4FBB
:10146000C8CF20813181C280D12CE12CF12C7601B2
:10147000DD24CC24D32AC22A2381F22A4C01F8018C
:1014800086899789A08DB18D8C159D05AE05BF0508
:1014900060F4B601660F771F848D958D0E94331519
:1014A000D8015D969C938E935C97F801C68AD78A83
:1014B000E08EF18E412C512C32011801FAE12F0EF1
:1014C000311CF80186899789A08DB18D481659067F
:1014D0006A067B0608F05AC0B501680D791DCE0179
:1014E00001960E940B0894012C5F3F4FC980DA805F
:1014F000EB80FC80C901032E000CAA0BBB0BAC01D6
:10150000BD014C0D5D1D6E1D7F1D4D835E836F8380
:101510007887F501E20FF31FAF014A195B09CA0191
:10152000A0E0B0E04D815E816F81788584179507DA
:10153000A607B70728F44191DF0112974C93ECCF2F
:10154000C9018C0D9D1DF501E80FF91F319710821F
:10155000215031092A0D3B1DD8015B963C932E93F7
:101560005A974C01C201880F991F5C96ED91FC912E
:101570005D97E80FF91FD1018D919C919183808334
:10158000BFEF4B1A5B0A6B0A7B0A9BCFC4012896FC
:10159000E2E10C945E1AA5E0B0E0E1EDFAE00C9413
:1015A000521A2AEE33E03A8329836B835D834C839E
:1015B000DC01ED91FC910190F081E02DAE014F5FD7
:1015C0005F4F67E070E019952596E2E00C946E1A83
:1015D000A0E0B0E0EEEEFAE00C944C1AEC017B01D6
:1015E000643671053CF0FE01EA57FB4F8081882389
:1015F00009F462C0DA01ED91FC910190F081E02DD7
:10160000BE01615E7D4FCA0119958E01085E1D4FB6
:101610002FEFF80120832EEF3196208331968083BF
:10162000319690833196292F280F2095208331966B
:10163000E082DE01A25EBD4FFC9245E050E020E07A
:1016400030E0BC016A5F7F4F6417750734F0A191E9
:101650002A0F311D4F5F5F4FF7CF7C01F8E0EF0E8F
:10166000F11C8C0F9D1FFC01E15EFD4F2095208336
:1016700041E0E41642E0F406B4F46801C601801BC0
:10168000910B8E159F056CF48A819B81D6016D911B
:101690006D01DC01ED91FC910190F081E02D199537
:1016A000EDCFC7010BC04EE053E063E0CE010E94D6
:1016B000CB0A8FEF9FEF02C080E090E0CDB7DEB79E
:1016C000E8E00C94681ACF92DF92EF92FF92FC014F
:1016D000C280D380E480F58020E030E040E251EC2D
:1016E000C701B6010E94C71887FF0CC020E030E098
:1016F00040EC5FE360E070E0CB010E94A90447E4A6
:1017000053E015C020E030E040E251E4C701B601EB
:101710000E94771918168CF420E030E0A90160E0EF
:1017200070E080EC9FE30E94340448E553E061E000
:1017300080E594E00E94CB0A08C020E030E040EC55
:101740005FE3CA01B9010E94BF03FF90EF90DF90F1
:10175000CF900895CF92DF92EF92FF92FC01C2806A
:10176000D380E480F58020E030E040E251ECC70116
:10177000B6010E94C71887FF0BC020E030E040E0B0
:1017800050E4CA01B9010E941E0548E653E014C0A6
:1017900020E030E040E251E4C701B6010E94771931
:1017A00020E030E040E050E4181664F4CA01B901CA
:1017B0000E94930549E753E061E080E594E00E94D0
:1017C000CB0A04C0CA01B9010E94BF03FF90EF9089
:1017D000DF90CF900895AAE0B0E0E1EFFBE00C9439
:1017E000501A8C0182ED93E09A8389831B821C82BC
:1017F0001D821E821F82188619861A86D801ED91D5
:10180000FC910190F081E02DAE014F5F5F4F6AE0E7
:1018100070E0C80119950E94C514F80160877187AE
:10182000828793872A96E4E00C946C1A4F925F9219
:101830006F927F92AF92BF92CF92DF92EF92FF9220
:101840000F931F93CF93DF93CDB7DEB72E970FB6CD
:10185000F894DEBF0FBECDBF8C018EED93E09A836E
:1018600089831C821B8287E693E09E838D83988701
:101870008F839A8789871B861C861D861E86680132
:1018800088EEC81A8BEFD80A7801A6EBEA1AABEFFC
:10189000FA0A412C92E0592E612C712CD601ED915F
:1018A000FC913097B9F1848195819C838B838081F1
:1018B00091819E838D8382819381DC01ED91FC91E6
:1018C0000480F581E02D199598878F83D601ED91DD
:1018D000FC9182819381DC01ED91FC910680F7817E
:1018E000E02D19959A8789874B865C866D867E8662
:1018F000F80180819181F601A081B18118966D91E6
:101900007C911997DC01ED91FC91AE014F5F5F4F27
:10191000C8011995B2E0CB0ED11CCE14DF0409F03A
:10192000BDCF6801E4E8CE1AEBEFDE0A412C82E07D
:10193000582E612C712CF701A081B1811097E1F133
:1019400012968D919C9113979C838B8314968D9105
:101950009C9115979E838D83ED91FC911197048046
:10196000F581E02DCD01199598878F83D7018D9151
:101970009C91DC01ED91FC910680F781E02D199599
:101980009A8789874B865C866D867E86D801ED9125
:10199000FC91A080B180F70180819181DC01ED9103
:1019A000FC910280F381E02D1995AE014F5F5F4FEE
:1019B000BC01C801F5011995F2E0EF0EF11CEC1421
:1019C000FD0409F0B8CFF801EA57FB4F81E08083AE
:1019D0002E960FB6F894DEBF0FBECDBFDF91CF912C
:1019E0001F910F91FF90EF90DF90CF90BF90AF903D
:1019F0007F906F905F904F900895AAE0B0E0E3E091
:101A0000FDE00C94481A8C015B0182ED93E09A830F
:101A100089831B821C821D821E821F821886198662
:101A20001A860E94C514F801C084D184E284F3842C
:101A30009B01AC012C193D094E095F0969017A012E
:101A4000B501CE0101960E94180288EE882E83E02F
:101A5000982EA12CB12CC701B601A50194010E94BA
:101A60000D1ACB80DC80ED80FE80C20ED31EE41EFA
:101A7000F51ECB82DC82ED82FE829B01AC0160E42C
:101A800072E48FE090E00E94E919CF80D884E98465
:101A9000FA84DC01CB018C0D9D1DAE1DBF1D8F8313
:101AA0009887A987BA870E94C514CB80DC80ED8017
:101AB000FE8031E0C31AD108E108F108A5019401C4
:101AC0000E940D1AC21AD30AE40AF50AF801C48664
:101AD000D586E686F786CF80D884E984FA84F6E353
:101AE000DF1AF5E6EF0AF4ECFF0A9B01AC0160E4B3
:101AF00072E48FE090E00E94E919C61AD70AE80A5A
:101B0000F90AF801C08AD18AE28AF38AB801605FD3
:101B10007F4FC8010C960E9451100E94C514F80115
:101B2000E557FB4F60837183828393832A96ECE0B1
:101B30000C94641AA0E1B0E0E0EAFDE00C94421AD3
:101B4000988B8F870E94C5144B015C012F853889C3
:101B500025573B4F3E832D83F90180819181A281DE
:101B6000B381A5019401281B390B4A0B5B0BDA01E9
:101B7000C901893F9A42A105B10528F0EF85F8898E
:101B8000EA57FB4F10820F85188904581B4FD80164
:101B90008D919C91892B81F0EF85F889E157FB4F5E
:101BA00080819181A281B38188159905AA05BB0521
:101BB00018F4F801118210826F847888FCE76F1A9C
:101BC000FBEF7F0A2F85388920583B4F3A832983C2
:101BD000CF84D88838E1C30ED11C4F8558894A5725
:101BE0005B4F58874F832F8538892C563B4F3A8758
:101BF00029874F8558894D565B4F5C874B87EF840B
:101C0000F88852E8E51A5BEFF50A2F8538892E57D8
:101C10003B4F3C832B834F85588941575B4F5E87F1
:101C20004D871401250154E1250E311C411C511C26
:101C3000EF85F88984899589A689B789892B8A2BAC
:101C40008B2B89F4AF85B88912968D919C9113974F
:101C5000DC01ED91FC910680F781E02D19959C0146
:101C600097FF15C037C10E94C514DC01CB0188194C
:101C70009909AA09BB09EF85F8892489358946891C
:101C80005789281739074A075B07E0F64BC1D3018C
:101C90008D919C911197820F931F8D939C93F801C6
:101CA0004081518147305105D9F4AB81BC818D9180
:101CB0009C911197AC014F5F5F4F4D935C93EF8503
:101CC000F889E80FF91F208FF70180819181019732
:101CD00091838083892B09F0ABCF88E090E02FC0FF
:101CE0004115510521F52F3F310569F481E090E060
:101CF000F80191838083AD85BE852D923D924D92F2
:101D00005C92139795CF0E94C514DC01CB01881912
:101D10009909AA09BB0989389341A105B10508F4BD
:101D200087CFEF85F889EA57FB4F1082FBC041301F
:101D30005105B1F42E3F310531F482E090E0D80135
:101D40008D939C9375CFF80111821082AF81B88575
:101D50008C9181116DCF8F8598890E94EB0B68CF94
:101D60004230510569F4F70131832083AB81BC8196
:101D70001D921C9283E090E0F801918380832EC035
:101D80004330510561F4322F2227F7018081918180
:101D9000280F391F3183208384E090E0D0CF443076
:101DA000510581F460E071E00E94F9198F3F9105BF
:101DB00031F485E090E0F8019183808339CF11827E
:101DC000108236CF4530510569F4E981FA813183BB
:101DD0002083E6E0F0E0D801ED93FC93D3012D934E
:101DE0003C9326CF4630510599F4322F2227E981C2
:101DF000FA8180819181280F391F31832083E7E0A8
:101E0000F0E0D801ED93FC93D7018D919C9162CFC6
:101E10004830510509F00CCFF8011182108260E0C2
:101E200071E00E94F9198F3F910509F001CFA98156
:101E3000BA818D919C910097C9F48F8598890E94F1
:101E4000EB0B8F8598890E94160CEF85F889E9576E
:101E5000FB4F80829182A282B382ED81FE818082DB
:101E60009182A282B3828FEF9FEF61C08A30910589
:101E700031F4B6018F8598890E94FD0CD9CE863049
:101E8000910551F4B60189859A850E94450981E042
:101E9000AB85BC858C93CCCE8B30910521F4EF8142
:101EA000F8851082C5CEFC01EF53FE4FEE0FFF1FE9
:101EB0002F853889E20FF31F80819181009709F403
:101EC000B7CEDC01ED91FC910190F081E02DB601DF
:101ED0001995AECEEF85F889EA57FB4F80818823AC
:101EE00021F10F85188909571B4FF80180819181D5
:101EF000A281B381A5019401281B390B4A0B5B0B0E
:101F0000DA01C901853C9940A105B10570F08F85C2
:101F100098890E94EB0BD8018D929D92AD92BC9254
:101F2000139703C08EEF9FEF02C080E090E06096B1
:101F3000E2E10C945E1A80E594E00E949A0D089507
:101F40008EE094E0909351048093500488E699E0E9
:101F5000909353048093520480E091EEA0E0B0E0AF
:101F60008093540490935504A0935604B09357045F
:101F70001092D60886EF93E09093E5088093E408EA
:101F80001092E6081092E7081092E8081092E9080B
:101F90001092EF081092EE081092F0081092F108DB
:101FA0001092F2081092F3081092F9081092F808B3
:101FB0001092FA081092FB081092FC081092FD088B
:101FC0001092010910920009E8E6F8E011921192CE
:101FD00088E0EA39F807D1F7EAE9F8E011921192BE
:101FE00088E0EC3CF807D1F7E8E6F4E0119286E0EF
:101FF000E836F807D9F7E8E6F6E0119288E0E83627
:10200000F807D9F7109264041092650410926604E0
:102010001092670448E154E0509341044093400417
:1020200022E034E0309347042093460410924804A1
:102030001092490410924A0410924B0483E69BE0EC
:1020400090934D0480934C0481E090E090934F0472
:1020500080934E0469E873E07093450460934404F0
:102060005093310440933004309337042093360466
:10207000109238041092390410923A0410923B04E2
:102080002AEA3BE030933D0420933C0490933F04C4
:1020900080933E048CE993E090933504809334045C
:1020A0000895A0E0B0E0E7E5F0E10C944C1A8C0153
:1020B000EB01688179818A819B8120E03AEC4AE9D1
:1020C0005BE30E940D1AF801C080D180E280F380AA
:1020D000C20ED31EE41EF51EC082D182E282F382BC
:1020E000688379838A839B83CDB7DEB7E8E00C945D
:1020F000681A0E94D1140E940806C9E0D2E10E9429
:102100009B0F2097E1F30E940912F9CFFC0124856F
:102110003585F901E05CFF4F808191813296208105
:102120003181821B930B8F7399270895DC011C96D4
:10213000ED91FC911D97DF01A05CBF4F2D913C916B
:10214000119712968D919C9111972817390739F0A4
:102150008D919C91E80FF91F808190E008958FEF99
:102160009FEF0895FC01A485B585FD01E05CFF4F5C
:10217000208131813296808191812817390779F049
:1021800080819181A80FB91F8C91208131812F5FAF
:102190003F4F2F7333273183208390E008958FEFD3
:1021A0009FEF0895FC0181A1882329F0A489B589B6
:1021B0008C9186FFFBCF11A208950F931F93CF93AD
:1021C000DF93FC01A685B7858D01005C1F4FE801F8
:1021D0008881998101968F739927AD014E5B5F4F7E
:1021E000EA012881398182179307D1F3E801288118
:1021F0003981A20FB31F6C93A685B785A05CBF4F32
:1022000011969C938E93A689B7892C9181E090E0DA
:10221000078C02C0880F991F0A94E2F7822B8C93D7
:1022200081E081A30488F589E02D8081806480832A
:1022300081E090E0DF91CF911F910F910895FB0114
:10224000E05CFF4F208131812F5F3F4F2F73332799
:10225000DB01AE5BBF4F4D915C912417350741F018
:1022600040815181DB01A40FB51F8C933183208302
:10227000089508951F920F920FB60F9211240BB676
:102280000F922F933F934F935F936F937F938F930F
:102290009F93AF93BF93EF93FF938091C00082FD14
:1022A00007C08091C60066E67BE00E941F1102C055
:1022B0008091C600FF91EF91BF91AF919F918F9157
:1022C0007F916F915F914F913F912F910F900BBE36
:1022D0000F900FBE0F901F90189508951F920F92A8
:1022E0000FB60F9211240BB60F922F933F934F937B
:1022F0005F936F937F938F939F93AF93BF93EF936E
:10230000FF938091C80082FD07C08091CE006EEDE2
:102310007AE00E941F1102C08091CE00FF91EF91E0
:10232000BF91AF919F918F917F916F915F914F91ED
:102330003F912F910F900BBE0F900FBE0F901F90EB
:10234000189508951F920F920FB60F9211240BB695
:102350000F922F933F934F935F936F937F938F933E
:102360009F93AF93BF93EF93FF938091D00082FD33
:1023700007C08091D60066E57AE00E941F1102C076
:102380008091D600FF91EF91BF91AF919F918F9176
:102390007F916F915F914F913F912F910F900BBE65
:1023A0000F900FBE0F901F90189508951F920F92D7
:1023B0000FB60F9211240BB60F922F933F934F93AA
:1023C0005F936F937F938F939F93AF93BF93EF939D
:1023D000FF938091300182FD07C0809136016EEC41
:1023E00079E00E941F1102C080913601FF91EF91A8
:1023F000BF91AF919F918F917F916F915F914F911D
:102400003F912F910F900BBE0F900FBE0F901F901A
:10241000189588E699E00E948610892B11F00E9499
:10242000391186E499E00E948610892B11F00E94F0
:102430006D1184E299E00E948610892B11F00E94B0
:10244000A11182E099E00E948610892B11F00E9470
:10245000D51108951F920F920FB60F9211240BB64B
:102460000F922F933F938F939F93EF93FF9320911E
:10247000620B3091630B8091640B9091650B281770
:10248000390731F48091C1008F7D8093C10014C061
:10249000E091640BF091650BEE5DF44F208180912B
:1024A000640B9091650B01968F7399279093650B40
:1024B0008093640B2093C600FF91EF919F918F91C1
:1024C0003F912F910F900BBE0F900FBE0F901F905A
:1024D00018951F920F920FB60F9211240BB60F9200
:1024E0002F933F938F939F93EF93FF932091DA0A5B
:1024F0003091DB0A8091DC0A9091DD0A28173907B8
:1025000031F48091C9008F7D8093C90014C0E0919F
:10251000DC0AF091DD0AE656F54F20818091DC0A55
:102520009091DD0A01968F7399279093DD0A80932D
:10253000DC0A2093CE00FF91EF919F918F913F9104
:102540002F910F900BBE0F900FBE0F901F901895FC
:102550001F920F920FB60F9211240BB60F922F936A
:102560003F938F939F93EF93FF932091520A309163
:10257000530A8091540A9091550A2817390731F46B
:102580008091D1008F7D8093D10014C0E091540AD6
:10259000F091550AEE5EF54F20818091540A90919A
:1025A000550A01968F7399279093550A8093540A80
:1025B0002093D600FF91EF919F918F913F912F91A2
:1025C0000F900BBE0F900FBE0F901F9018951F928B
:1025D0000F920FB60F9211240BB60F922F933F93C9
:1025E0008F939F93EF93FF932091CA093091CB096A
:1025F0008091CC099091CD092817390731F4809149
:1026000031018F7D8093310114C0E091CC09F091AC
:10261000CD09E657F64F20818091CC099091CD09E4
:1026200001968F7399279093CD098093CC092093BD
:102630003601FF91EF919F918F913F912F910F90D4
:102640000BBE0F900FBE0F901F901895A0E0B0E04A
:10265000ECE2F3E10C944C1AEC016A017B014115A8
:10266000514E6105710511F1EC89FD8981E090E021
:1026700008A002C0880F991F0A94E2F7808360E0E7
:1026800079E08DE390E0A70196010E940D1A89017F
:102690009A0101501109210931093695279517959D
:1026A00007959801011580E11807A8F0EC89FD89CC
:1026B000108260E874E88EE190E0A70196010E9424
:1026C0000D1ADA01C9010197A109B109B695A795BB
:1026D000979587959C01E889F9893083EA89FB8978
:1026E000208319A2EE89FF89408181E090E09C015E
:1026F0000C8C02C0220F331F0A94E2F7242B208394
:10270000EE89FF8940819C010D8C02C0220F331F8E
:102710000A94E2F7242B2083EE89FF8940819C01F3
:102720000E8C02C0220F331F0A94E2F7242B208361
:10273000EE89FF8920810F8C02C0880F991F0A94AF
:10274000E2F7809582238083CDB7DEB7E8E00C9472
:10275000681ACF92DF92EF92FF92E8E6F9E01382D7
:10276000128288EEC82E83E0D82EE12CF12CC48290
:10277000D582E682F78264E274E07183608386E644
:102780009BE09587848782E29BE09787868785EC2C
:1027900090E0918B808B84EC90E0938B828B80EC2B
:1027A00090E0958B848B81EC90E0978B868B82EC0C
:1027B00090E0918F808F86EC90E0938F828F44E041
:1027C000448F33E0358F27E0268F95E0978F81E0A7
:1027D00080A3E6E4F9E013821282C482D582E68205
:1027E000F78271836083AEEDBAE0B587A487AAE96A
:1027F000BAE0B787A687ADECB0E0B18BA08BACECAC
:10280000B0E0B38BA28BA8ECB0E0B58BA48BA9ECA5
:10281000B0E0B78BA68BAAECB0E0B18FA08FAEEC86
:10282000B0E0B38FA28F448F358F268F978F80A310
:10283000E4E2F9E013821282C482D582E682F78252
:1028400071836083A6E5BAE0B587A487A2E1BAE008
:10285000B787A687A5EDB0E0B18BA08BA4EDB0E063
:10286000B38BA28BA0EDB0E0B58BA48BA1EDB0E053
:10287000B78BA68BA2EDB0E0B18FA08FA6EDB0E034
:10288000B38FA28F448F358F268F978F80A3E2E07E
:10289000F9E013821282C482D582E682F7827183C4
:1028A00060836EEC79E0758764876AE879E0778702
:1028B000668765E371E0718B608B64E371E0738B15
:1028C000628B60E371E0758B648B61E371E0778B01
:1028D000668B62E371E0718F608F66E371E0738FE6
:1028E000628F448F358F268F978F80A3FF90EF9054
:1028F000DF90CF9008951F920F920FB60F92112480
:102900002F933F938F939F93AF93BF938091AB0B84
:102910009091AC0BA091AD0BB091AE0B3091AA0B86
:1029200023E0230F2D3720F40196A11DB11D05C012
:1029300026E8230F0296A11DB11D2093AA0B8093B8
:10294000AB0B9093AC0BA093AD0BB093AE0B8091FF
:10295000AF0B9091B00BA091B10BB091B20B01965F
:10296000A11DB11D8093AF0B9093B00BA093B10B41
:10297000B093B20BBF91AF919F918F913F912F91E7
:102980000F900FBE0F901F9018952FB7F89460917D
:10299000AB0B7091AC0B8091AD0B9091AE0B2FBF38
:1029A0000895789484B5826084BD84B5816084BDC7
:1029B00085B5826085BD85B5816085BDEEE6F0E0B8
:1029C000808181608083E1E8F0E010828081826014
:1029D0008083808181608083E0E8F0E08081816095
:1029E0008083E1EBF0E0808184608083E0EBF0E0C5
:1029F000808181608083E1E9F0E080818260808372
:102A0000808181608083E0E9F0E080818160808363
:102A1000E1EAF0E080818260808380818160808350
:102A2000E0EAF0E0808181608083E1E2F1E0808192
:102A300082608083808181608083E0E2F1E0808138
:102A400081608083EAE7F0E0808184608083808118
:102A500082608083808181608083808180688083C0
:102A60001092C1000895A0E0B0E0E9E3F5E10C9414
:102A7000461AEC01009721F4CB010E949A17B8C0C6
:102A8000FC01E60FF71F9C0122503109E217F30702
:102A900008F4ACC0D9010D911C91119706171707C6
:102AA000B0F00530110508F49FC0C80104978617DF
:102AB000970708F499C002501109061B170B0193E0
:102AC00011936D937C93CF010E942F188DC05B01F1
:102AD000A01AB10A4C01800E911EA091B50BB091C5
:102AE000B60B40E050E0E12CF12C109709F44AC0FD
:102AF000A815B905D1F56D907C901197630182E01E
:102B0000C80ED11CCA14DB0480F1A3014A195B0969
:102B10006A0182E0C80ED11C1296BC9012971396DF
:102B2000AC91B5E0CB16D10440F0B282A3835183BF
:102B30004083D9016D937C930AC00E5F1F4FC30180
:102B4000800F911FF90191838083EB2DFA2FE114FF
:102B5000F10431F0D7011396FC93EE93129744C021
:102B6000F093B60BE093B50B3FC08D919C911197FC
:102B70004817590708F4AC017D0112960D90BC91DD
:102B8000A02DB3CF8091B30B9091B40B881599050C
:102B9000E1F446175707C8F4809118029091190282
:102BA000009741F48DB79EB740911C0250911D02D1
:102BB000841B950BE817F907C8F4F093B40BE09366
:102BC000B30BF901718360830FC0CB010E949A1788
:102BD0007C01009759F0A801BE010E949C1ACE0109
:102BE0000E942F18C70104C0CE0102C080E090E00F
:102BF000CDB7DEB7EEE00C94621A90E0FC0131979D
:102C0000E131F10508F04AC08827EE58FF4F8F4F99
:102C10000C942F1A809180008F7703C080918000E0
:102C20008F7D80938000089584B58F7702C084B52E
:102C30008F7D84BD08958091B0008F7703C080910F
:102C4000B0008F7D8093B0000895809190008F77C1
:102C500007C0809190008F7D03C080919000877F96
:102C60008093900008958091A0008F7707C0809195
:102C7000A0008F7D03C08091A000877F8093A0007B
:102C80000895809120018F7707C0809120018F7D6A
:102C900003C080912001877F809320010895CF9306
:102CA000DF9390E0FC01E254FD4F2491FC01EC5FC6
:102CB000FC4F8491882361F190E0880F991FFC01FB
:102CC000EC59FC4FC591D491FC01E65BFC4FA591FA
:102CD000B491611109C09FB7F8948881209582232F
:102CE0008883EC912E230BC0623061F49FB7F89477
:102CF0003881822F809583238883EC912E2B2C930F
:102D00009FBF06C08FB7F894E8812E2B28838FBF12
:102D1000DF91CF9108951F93CF93DF93282F30E059
:102D2000F901E858FD4F8491F901E254FD4FD49127
:102D3000F901EC5FFC4FC491CC23C9F0162F81112F
:102D40000E94FD15EC2FF0E0EE0FFF1FE65BFC4F3D
:102D5000A591B4918FB7F894111105C09C91ED2FF6
:102D6000E095E92302C0EC91ED2BEC938FBFDF914E
:102D7000CF911F9108951F93CF93DF93182FEB01ED
:102D800061E00E944F16209711F460E004C0CF3F2D
:102D9000D10529F461E0812F0E948B16A5C0E12F97
:102DA000F0E0E858FD4FE4914E2F50E0FA013197E2
:102DB000E131F10508F093C08827ED57FF4F8F4FA1
:102DC0000C942F1A84B5806884BDC7BD8DC084B5AE
:102DD000806284BDC8BD88C0809180008068809377
:102DE0008000D0938900C09388007EC080918000CD
:102DF000806280938000D0938B00C0938A0074C05F
:102E00008091B00080688093B000C093B3006CC024
:102E10008091B00080628093B000C093B40064C021
:102E200080919000806880939000D0939900C09327
:102E300098005AC080919000806280939000D09357
:102E40009B00C0939A0050C080919000886080934E
:102E50009000D0939D00C0939C0046C08091A0003C
:102E600080688093A0008091A0008F7B8093A00059
:102E7000D093A900C093A80037C08091A0008062C1
:102E80008093A000D093AB00C093AA002DC0809186
:102E9000A00088608093A000D093AD00C093AC00E8
:102EA00023C080912001806880932001D093290164
:102EB000C093280119C08091200180628093200175
:102EC000D0932B01C0932A010FC08091200188600C
:102ED00080932001D0932D01C0932C0105C0C038F0
:102EE000D1050CF057CF51CFDF91CF911F910895AD
:102EF000A0E0B0E0EEE7F7E10C944C1A6C01EB01B6
:102F00007B01E40EF51E00E010E0CE15DF0561F058
:102F10006991D601ED91FC910190F081E02DC601FF
:102F20001995080F191FF1CFC801CDB7DEB7E8E03A
:102F30000C94681ACF93DF938230910510F482E0ED
:102F400090E0E091B50BF091B60B20E030E0C0E0EE
:102F5000D0E0309711F14081518148175907C0F0F6
:102F60004817590761F482819381209719F09B8358
:102F70008A832BC09093B60B8093B50B26C0211586
:102F8000310519F04217530718F49A01BE01DF0109
:102F9000EF010280F381E02DDCCF2115310509F12D
:102FA000281B390B2430310590F412968D919C9199
:102FB00013976115710521F0FB019383828304C08F
:102FC0009093B60B8093B50BFD01329644C0FD0182
:102FD000E20FF31F81939193225031092D933C937B
:102FE0003AC02091B30B3091B40B232B41F42091C4
:102FF0001A0230911B023093B40B2093B30B209133
:103000001802309119022115310541F42DB73EB750
:1030100040911C0250911D02241B350BE091B30B13
:10302000F091B40BE217F307A0F42E1B3F0B281707
:10303000390778F0AC014E5F5F4F2417350748F031
:103040004E0F5F1F5093B40B4093B30B819391933A
:1030500002C0E0E0F0E0CF01DF91CF9108950F933F
:103060001F93CF93DF93009709F48CC0FC01329734
:10307000138212820091B50B1091B60B0115110548
:1030800081F420813181820F931F2091B30B309105
:10309000B40B2817390779F5F093B40BE093B30B11
:1030A00071C0D80140E050E0AE17BF0750F412964F
:1030B0002D913C911397AD012115310509F1D901ED
:1030C000F3CF9D01DA013383228360817181860F02
:1030D000971F8217930769F4EC0128813981260F25
:1030E000371F2E5F3F4F318320838A819B819383DB
:1030F0008283452B29F4F093B60BE093B50B42C0C5
:103100001396FC93EE931297ED01499159919E010C
:10311000240F351FE217F30771F480819181840F2A
:10312000951F029611969C938E938281938113969C
:103130009C938E931297E0E0F0E0D80112968D9167
:103140009C911397009719F0F8018C01F6CF8D919F
:103150009C9198012E5F3F4F820F931F2091B30BDC
:103160003091B40B2817390769F4309729F410927D
:10317000B60B1092B50B02C0138212821093B40BDF
:103180000093B30BDF91CF911F910F9108950E948F
:10319000021908F481E008950E94D3186894B111CF
:1031A0000C94711908950E94561988F09F5798F051
:1031B000B92F9927B751B0F0E1F0660F771F881F3C
:1031C000991F1AF0BA95C9F714C0B13091F00E9456
:1031D0007019B1E008950C947019672F782F882723
:1031E000B85F39F0B93FCCF3869577956795B3957D
:1031F000D9F73EF490958095709561957F4F8F4FEC
:103200009F4F0895990F0008550FAA0BE0E8FEEFB5
:1032100016161706E807F907C0F012161306E4079A
:10322000F50798F0621B730B840B950B39F40A2693
:1032300061F0232B242B252B21F408950A2609F471
:10324000A140A6958FEF811D811D089597F99F6775
:1032500080E870E060E008959FEF80EC089500241E
:103260000A941616170618060906089500240A94EB
:1032700012161306140605060895092E0394000C71
:1032800011F4882352F0BB0F40F4BF2B11F460FF00
:1032900004C06F5F7F4F8F4F9F4F089557FD905829
:1032A000440F551F59F05F3F71F04795880F97FB0A
:1032B000991F61F09F3F79F08795089512161306C4
:1032C0001406551FF2CF4695F1DF08C016161706F3
:1032D0001806991FF1CF8695710561050894089528
:1032E000E894BB2766277727CB0197F908950E94BA
:1032F000021908F48FEF08950E948F190C943D195C
:103300000E942F1938F00E94361920F0952311F0F1
:103310000C9426190C942C1911240C9471190E94E8
:103320004E1970F3959FC1F3950F50E0551F629FA2
:10333000F001729FBB27F00DB11D639FAA27F00D0E
:10334000B11DAA1F649F6627B00DA11D661F829F35
:103350002227B00DA11D621F739FB00DA11D621F1A
:10336000839FA00D611D221F749F3327A00D611D37
:10337000231F849F600D211D822F762F6A2F112419
:103380009F5750409AF0F1F088234AF0EE0FFF1F4C
:10339000BB1F661F771F881F91505040A9F79E3FA3
:1033A000510580F00C9426190C9471195F3FE4F3D9
:1033B000983ED4F3869577956795B795F795E795F9
:1033C0009F5FC1F7FE2B880F911D9695879597F902
:1033D0000895DB018F939F930E94371ABF91AF919D
:1033E000A29F800D911DA39F900DB29F900D11245F
:1033F000089597FB072E16F4009407D077FD09D0A7
:103400000E94791A07FC05D03EF4909581959F4F54
:103410000895709561957F4F0895A1E21A2EAA1B19
:10342000BB1BFD010DC0AA1FBB1FEE1FFF1FA21774
:10343000B307E407F50720F0A21BB30BE40BF50B71
:10344000661F771F881F991F1A9469F760957095FA
:10345000809590959B01AC01BD01CF010895EE0FC1
:10346000FF1F881F8BBF0790F691E02D19940E94D3
:103470008D1AA59F900DB49F900DA49F800D911D56
:10348000112408952F923F924F925F926F927F92F4
:103490008F929F92AF92BF92CF92DF92EF92FF9264
:1034A0000F931F93CF93DF93CDB7DEB7CA1BDB0B10
:1034B0000FB6F894DEBF0FBECDBF19942A883988A5
:1034C00048885F846E847D848C849B84AA84B984BC
:1034D000C884DF80EE80FD800C811B81AA81B981C8
:1034E000CE0FD11D0FB6F894DEBF0FBECDBFED01DC
:1034F0000895AA1BBB1B51E107C0AA1FBB1FA6173B
:10350000B70710F0A61BB70B881F991F5A95A9F78C
:1035100080959095BC01CD010895A29FB001B39F05
:10352000C001A39F700D811D1124911DB29F700DCC
:10353000811D1124911D0895FB01DC0102C0019041
:0E3540000D9241505040D8F70895F894FFCFF7
:10354E001C001D0005001A001B00040018001900C5
:10355E0003001600170002000000B70B8000737402
:10356E00645F6D7367732F54696D650063643731E3
:10357E0036366337346335353263333131666263E1
:10358E0063326665356137626332383900726F7344
:10359E0073657269616C5F6D7367732F546F7069B9
:1035AE0063496E666F003061643531663838666324
:1035BE003434383932663863313036383430373750
:1035CE0036343630303500726F7373657269616CE4
:1035DE005F6D7367732F4C6F6700313161626437B3
:1035EE003331633235393333323631636436313801
:1035FE0033626431326436323935003966306539BA
:10360E003862646136353938313938366464663536
:10361E003361666137613430653439007374645FC9
:10362E006D7367732F466C6F617436340066646217
:10363E003238323130626661396437633931313450
:10364E0036323630313738643961353834004D65AD
:10365E0073736167652066726F6D2064657669634A
:10366E00652064726F707065643A206D6573736166
:10367E006765206C6172676572207468616E206286
:10368E0075666665722E007475726E696E6720724D
:10369E00696768742E2E2E007475726E696E6720BF
:1036AE006C6566742E2E2E007369646577617920C1
:1036BE0072696768742E2E2E00736964657761795E
:1036CE00206C6566742E2E2E002F726F626F636FE4
:1036DE006E323031382F616E676C65002F726F62FB
:1036EE006F636F6E323031382F64697374616E633D
:1036FE006500726F7373657269616C5F6D7367736A
:10370E002F52657175657374506172616D000000A2
:10371E000000F40118025E02610200000000920730
:10372E007A086402670200000000680739086A021E
:10373E006D02000000009C06450970027302000035
:10374E0000007602EA029403970300000000E80AE4
:10375E009A0DBA03000000009A03B003B403B70336
:10376E0000000000DD1078178610B2109610D210EF
:00000001FF
