:100000000C945E000C9486000C9486000C94860080
:100010000C9486000C9486000C9486000C94860048
:100020000C9486000C9486000C9486000C94860038
:100030000C9486000C9486000C9486000C94860028
:100040000C94A90F0C9486000C944C0D0C948F0DFD
:100050000C9486000C9486000C9486000C94860008
:100060000C9486000C94860000000007000201003A
:100070000003040600000000000000000102040864
:100080001020408001020408102001020408102002
:10009000040404040404040402020202020203032E
:1000A0000303030300000000250028002B000000CC
:1000B0000000240027002A00F90B4D0E11241FBE5A
:1000C000CFEFD8E0DEBFCDBF12E0A0E0B1E0E6E3C5
:1000D000F6E202C005900D92A63FB107D9F726E0DF
:1000E000A6EFB2E001C01D92A33AB207E1F710E01B
:1000F000CEE5D0E004C02197FE010E94FB12CC3572
:10010000D107C9F70E94AA0E0C9419130C94000091
:10011000DC01FB0112968C911297808313968C91CF
:100120001397818314968C911497828315968C91E2
:100130001597838316968C911697848317968C91C6
:100140001797858318968C911897868319968C91AA
:10015000878388E090E00895FC01DB014C9150E03A
:1001600060E070E0428353836483758311968C91C1
:100170001197582B428353836483758312968C9115
:100180001297682B428353836483758313968C91F3
:100190001397782B428353836483758314964C9111
:1001A000149750E060E070E0468357836087718762
:1001B00015968C911597582B4683578360877187C6
:1001C00016968C911697682B4683578360877187A4
:1001D00017968C91782B468357836087718788E0C8
:1001E00090E0089582E191E0089580E291E0089521
:1001F00081E491E008958AE591E008958BE791E02C
:1002000008958EE891E0089587E792E008958FEAD7
:1002100091E00895A0E0B0E0E0E1F1E00C94B612C6
:10022000EB01FC0182809380A480B580D501C401DC
:1002300077E1B595A795979587957A95D1F7992701
:10024000AA27BB270097A105B10521F080589C4F34
:10025000AF4FBF4F188219821A82B501A40125E061
:10026000440F551F661F771F2A95D1F74B83B501A1
:10027000A40133E075956795579547953A95D1F761
:100280004C83B501A401EBE07595679557954795AB
:10029000EA95D1F74D83AC01BD01F4E0440F551F41
:1002A000661F771FFA95D1F79501840153E13595C3
:1002B0002795179507955A95D1F70F70402B4E83C8
:1002C0006C017D0164E0F594E794D794C7946A9536
:1002D000D1F720E030E0A901C501B4010E9431123C
:1002E00087FD02C0CF8203C08C2D80688F8388E099
:1002F00090E0CDB7DEB7ECE00C94D2128F929F92D3
:10030000AF92BF92CF92DF92EF92FF920F931F9323
:10031000FC01DB011396CC901397C294C69497E02E
:10032000C9228C2C912CA12CB12C82829382A48284
:10033000B5821496CC901497D12CE12CF12C23E0AB
:10034000CC0CDD1CEE1CFF1C2A95D1F7C828D9283F
:10035000EA28FB28C282D382E482F58215960C91AA
:10036000159710E020E030E04BE0000F111F221F36
:10037000331F4A95D1F7C02AD12AE22AF32AC28232
:10038000D382E482F58216960C9116970F7010E0D6
:1003900020E030E053E1000F111F221F331F5A9558
:1003A000D1F70C291D292E293F2902831383248389
:1003B000358316968C91169782958F7017964C916F
:1003C00017974F7750E060E070E094E0440F551FBE
:1003D000661F771F9A95D1F7482B41155105610586
:1003E000710599F0405853406109710987E1440F44
:1003F000551F661F771F8A95D1F7402B512B622B13
:10040000732B428353836483758317968C91807812
:1004100090E0A0E0B0E0B82FAA2799278827428172
:10042000538164817581842B952BA62BB72B8283F6
:100430009383A483B58388E090E01F910F91FF9090
:10044000EF90DF90CF90BF90AF909F908F900895E6
:1004500080ED91E0089581EE91E008950F931F9350
:10046000CF93DF938C01EC012696CE010E947E0192
:10047000D8011C96ED91FC911D97CE010995DF9155
:10048000CF911F910F910895FC018685978508955E
:1004900080ED91E0089581EE91E00895FC01EA5429
:1004A000FD4F8081089561E0809108010E94790FDD
:1004B00060E0809106010E94790F61E08091020165
:1004C0000E94790F60E0809100010E94790F66E937
:1004D00070E080910A010E94B70E66E970E0809199
:1004E00004010E94B70E089561E0809108010E9406
:1004F000790F60E0809106010E94790F61E08091A0
:1005000002010E94790F60E0809100010E94790F42
:1005100062E370E080910A010E94B70E6DE770E01F
:10052000809104010E94B70E089561E08091080156
:100530000E94790F60E0809106010E94790F61E0CE
:10054000809102010E94790F60E0809100010E9479
:10055000790F6DE770E080910A010E94B70E62E3A7
:1005600070E0809104010E94B70E089561E08091CF
:1005700008010E943D0F61E0809106010E943D0F3D
:1005800061E080910A010E943D0F61E080910201CB
:100590000E943D0F61E0809100010E943D0F61E0EB
:1005A000809104010E943D0F40910A0350910B037A
:1005B00060910C0370910D038091080390910903E1
:1005C0000E94CA0D1092B3051092B2051092B505A3
:1005D0001092B4051092B9051092B8051092B705A3
:1005E0001092B605E0E8F5E080E090E021913191CD
:1005F000232B81F4FC01EE0FFF1FE058FA4F26EF8A
:1006000032E0318320838C599F4F9093F90280937D
:10061000F802089501968931910541F70895CF9226
:10062000DF92EF92FF9220E030E06A017B01022E20
:1006300004C0F694E794D794C7940A94D2F7FC01C7
:10064000C192CF01285F3F4F2032310571F7FF90F3
:10065000EF90DF90CF9008954F925F926F927F92CC
:10066000AF92BF92CF92DF92EF92FF920F931F93C0
:10067000CF93DF93EC017B018A81FB0180838B8127
:1006800081838C8182838D818383DB01179640E097
:1006900050E0BA01E4E0F0E04A805B806C807D804D
:1006A0008F010C5F1F4F4415550566057705C0F493
:1006B0008A859B85E80FF91F3497D080218192812C
:1006C0008381FD013397D0823196208331969083C8
:1006D0008C93F8014F5F5F4F6F4F7F4F1496DCCFC5
:1006E000EE0DFF1D8C8580838D8581838E858283B1
:1006F0008F85838380E090E040E050E0BA014C8435
:100700005D846E847F84F701E00FF11F0C5F1F4F43
:100710004415550566057705B8F4AC89BD89A80F61
:10072000B91FCC901196DC90119712963C911297BC
:1007300013962C91C082D182328323834F5F5F4F07
:100740006F4F7F4F0496DBCF8E8980838F898183A3
:10075000888D8283898D8383412C512C32018E892F
:100760009F89A88DB98D481659066A067B0680F5C3
:100770005201AA0CBB1CEC8DFD8DEA0DFB1DA08166
:10078000B181FD0101900020E9F731976F01CA1A8C
:10079000DB0AA60160E070E0C701800F911F0E9494
:1007A0000F030C5F1F4F8C8D9D8DFC01EA0DFB1D0F
:1007B00060817181A601C701800F911F0E941013F3
:1007C0000C0D1D1DFFEF4F1A5F0A6F0A7F0AC7CF7E
:1007D000C801DF91CF911F910F91FF90EF90DF90B3
:1007E000CF90BF90AF907F906F905F904F900895A3
:1007F000EF92FF920F931F93CF93DF938C017B01B6
:10080000EC018A81FB018193AB81BC81ED010990F0
:100810000020E9F72197CA1BDB0BAE0160E070E016
:10082000CF010E940F03F80163817481AE01C701FB
:1008300005960E941013CE010596CDB7DEB7E6E00F
:100840000C94D812A0E0B0E0E8E2F4E00C94BA1204
:100850006C01EB01FC018281888383818983A481FF
:10086000B581FD0101900020E9F731978F010A1B46
:100870001B0BA80160E070E0CE0102960E940F03FE
:10088000F60164817581A801CE0106960E941013BD
:10089000C8010696F601A681B781FD0101900020EE
:1008A000E9F731977F01EA1AFB0AA70160E070E0DF
:1008B0008C0F9D1F0E940F03065F1F4FF60166817C
:1008C0007781A701CE01800F911F0E9410130E0D9A
:1008D0001F1DF601A085B185FD0101900020E9F7FB
:1008E00031977F01EA1AFB0AA70160E070E0CE01B0
:1008F000800F911F0E940F030C5F1F4FF601608550
:100900007185A701CE01800F911F0E941013C801AD
:100910008E0D9F1DF6016285438534852585C80FA0
:10092000D91F688349833A832B830496CDB7DEB7FA
:10093000E8E00C94D612CF92DF92EF92FF92FC0186
:100940001082118212821382DB0120E030E04D918F
:1009500050E0022E02C0440F551F0A94E2F7052E04
:10096000000C660B770BC080D180E280F3804C29AD
:100970005D296E297F294083518362837383285FB9
:100980003F4F2032310519F7FF90EF90DF90CF9065
:100990000895A4E0B0E0EFECF4E00C94B6127C0112
:1009A0008B01FB018191BF01F7018283CE0101968A
:1009B0000E949B0489819A81AB81BC814C015D01BD
:1009C000F5E08F0E911CA11CB11C680125E0C20E40
:1009D000D11CA601401B510B60E070E04815590581
:1009E0006A057B0548F4F60141916F019F01225091
:1009F0003109F9014083EDCFF801E80FF91F1482A6
:100A00000C5F1F4FF7011483038305962496ECE0D7
:100A10000C94D212ACE0B0E0E0E1F5E00C94B2123C
:100A20007C018B01DB018C9190E0F7019383828341
:100A300011962C91922B938382836E5F7F4FCE0110
:100A400009960E949B0489849A84AB84BC84B50176
:100A5000A4014A5F5F4F6F4F7F4FF8013696CF0179
:100A6000801B910BA0E0B0E084179507A607B7079D
:100A700028F48191DF0112978C93F1CFF801E80DF2
:100A8000F91D1582C8010596D70115969C938E9382
:100A90001497B4016A5F7F4F600F711FCE010596F6
:100AA0000E949B04BAE08B0E911C4D815E816F8188
:100AB00078852401092C000C66087708440E551E21
:100AC000661E771EF801E80DF91DCF01801B910B02
:100AD000A0E0B0E084159505A605B70528F481913E
:100AE000DF0112978C93F1CF6401C40ED51EB801BB
:100AF0006C0D7D1DFB0131971082C4010197800FA1
:100B0000911FF70197838683CE0101960E949B0473
:100B1000A6014C5F5F4F49805A806B807C804A0100
:100B2000052E000CAA08BB08840C951CA61CB71C3B
:100B3000F801E40FF51F9F01201B310BC901A0E054
:100B4000B0E088159905AA05BB0528F48191DF015D
:100B500012978C93F0CFCA01840D951DF801E80F10
:100B6000F91FDF0111971C929A0121503109020FE0
:100B7000131FD70119961C930E9318972181428158
:100B800050E060E070E0BA0155274427522B2081E5
:100B9000422B2381722BF701428753876487758725
:100BA00004962C96E0E10C94CE12A8E0B0E0EBEDB8
:100BB000F5E00C94B0128C015B01DB018C91119675
:100BC0009C9111971296CC901297D12CE12CF12C7C
:100BD0007601DD24CC24D92AC82A13968C91F82AD0
:100BE000F80182819381A481B5818C159D05AE05A4
:100BF000BF0570F4B601660F771F660F771F8285F9
:100C000093850E946711D8011B969C938E931A9727
:100C1000F801C282D382E482F582D5011796C12CF5
:100C2000D12C7601F4E08F2E912C98012A5F3F4F52
:100C3000F8014281538164817581C4010496C41610
:100C4000D506E606F70680F54C9150E060E070E0CE
:100C5000742F662755274427FD013397E0814E2BDB
:100C6000FD013297E0815E2BFD013197E0816E2B13
:100C7000F80146835783608771874C010897428546
:100C80005385840F951FF9014081518162817381E1
:100C9000FC014083518362837383FFEFCF1ADF0A25
:100CA000EF0AFF0A1496C4CFF401EA0DFB1D208160
:100CB0003181C280D12CE12CF12C7601DD24CC24B1
:100CC000D32AC22A2381F22A4C01F8018485958512
:100CD000A685B7858C159D05AE05BF0570F4B601D8
:100CE000660F771F660F771F848995890E946711A9
:100CF000D80155969C938E935497F801C486D58657
:100D0000E686F78620E030E0C12CD12C7601D801B0
:100D10005096F8014485558566857785F501E80D7F
:100D2000F91DC4010496C416D506E606F70648F573
:100D30009180428150E060E070E0BA01552744277D
:100D4000592990804929E3817E2BF801408B518BF2
:100D5000628B738B4C0184899589FC01E20FF31F30
:100D60004D915D916D917C91139740835183628386
:100D70007383FFEFCF1ADF0AEF0AFF0A2C5F3F4FA2
:100D8000C8CF20813181C280D12CE12CF12C760199
:100D9000DD24CC24D32AC22A2381F22A4C01F80173
:100DA00086899789A08DB18D8C159D05AE05BF05EF
:100DB00060F4B601660F771F848D958D0E946711D0
:100DC000D8015D969C938E935C97F801C68AD78A6A
:100DD000E08EF18E412C512C32011801FAE12F0ED8
:100DE000311CF80186899789A08DB18D4816590666
:100DF0006A067B0608F05AC0B501680D791DCE0160
:100E000001960E949B0494012C5F3F4FC980DA80B9
:100E1000EB80FC80C901032E000CAA0BBB0BAC01BC
:100E2000BD014C0D5D1D6E1D7F1D4D835E836F8367
:100E30007887F501E20FF31FAF014A195B09CA0178
:100E4000A0E0B0E04D815E816F81788584179507C1
:100E5000A607B70728F44191DF0112974C93ECCF16
:100E6000C9018C0D9D1DF501E80FF91F3197108206
:100E7000215031092A0D3B1DD8015B963C932E93DE
:100E80005A974C01C201880F991F5C96ED91FC9115
:100E90005D97E80FF91FD1018D919C91918380831B
:100EA000BFEF4B1A5B0A6B0A7B0A9BCFC4012896E3
:100EB000E2E10C94CC12A5E0B0E0E1E6F7E00C949E
:100EC000C0122FEA32E03A8329836B835D834C831F
:100ED000DC01ED91FC910190F081E02DAE014F5FBE
:100EE0005F4F67E070E009952596E2E00C94DC1214
:100EF000A0E0B0E0EEE7F7E00C94BA12EC017B0161
:100F0000643671053CF0FE01EA54FD4F8081882370
:100F100009F462C0DA01ED91FC910190F081E02DBD
:100F2000BE01695C7E4FCA0109958E01005D1E4FAE
:100F30002FEFF80120832EEF3196208331968083A6
:100F4000319690833196292F280F20952083319652
:100F5000E082DE01AA5CBE4FFC9245E050E020E05A
:100F600030E0BC016A5F7F4F6417750734F0A191D0
:100F70002A0F311D4F5F5F4FF7CF7C01F8E0EF0E76
:100F8000F11C8C0F9D1FFC01E95CFE4F2095208316
:100F900049E1E41641E0F406B4F46801C601801B9F
:100FA000910B8E159F056CF48A819B81D6016D9102
:100FB0006D01DC01ED91FC910190F081E02D09952E
:100FC000EDCFC7010BC042E052E063E0CE010E94CA
:100FD0005B078FEF9FEF02C080E090E0CDB7DEB7F8
:100FE000E8E00C94D612CF92DF92EF92FF92FC01D0
:100FF00082819381A481B5818093E8059093E9056E
:10100000A093EA05B093EB054BE352E061E086E084
:1010100093E00E945B07C090E805D090E905E0905E
:10102000EA05F090EB0520E030E040E051ECC7012C
:10103000B6010E94311287FF0AC00E94950243E464
:1010400052E061E086E093E00E945B0716C020E07A
:1010500030E040E051E4C701B6010E945A12181670
:1010600054F444E552E061E086E093E00E945B07BF
:101070000E94740202C00E945302FF90EF90DF9022
:10108000CF900895AAE0B0E0E8E4F8E00C94BE1236
:101090008C0187E992E09A8389831B821C821D82DE
:1010A0001E821F82188619861A86D801ED91FC913E
:1010B0000190F081E02DAE014F5F5F4F6AE070E07C
:1010C000C80109950E94F30FF80160877187828734
:1010D00093872A96E4E00C94DA124F925F926F9213
:1010E0007F92AF92BF92CF92DF92EF92FF920F93D7
:1010F0001F93CF93DF93CDB7DEB72E970FB6F8943B
:10110000DEBF0FBECDBF8C0183EA92E09A83898354
:101110001C821B8282E492E09E838D8398878F835A
:101120009A8789871B861C861D861E86680188EB28
:10113000C81A8DEFD80A7801A6E8EA1AADEFFA0AC4
:1011400098E1492E55245394612C712CD601ED91D0
:10115000FC913097B9F1848195819C838B83808148
:1011600091819E838D8382819381DC01ED91FC913D
:101170000480F581E02D099598878F83D601ED9144
:10118000FC9182819381DC01ED91FC910680F781D5
:10119000E02D09959A8789874B865C866D867E86C9
:1011A000F80180819181F601A081B18118966D913D
:1011B0007C911997DC01ED91FC91AE014F5F5F4F7F
:1011C000C8010995B2E0CB0ED11CCE14DF0409F0A2
:1011D000BDCF6801E4E5CE1AEDEFDE0A88E1482EC6
:1011E00055245394612C712CF701A081B181109783
:1011F000E1F112968D919C9113979C838B831496A9
:101200008D919C9115979E838D83ED91FC91119703
:101210000480F581E02DCD01099598878F83D70152
:101220008D919C91DC01ED91FC910680F781E02D80
:1012300009959A8789874B865C866D867E86D8015C
:10124000ED91FC91A080B180F70180819181DC015A
:10125000ED91FC910280F381E02D0995AE014F5F85
:101260005F4FBC01C801F5010995F2E0EF0EF11CDA
:10127000EC14FD0409F0B8CFF801EA54FD4F81E009
:1012800080832E960FB6F894DEBF0FBECDBFDF91E0
:10129000CF911F910F91FF90EF90DF90CF90BF9073
:1012A000AF907F906F905F904F900895AAE0B0E06C
:1012B000ECE5F9E00C94B6128C015B0187E992E051
:1012C0009A8389831B821C821D821E821F8218863C
:1012D00019861A860E94F30FF801C084D184E28433
:1012E000F3849B01AC012C193D094E095F0969018A
:1012F0007A01B501CE0101960E94AC0088EE882EDD
:1013000083E0982EA12CB12CC701B601A501940150
:101310000E948312CB80DC80ED80FE80C20ED31E43
:10132000E41EF51ECB82DC82ED82FE829B01AC01C5
:1013300060E472E48FE090E00E945F12CF80D88476
:10134000E984FA84DC01CB018C0D9D1DAE1DBF1D0F
:101350008F839887A987BA870E94F30FCB80DC80A0
:10136000ED80FE8031E0C31AD108E108F108A50143
:1013700094010E948312C21AD30AE40AF50AF80102
:10138000C486D586E686F786CF80D884E984FA8439
:10139000F6E3DF1AF5E6EF0AF4ECFF0A9B01AC0175
:1013A00060E472E48FE090E00E945F12C61AD70AF0
:1013B000E80AF90AF801C08AD18AE28AF38AB801F8
:1013C000605F7F4FC8010C960E948A0C0E94F30F49
:1013D000F801E554FD4F60837183828393832A96DD
:1013E000ECE00C94D212A0E1B0E0E9EFF9E00C944B
:1013F000B012988B8F870E94F30F4B015C012F85F1
:10140000388925543D4F3E832D83F9018081918198
:10141000A281B381A5019401281B390B4A0B5B0BF8
:10142000DA01C901893F9A42A105B10528F0EF858B
:10143000F889EA54FD4F10820F85188904551D4F15
:10144000D8018D919C91892B81F0EF85F889E15429
:10145000FD4F80819181A281B38188159905AA05EC
:10146000BB0518F4F801118210826F847888FCE4BF
:101470006F1AFDEF7F0A2F85388920553D4F3A833B
:101480002983CF84D88838E1C30ED11C4F85588971
:101490004A545D4F58874F832F8538892C533D4FD1
:1014A0003A8729874F8558894D535D4F5C874B8715
:1014B000EF84F88852E5E51A5DEFF50A2F85388943
:1014C0002E543D4F3C832B834F85588941545D4FAB
:1014D0005E874D871401250154E1250E311C411C06
:1014E000511CEF85F88984899589A689B789892B4C
:1014F0008A2B8B2B89F4AF85B88912968D919C919C
:101500001397DC01ED91FC910680F781E02D0995A0
:101510009C0197FF15C037C10E94F30FDC01CB017E
:1015200088199909AA09BB09EF85F88924893589A1
:1015300046895789281739074A075B07E0F64BC1E8
:10154000D3018D919C911197820F931F8D939C9342
:10155000F8014081518147305105D9F4AB81BC81FC
:101560008D919C911197AC014F5F5F4F4D935C93B0
:10157000EF85F889E80FF91F208FF70180819181AD
:10158000019791838083892B09F0ABCF88E090E0AD
:101590002FC04115510521F52F3F310569F481E038
:1015A00090E0F80191838083AD85BE852D923D92B8
:1015B0004D925C92139795CF0E94F30FDC01CB0103
:1015C00088199909AA09BB0989389341A105B10570
:1015D00008F487CFEF85F889EA54FD4F1082FBC0ED
:1015E00041305105B1F42E3F310531F482E090E0F5
:1015F000D8018D939C9375CFF80111821082AF8131
:10160000B8858C9181116DCF8F8598890E94420891
:1016100068CF4230510569F4F70131832083AB81F3
:10162000BC811D921C9283E090E0F801918380833D
:101630002EC04330510561F4322F2227F7018081FB
:101640009181280F391F3183208384E090E0D0CF2F
:101650004430510581F460E071E00E946F128F3FC9
:10166000910531F485E090E0F8019183808339CFD2
:101670001182108236CF4530510569F4E981FA8133
:1016800031832083E6E0F0E0D801ED93FC93D301B1
:101690002D933C9326CF4630510599F4322F2227C3
:1016A000E981FA8180819181280F391F318320835C
:1016B000E7E0F0E0D801ED93FC93D7018D919C9188
:1016C00062CF4830510509F00CCFF8011182108229
:1016D00060E071E00E946F128F3F910509F001CF29
:1016E000A981BA818D919C910097C9F48F859889C1
:1016F0000E9442088F8598890E946D08EF85F889BD
:10170000E954FD4F80829182A282B382ED81FE81F5
:1017100080829182A282B3828FEF9FEF61C08A3074
:10172000910531F4B6018F8598890E945609D9CE6A
:101730008630910551F4B60189859A850E94D505B8
:1017400081E0AB85BC858C93CCCE8B30910521F4A8
:10175000EF81F8851082C5CEFC01E752FF4FEE0FF6
:10176000FF1F2F853889E20FF31F80819181009739
:1017700009F4B7CEDC01ED91FC910190F081E02DF0
:10178000B6010995AECEEF85F889EA54FD4F808108
:10179000882321F10F85188909541D4FF801808194
:1017A0009181A281B381A5019401281B390B4A0BB9
:1017B0005B0BDA01C901853C9940A105B10570F0C8
:1017C0008F8598890E944208D8018D929D92AD9292
:1017D000BC92139703C08EEF9FEF02C080E090E0B1
:1017E0006096E2E10C94CC1286E093E00E94F3094B
:1017F000089583ED92E090930703809306038CEEA7
:1018000095E0909309038093080380E091EEA0E0B7
:10181000B0E080930A0390930B03A0930C03B09362
:101820000D031092BC058BEB92E09093CB05809357
:10183000CA051092CC051092CD051092CE051092DB
:10184000CF051092D5051092D4051092D6051092AE
:10185000D7051092D8051092D9051092DF05109285
:10186000DE051092E0051092E1051092E20510925B
:10187000E3051092E7051092E605EEE4F5E011921B
:10188000119285E0E038F807D1F7E0E8F5E0119231
:10189000119285E0E23BF807D1F7EEE1F3E0119217
:1018A00084E0E633F807D9F7E6E3F4E0119285E047
:1018B000EE34F807D9F710921A0310921B03109216
:1018C0001C0310921D038DED92E09093F70280931C
:1018D000F60287EC92E09093FD028093FC02109256
:1018E000FE021092FF02109200031092010383EF98
:1018F00097E0909303038093020381E090E090933C
:1019000005038093040384E692E09093FB028093A6
:10191000FA020895A0E0B0E0E0E9FCE00C94BA120D
:101920008C01EB01688179818A819B8120E03AEC0E
:101930004AE95BE30E948312F801C080D180E28013
:10194000F380C20ED31EE41EF51EC082D182E28255
:10195000F382688379838A839B83CDB7DEB7E8E01F
:101960000C94D612FC0124853585F901E05CFF4F0B
:1019700080819181329620813181821B930B8F73FC
:1019800099270895DC011C96ED91FC911D97DF01CC
:10199000A05CBF4F2D913C91119712968D919C9117
:1019A00011972817390739F08D919C91E80FF91F8D
:1019B000808190E008958FEF9FEF0895FC01A4854A
:1019C000B585FD01E05CFF4F208131813296808139
:1019D00091812817390779F080819181A80FB91F6B
:1019E0008C91208131812F5F3F4F2F7333273183BB
:1019F000208390E008958FEF9FEF0895FC0181A16F
:101A0000882329F0A489B5898C9186FFFBCF11A288
:101A100008950F931F93CF93DF93FC01A685B7859D
:101A20008D01005C1F4FE8018881998101968F73B9
:101A30009927AD014E5B5F4FEA01288139818217FA
:101A40009307D1F3E80128813981A20FB31F6C936A
:101A5000A685B785A05CBF4F11969C938E93A689EF
:101A6000B7892C9181E090E0078C02C0880F991F04
:101A70000A94E2F7822B8C9381E081A30488F58994
:101A8000E02D80818064808381E090E0DF91CF91C0
:101A90001F910F91089508951F920F920FB60F9204
:101AA00011242F934F935F938F939F93EF93FF9303
:101AB0008091C00082FD1CC02091C60080919206DA
:101AC0009091930601968F739927409194065091B7
:101AD00095068417950771F0E0919206F0919306B0
:101AE000EE5AF94F2083909393068093920602C09A
:101AF0008091C600FF91EF919F918F915F914F91DF
:101B00002F910F900FBE0F901F9018958CEE95E0BF
:101B10000E94B20C892B11F00E944B0D08951F9268
:101B20000F920FB60F9211242F933F938F939F9391
:101B3000EF93FF9320914E0630914F06809150060F
:101B4000909151062817390731F48091C1008F7D9B
:101B50008093C10014C0E0915006F0915106E25FFD
:101B6000F94F2081809150069091510601968F7314
:101B7000992790935106809350062093C600FF91B9
:101B8000EF919F918F913F912F910F900FBE0F90EA
:101B90001F901895A0E0B0E0E0EDFDE00C94BA12C3
:101BA000EC016A017B014115514E6105710511F18E
:101BB000EC89FD8981E090E008A002C0880F991FA0
:101BC0000A94E2F7808360E079E08DE390E0A7017A
:101BD00096010E94831289019A010150110921097D
:101BE000310936952795179507959801011580E1DC
:101BF0001807A8F0EC89FD89108260E874E88EE18E
:101C000090E0A70196010E948312DA01C9010197B1
:101C1000A109B109B695A795979587959C01E88983
:101C2000F9893083EA89FB89208319A2EE89FF892B
:101C3000408181E090E09C010C8C02C0220F331F98
:101C40000A94E2F7242B2083EE89FF8940819C01CE
:101C50000D8C02C0220F331F0A94E2F7242B20833D
:101C6000EE89FF8940819C010E8C02C0220F331F38
:101C70000A94E2F7242B2083EE89FF8920810F8CC0
:101C800002C0880F991F0A94E2F78095822380830F
:101C9000CDB7DEB7E8E00C94D612ECEEF5E0138297
:101CA000128288EE93E0A0E0B0E084839583A6835F
:101CB000B78389EE92E09183808382E596E09587F1
:101CC00084878EE096E09787868785EC90E0918BFD
:101CD000808B84EC90E0938B828B80EC90E0958BF2
:101CE000848B81EC90E0978B868B82EC90E0918FD7
:101CF000808F86EC90E0938F828F84E0848F83E0E6
:101D0000858F87E0868F85E0878F81E080A30895A7
:101D1000A0E0B0E0EEE8FEE00C94BA126C01EB013A
:101D20007B01E40EF51E00E010E0CE15DF0561F04A
:101D30006991D601ED91FC910190F081E02DC601F1
:101D40000995080F191FF1CFC801CDB7DEB7E8E03C
:101D50000C94D6120E94FF0F0E94B602C6E8DDE086
:101D60000E94F40B2097E1F30E94860DF9CF1F9398
:101D7000CF93DF93182FEB0161E00E943D0F209776
:101D800011F460E004C0CF3FD10529F461E0812F58
:101D90000E94790F45C0E12FF0E0E859FF4FE49130
:101DA000E330F9F048F4E130B9F0E230A1F584B560
:101DB000806284BDC8BD34C0E630E9F0E73019F177
:101DC000E43049F580918000806280938000D09358
:101DD0008B00C0938A0024C084B5806884BDC7BDD1
:101DE0001FC080918000806880938000D09389001C
:101DF000C093880015C08091B00080688093B000C7
:101E0000C093B3000DC08091B00080628093B00099
:101E1000C093B40005C0C038D1050CF0B7CFB1CF26
:101E2000DF91CF911F910895833081F028F48130A4
:101E300099F08230A1F008958630A9F08730B9F08A
:101E40008430D1F4809180008F7D03C08091800028
:101E50008F7780938000089584B58F7702C084B512
:101E60008F7D84BD08958091B0008F7703C08091ED
:101E7000B0008F7D8093B0000895CF93DF9390E002
:101E8000FC01E458FF4F2491FC01E057FF4F84917F
:101E9000882361F190E0880F991FFC01E255FF4F04
:101EA000C591D491FC01EC55FF4FA591B4916111FE
:101EB00009C09FB7F8948881209582238883EC918C
:101EC0002E230BC0623061F49FB7F8943881822FC3
:101ED000809583238883EC912E2B2C939FBF06C083
:101EE0008FB7F894E8812E2B28838FBFDF91CF9195
:101EF00008951F93CF93DF93282F30E0F901E8591D
:101F0000FF4F8491F901E458FF4FD491F901E05754
:101F1000FF4FC491CC23C9F0162F81110E94140FDA
:101F2000EC2FF0E0EE0FFF1FEC55FF4FA591B491A1
:101F30008FB7F894111105C09C91ED2FE095E9231E
:101F400002C0EC91ED2BEC938FBFDF91CF911F91ED
:101F500008951F920F920FB60F9211242F933F9363
:101F60008F939F93AF93BF9380919706909198061C
:101F7000A0919906B0919A063091960623E0230F1E
:101F80002D3720F40196A11DB11D05C026E8230FB1
:101F90000296A11DB11D20939606809397069093FB
:101FA0009806A0939906B0939A0680919B0690910B
:101FB0009C06A0919D06B0919E060196A11DB11DA3
:101FC00080939B0690939C06A0939D06B0939E06DB
:101FD000BF91AF919F918F913F912F910F900FBE25
:101FE0000F901F9018952FB7F894609197067091F5
:101FF00098068091990690919A062FBF089578943B
:1020000084B5826084BD84B5816084BD85B58260FD
:1020100085BD85B5816085BDEEE6F0E0808181609B
:102020008083E1E8F0E0108280818260808380819B
:1020300081608083E0E8F0E0808181608083E1EB73
:10204000F0E0808184608083E0EBF0E0808181605B
:102050008083EAE7F0E08081846080838081826011
:1020600080838081816080838081806880831092FA
:10207000C1000895CF93DF938230910510F482E080
:1020800090E0E091A106F091A20620E030E0C0E0EF
:10209000D0E0309711F14081518148175907C0F0C5
:1020A0004817590761F482819381209719F09B8327
:1020B0008A832BC09093A2068093A10626C0211587
:1020C000310519F04217530718F49A01BE01DF01D8
:1020D000EF010280F381E02DDCCF2115310509F1FC
:1020E000281B390B2430310590F412968D919C9168
:1020F00013976115710521F0FB019383828304C05E
:102100009093A2068093A106FD01329644C0FD0182
:10211000E20FF31F81939193225031092D933C9349
:102120003AC020919F063091A006232B41F42091C4
:102130000E0130910F013093A00620939F0620914D
:102140000C0130910D012115310541F42DB73EB739
:102150004091100150911101241B350BE0919F0615
:10216000F091A006E217F307A0F42E1B3F0B2817EF
:10217000390778F0AC014E5F5F4F2417350748F000
:102180004E0F5F1F5093A00640939F06819391933B
:1021900002C0E0E0F0E0CF01DF91CF9108950F930E
:1021A0001F93CF93DF93009709F48CC0FC01329703
:1021B000138212820091A1061091A2060115110549
:1021C00081F420813181820F931F20919F063091ED
:1021D000A0062817390779F5F093A006E0939F062B
:1021E00071C0D80140E050E0AE17BF0750F412961E
:1021F0002D913C911397AD012115310509F1D901BC
:10220000F3CF9D01DA013383228360817181860FD0
:10221000971F8217930769F4EC0128813981260FF3
:10222000371F2E5F3F4F318320838A819B819383A9
:102230008283452B29F4F093A206E093A10642C0C5
:102240001396FC93EE931297ED01499159919E01DB
:10225000240F351FE217F30771F480819181840FF9
:10226000951F029611969C938E938281938113966B
:102270009C938E931297E0E0F0E0D80112968D9136
:102280009C911397009719F0F8018C01F6CF8D916E
:102290009C9198012E5F3F4F820F931F20919F06C4
:1022A0003091A0062817390769F4309729F4109265
:1022B000A2061092A10602C0138212821093A006F9
:1022C00000939F06DF91CF911F910F910895A0E099
:1022D000B0E0EDE6F1E10C94B412EC01009721F4CA
:1022E000CB010E943A10B8C0FC01E60FF71F9C0119
:1022F00022503109E217F30708F4ACC0D9010D915F
:102300001C91119706171707B0F00530110508F456
:102310009FC0C80104978617970708F499C0025018
:102320001109061B170B019311936D937C93CF0139
:102330000E94CF108DC05B01A01AB10A4C01800E23
:10234000911EA091A106B091A20640E050E0E12CC0
:10235000F12C109709F44AC0A815B905D1F56D9074
:102360007C901197630182E0C80ED11CCA14DB0473
:1023700080F1A3014A195B096A0182E0C80ED11CF1
:102380001296BC9012971396AC91B5E0CB16D1047F
:1023900040F0B282A38351834083D9016D937C9333
:1023A0000AC00E5F1F4FC301800F911FF901918377
:1023B0008083EB2DFA2FE114F10431F0D70113964D
:1023C000FC93EE93129744C0F093A206E093A1060B
:1023D0003FC08D919C9111974817590708F4AC01A3
:1023E0007D0112960D90BC91A02DB3CF80919F06D8
:1023F0009091A00688159905E1F446175707C8F48F
:1024000080910C0190910D01009741F48DB79EB71A
:102410004091100150911101841B950BE817F907A9
:10242000C8F4F093A006E0939F06F90171836083DE
:102430000FC0CB010E943A107C01009759F0A8010F
:10244000BE010E941013CE010E94CF10C70104C02C
:10245000CE0102C080E090E0CDB7DEB7EEE00C9494
:10246000D0120E94361208F481E00895990F0008F6
:10247000550FAA0BE0E8FEEF16161706E807F90756
:10248000C0F012161306E407F50798F0621B730BF1
:10249000840B950B39F40A2661F0232B242B252B72
:1024A00021F408950A2609F4A140A6958FEF811D15
:1024B000811D08950E94361208F48FEF0895DB0104
:1024C0008F939F930E94A512BF91AF91A29F800D01
:1024D000911DA39F900DB29F900D1124089597FB1D
:1024E000072E16F4009407D077FD09D00E94E7125A
:1024F00007FC05D03EF4909581959F4F0895709507
:1025000061957F4F0895A1E21A2EAA1BBB1BFD0106
:102510000DC0AA1FBB1FEE1FFF1FA217B307E407C2
:10252000F50720F0A21BB30BE40BF50B661F771F1A
:10253000881F991F1A9469F76095709580959095FA
:102540009B01AC01BD01CF0108950E940113A59F1D
:10255000900DB49F900DA49F800D911D112408959E
:102560002F923F924F925F926F927F928F929F92A3
:10257000AF92BF92CF92DF92EF92FF920F931F9391
:10258000CF93DF93CDB7DEB7CA1BDB0B0FB6F89442
:10259000DEBF0FBECDBF09942A88398848885F8482
:1025A0006E847D848C849B84AA84B984C884DF80F3
:1025B000EE80FD800C811B81AA81B981CE0FD11DD7
:1025C0000FB6F894DEBF0FBECDBFED010895AA1B74
:1025D000BB1B51E107C0AA1FBB1FA617B70710F00E
:1025E000A61BB70B881F991F5A95A9F78095909540
:1025F000BC01CD010895EE0FFF1F0590F491E02D71
:102600000994A29FB001B39FC001A39F700D811DCB
:102610001124911DB29F700D811D1124911D0895EB
:10262000FB01DC0102C001900D9241505040D8F7EF
:062630000895F894FFCFAD
:102636000D000C000B000700040003000000A306B9
:1026460080007374645F6D7367732F54696D6500E2
:102656006364373136366337346335353263333145
:102666003166626363326665356137626332383973
:1026760000726F7373657269616C5F6D7367732F38
:10268600546F706963496E666F00306164353166F8
:102696003838666334343839326638633130363820
:1026A6003430373736343630303500726F737365F1
:1026B6007269616C5F6D7367732F4C6F67003131A0
:1026C60061626437333163323539333332363163DD
:1026D6006436313833626431326436323935003922
:1026E600663065393862646136353938313938369D
:1026F6006464663533616661376134306534390048
:102706007374645F6D7367732F466C6F61743634D0
:10271600006664623238323130626661396437632A
:1027260039313134363236303137386439613538FB
:1027360034004D6573736167652066726F6D206442
:1027460065766963652064726F707065643A206DA2
:10275600657373616765206C617267657220746862
:10276600616E206275666665722E00416E676C65E5
:102776003A20007475726E696E67207269676874B4
:102786002E2E2E007475726E696E67206C656674E7
:102796002E2E2E002F726F626F636F6E32303138BD
:1027A6002F6572726F7200726F7373657269616CF6
:1027B6005F6D7367732F52657175657374506172BF
:1027C600616D00000000008800AC00F200F500001A
:1027D60000000022040A05F800FB0000000000F8D3
:1027E60003C904FE000101000000002C03D5050406
:1027F600010701000000000A017E0128022B0200E9
:102806000000007807F3094E02000000002E024483
:102816000248024B0200000000090D880EB20CDED1
:062826000CC20CFE0C00C8
:00000001FF
