:100000000C94BD010C94EE010C94EE010C94EE01E5
:100010000C94EE010C94EE010C94EE010C94EE01A4
:100020000C94EE010C94EE010C94EE010C94EE0194
:100030000C94EE010C94EE010C94EE010C94EE0184
:100040000C94EE010C94EE010C94EE010C94EE0174
:100050000C94EE010C94EE010C94EE010C949412AD
:100060000C94EE010C94530F0C9443100C94EE017D
:100070000C94EE010C94EE010C94EE010C94EE0144
:100080000C94EE010C94EE010C94EE010C94EE0134
:100090000C94870F0C9482100C94EE010C94EE01DA
:1000A0000C94EE010C94EE010C94EE010C94EE0114
:1000B0000C94EE010C94EE010C94EE010C94EE0104
:1000C0000C94EE010C94EE010C94EE010C94BB0F19
:1000D0000C94C1100C94EE010C94EF0F0C940011D1
:1000E0000C94EE012D1430142314271467143414C7
:1000F00038143E14421446144C145014541467140B
:100100005A145E146214FB14001505150F1588159A
:1001100019152115291533153D1547155615601567
:1001200088156A1574157E150C94D90B0C94381427
:100130000C9488150C9450140C9442140C941402D2
:100140000C9497150C942D140C9496030C94341461
:100150000C94700E0C94D4040C9452130C9421152E
:100160000C949F0E0C9422100C94F5050C942714FB
:100170000C9469020C94D90D0C94B6030C94BB0337
:100180000C94AC030C94B0030C9460150C945D02B9
:100190000C94F1060C9460020C9467140C94741582
:1001A0000C94D30B0C94FB140C9446140C94D907A8
:1001B0000C949E080C9478020C9462140C945A02CD
:1001C0000C9472020C9433150C945E140C943E142F
:1001D0000C94C1060C9463020C94EB0E0C9419154C
:1001E0000C945A140C94AF0E0C9423140C946A15AE
:1001F0000C94CB0E0C9498070C940F150C94900350
:100200000C9491150C9445110C9447150C945615AB
:100210000C94F60E0C943C0B0C9466020C9429156D
:100220000C9430140C9400150C943D150C94051589
:100230000C94B3030C9492070C94E6020C942A0AD3
:100240000C94F0010C946C020C94C1030C946F029A
:100250000C9493030C94C2110C94D3070C94A4082F
:100260000C944C140C9454140C947E150C94EB06C2
:100270000000090A02080B0C0D0706030401000028
:10028000000000000000000000000000000000006E
:1002900000000000000000000000000011100F002E
:1002A000000000000000000000000000000000004E
:1002B000000000000000010210202008081020406B
:1002C000102040800201020108040201010204081A
:1002D00010204080804020100804020180040201A8
:1002E00080402010080402010804020101020408F1
:1002F00010204080010204081020408005050505FB
:10030000070508080808020202020A0A080804048D
:1003100004040101010101010101030303030303BB
:100320000303040707070C0C0C0C0C0C0C0C02024A
:10033000020206060606060606060B0B0B0B0B0B47
:100340000B0B00002200250028002B002E0031009E
:10035000340002010000050108010B01000021002A
:10036000240027002A002D00300033000101000086
:10037000040107010A01D90DC21111241FBECFEFDC
:10038000D1E2DEBFCDBF00E00CBF13E0A0E0B2E0E1
:10039000EAECF2E300E00BBF02C007900D92AC3C28
:1003A000B107D9F72BE0ACECB3E001C01D92AF343C
:1003B000B207E1F711E0CDEBD1E000E006C02197F4
:1003C0000109802FFE010E94ED18CB3BD10780E090
:1003D0000807A9F70E94920E0C9463190C94000070
:1003E000DC01FB0112968C911297808313968C91FD
:1003F0001397818314968C911497828315968C9110
:100400001597838316968C911697848317968C91F3
:100410001797858318968C911897868319968C91D7
:10042000878388E090E00895FC01DB014C9150E067
:1004300060E070E0428353836483758311968C91EE
:100440001197582B428353836483758312968C9142
:100450001297682B428353836483758313968C9120
:100460001397782B428353836483758314964C913E
:10047000149750E060E070E046835783608771878F
:1004800015968C911597582B4683578360877187F3
:1004900016968C911697682B4683578360877187D1
:1004A00017968C91782B468357836087718788E0F5
:1004B00090E008958EE092E008958CE192E0089536
:1004C0008DE392E0089586E592E0089587E792E053
:1004D00008958AE892E008958DE493E008958BEA08
:1004E00092E00895A0E0B0E0E8E7F2E00C9406198D
:1004F000EB01FC0182809380A480B580D501C4010A
:1005000077E1B595A795979587957A95D1F799272E
:10051000AA27BB270097A105B10521F080589C4F61
:10052000AF4FBF4F188219821A82B501A40125E08E
:10053000440F551F661F771F2A95D1F74B83B501CE
:10054000A40133E075956795579547953A95D1F78E
:100550004C83B501A401EBE07595679557954795D8
:10056000EA95D1F74D83AC01BD01F4E0440F551F6E
:10057000661F771FFA95D1F79501840153E13595F0
:100580002795179507955A95D1F70F70402B4E83F5
:100590006C017D0164E0F594E794D794C7946A9563
:1005A000D1F720E030E0A901C501B4010E944D1748
:1005B00087FD02C0CF8203C08C2D80688F8388E0C6
:1005C00090E0CDB7DEB7ECE00C9422198F929F92A9
:1005D000AF92BF92CF92DF92EF92FF920F931F9351
:1005E000FC01DB011396CC901397C294C69497E05C
:1005F000C9228C2C912CA12CB12C82829382A482B2
:10060000B5821496CC901497D12CE12CF12C23E0D8
:10061000CC0CDD1CEE1CFF1C2A95D1F7C828D9286C
:10062000EA28FB28C282D382E482F58215960C91D7
:10063000159710E020E030E04BE0000F111F221F63
:10064000331F4A95D1F7C02AD12AE22AF32AC2825F
:10065000D382E482F58216960C9116970F7010E003
:1006600020E030E053E1000F111F221F331F5A9585
:10067000D1F70C291D292E293F29028313832483B6
:10068000358316968C91169782958F7017964C919C
:1006900017974F7750E060E070E094E0440F551FEB
:1006A000661F771F9A95D1F7482B411551056105B3
:1006B000710599F0405853406109710987E1440F71
:1006C000551F661F771F8A95D1F7402B512B622B40
:1006D000732B428353836483758317968C91807840
:1006E00090E0A0E0B0E0B82FAA27992788274281A0
:1006F000538164817581842B952BA62BB72B828324
:100700009383A483B58388E090E01F910F91FF90BD
:10071000EF90DF90CF90BF90AF909F908F90089513
:100720008CEC92E008958DED92E008950F931F9365
:10073000CF93DF938C01EC012696CE010E94E60256
:10074000D8011C96ED91FC911D97CE011995DF9172
:10075000CF911F910F910895FC018685978508958B
:100760008CEC92E008958DED92E00895FC01EA573B
:10077000FB4F80810895A5E0B0E0E1ECF3E00C943C
:1007800008198C016B01643671053CF0FC01EA57D5
:10079000FB4F8081882309F478C0DA01ED91FC9148
:1007A0000190F081E02DB801615E7D4FCA0119957D
:1007B0007801B8EEEB1ABDEFFB0A2FEFF7012083AB
:1007C0002EEF319620833196808331969083319637
:1007D000292F280F209520833196C082D801A25E50
:1007E000BD4FDC9245E050E020E030E0BC016A5FA4
:1007F0007F4F6417750734F0A1912A0F311D4F5FA9
:100800005F4FF7CF6C01F8E0CF0ED11C800F911F26
:10081000FC01E15EFD4F2095208321E0C21622E01D
:10082000D206CCF45701C5018E199F098C159D0580
:1008300084F4D80112968D919C911397F5016191E2
:100840005F01DC01ED91FC910190F081E02D1995A3
:10085000EACFC6011CC085E893E09A83898383E0D0
:100860008B838EEF92E09D838C83D801ED91FC9178
:100870000190F081E02DAE014F5F5F4F67E070E0C7
:10088000C80119958FEF9FEF02C080E090E0259698
:10089000EAE00C9424198F929F92AF92BF92CF926C
:1008A000DF92EF92FF926B017C0149015A0161E0F6
:1008B00088E10E94A41460E089E10E94A41461E030
:1008C00087E10E94A41460E086E10E94A41423E35F
:1008D00033E343E050E4C501B4010E943A180E949A
:1008E00052172091020230910302261737070CF4A9
:1008F000B90183E00E94D41423EC35EF48E25FE3B2
:10090000C701B6010E943A180E94521720910202B4
:1009100030910302261737070CF4B90182E00E94D8
:10092000D41461E08BE10E94A41460E08AE10E948B
:10093000A41461E08DE10E94A41460E08CE10E94A7
:10094000A41423E333E343EF5FE3C501B4010E9442
:100950003A180E9452172091020230910302261782
:1009600037070CF4B90184E00E94D4142DEC3CEC60
:100970004CE050E4C701B6010E943A180E94521799
:100980002091020230910302261737070CF4B901B7
:1009900085E00E94D414FF90EF90DF90CF90BF903D
:1009A000AF909F908F9008954F925F926F927F9239
:1009B0008F929F92AF92BF92CF92DF92EF92FF926F
:1009C000CF93DF93FC0182819381A481B581BC0127
:1009D000CD0190580E9452176B017C0170939108D1
:1009E00060939008C0918E08D0918F08072E000C5C
:1009F000880B990B0E948A172091040230910502FE
:100A000040910602509107020E943A184B015C0186
:100A1000C6018C1B9D0BBC01990F880B990B0E9482
:100A20008A17209192083091930840919408509130
:100A300095080E943A189B01AC01C501B4010E94BF
:100A4000E1164B015C01CE018C0D9D1DBC01990F7F
:100A5000880B990B0E948A1720919608309197086D
:100A600040919808509199080E943A189B01AC0156
:100A7000C501B4010E94E1164B015C01D0928F08C0
:100A8000C0928E088091000290910102BC01990FE2
:100A9000880B990B0E948A176B017C01A5019401B8
:100AA0000E94E1162B013C01A5019401C701B6018A
:100AB0000E94E016A30192010E944B04DF91CF91A6
:100AC000FF90EF90DF90CF90BF90AF909F908F906E
:100AD0007F906F905F904F90089561E088E10E9451
:100AE000681461E089E10E94681461E083E00E947B
:100AF000681461E087E10E94681461E086E10E9469
:100B0000681461E082E00E94681461E08BE10E9459
:100B1000681461E08AE10E94681461E084E00E9448
:100B2000681461E08DE10E94681461E08CE10E942C
:100B3000681461E085E00E9468144091E0035091E0
:100B4000E1036091E2037091E3038091DE039091F1
:100B5000DF030E943F11109259081092580810921A
:100B60005B0810925A0810925F0810925E0810926B
:100B70005D0810925C08E6E2F8E080E090E02191E8
:100B80003191232B81F4FC01EE0FFF1FEA5DF74F3B
:100B90002CEC33E0318320838C599F4F9093CF030B
:100BA0008093CE03089501968931910541F7089508
:100BB000CF92DF92EF92FF9220E030E06A017B015A
:100BC000022E04C0F694E794D794C7940A94D2F7FF
:100BD000FC01C192CF01285F3F4F2032310571F7F0
:100BE000FF90EF90DF90CF9008954F925F926F92B9
:100BF0007F92AF92BF92CF92DF92EF92FF920F93CC
:100C00001F93CF93DF93EC017B018A81FB018083EB
:100C10008B8181838C8182838D818383DB01179615
:100C200040E050E0BA01E4E0F0E04A805B806C8094
:100C30007D808F010C5F1F4F4415550566057705B4
:100C4000C0F48A859B85E80FF91F3497D0802181F5
:100C500092818381FD013397D08231962083319632
:100C600090838C93F8014F5F5F4F6F4F7F4F1496C7
:100C7000DCCFEE0DFF1D8C8580838D8581838E8575
:100C800082838F85838380E090E040E050E0BA016A
:100C90004C845D846E847F84F701E00FF11F0C5F4C
:100CA0001F4F4415550566057705B8F4AC89BD8915
:100CB000A80FB91FCC901196DC90119712963C9119
:100CC000129713962C91C082D182328323834F5F77
:100CD0005F4F6F4F7F4F0496DBCF8E8980838F8964
:100CE0008183888D8283898D8383412C512C3201AD
:100CF0008E899F89A88DB98D481659066A067B068C
:100D000080F55201AA0CBB1CEC8DFD8DEA0DFB1D7C
:100D1000A081B181FD0101900020E9F731976F01B9
:100D2000CA1ADB0AA60160E070E0C701800F911FBC
:100D30000E94D8050C5F1F4F8C8D9D8DFC01EA0D24
:100D4000FB1D60817181A601C701800F911F0E9468
:100D50005A190C0D1D1DFFEF4F1A5F0A6F0A7F0A0B
:100D6000C7CFC801DF91CF911F910F91FF90EF90F6
:100D7000DF90CF90BF90AF907F906F905F904F903B
:100D80000895EF92FF920F931F93CF93DF938C01FF
:100D90007B01EC018A81FB018193AB81BC81ED0178
:100DA00009900020E9F72197CA1BDB0BAE0160E038
:100DB00070E0CF010E94D805F80163817481AE0113
:100DC000C70105960E945A19CE010596CDB7DEB728
:100DD000E6E00C942819A0E0B0E0E1EFF6E00C9416
:100DE0000A196C01EB01FC0182818883838189836C
:100DF000A481B581FD0101900020E9F731978F01B1
:100E00000A1B1B0BA80160E070E0CE0102960E9455
:100E1000D805F60164817581A801CE0106960E946D
:100E20005A19C8010696F601A681B781FD01019005
:100E30000020E9F731977F01EA1AFB0AA70160E079
:100E400070E08C0F9D1F0E94D805065F1F4FF601B2
:100E500066817781A701CE01800F911F0E945A19E8
:100E60000E0D1F1DF601A085B185FD01019000202A
:100E7000E9F731977F01EA1AFB0AA70160E070E009
:100E8000CE01800F911F0E94D8050C5F1F4FF60105
:100E900060857185A701CE01800F911F0E945A19AC
:100EA000C8018E0D9F1DF601628543853485258519
:100EB000C80FD91F688349833A832B830496CDB723
:100EC000DEB7E8E00C942619CF92DF92EF92FF9202
:100ED000FC011082118212821382DB0120E030E0DB
:100EE0004D9150E0022E02C0440F551F0A94E2F7C4
:100EF000052E000C660B770BC080D180E280F3805A
:100F00004C295D296E297F29408351836283738335
:100F1000285F3F4F2032310519F7FF90EF90DF90A7
:100F2000CF900895A4E0B0E0E8E9F7E00C9406194A
:100F30007C018B01FB018191BF01F7018283CE010E
:100F400001960E94640789819A81AB81BC814C0122
:100F50005D01F5E08F0E911CA11CB11C680125E01C
:100F6000C20ED11CA601401B510B60E070E0481579
:100F700059056A057B0548F4F60141916F019F010F
:100F800022503109F9014083EDCFF801E80FF91F34
:100F900014820C5F1F4FF701148303830596249678
:100FA000ECE00C942219ACE0B0E0E9EDF7E00C9431
:100FB00002197C018B01DB018C9190E0F701938396
:100FC000828311962C91922B938382836E5F7F4F45
:100FD000CE0109960E94640789849A84AB84BC84FC
:100FE000B501A4014A5F5F4F6F4F7F4FF8013696FE
:100FF000CF01801B910BA0E0B0E084179507A607F6
:10100000B70728F48191DF0112978C93F1CFF80193
:10101000E80DF91D1582C8010596D70115969C9318
:101020008E931497B4016A5F7F4F600F711FCE01DA
:1010300005960E946407BAE08B0E911C4D815E817B
:101040006F8178852401092C000C66087708440E0E
:10105000551E661E771EF801E80DF91DCF01801B95
:10106000910BA0E0B0E084159505A605B70528F41E
:101070008191DF0112978C93F1CF6401C40ED51ECC
:10108000B8016C0D7D1DFB0131971082C4010197E1
:10109000800F911FF70197838683CE0101960E94EE
:1010A0006407A6014C5F5F4F49805A806B807C804B
:1010B0004A01052E000CAA08BB08840C951CA61C2E
:1010C000B71CF801E40FF51F9F01201B310BC9016C
:1010D000A0E0B0E088159905AA05BB0528F4819128
:1010E000DF0112978C93F0CFCA01840D951DF80192
:1010F000E80FF91FDF0111971C929A012150310965
:10110000020F131FD70119961C930E931897218174
:10111000428150E060E070E0BA0155274427522B2D
:101120002081422B2381722BF701428753876487EA
:10113000758704962C96E0E10C941E19A8E0B0E0A7
:10114000E4EAF8E00C9400198C015B01DB018C915E
:1011500011969C9111971296CC901297D12CE12C5C
:10116000F12C7601DD24CC24D92AC82A13968C913F
:10117000F82AF80182819381A481B5818C159D059F
:10118000AE05BF0570F4B601660F771F660F771FB7
:10119000828593850E944C13D8011B969C938E9355
:1011A0001A97F801C282D382E482F582D50117969C
:1011B000C12CD12C7601F4E08F2E912C98012A5F5E
:1011C0003F4FF8014281538164817581C4010496C7
:1011D000C416D506E606F70680F54C9150E060E0AF
:1011E00070E0742F662755274427FD013397E0816F
:1011F0004E2BFD013297E0815E2BFD013197E0819E
:101200006E2BF80146835783608771874C010897DE
:1012100042855385840F951FF90140815181628178
:101220007381FC014083518362837383FFEFCF1A84
:10123000DF0AEF0AFF0A1496C4CFF401EA0DFB1D82
:1012400020813181C280D12CE12CF12C7601DD246A
:10125000CC24D32AC22A2381F22A4C01F8018485A6
:101260009585A685B7858C159D05AE05BF0570F4DF
:10127000B601660F771F660F771F848995890E94D4
:101280004C13D80155969C938E935497F801C486BD
:10129000D586E686F78620E030E0C12CD12C760199
:1012A000D8015096F8014485558566857785F50106
:1012B000E80DF91DC4010496C416D506E606F70626
:1012C00048F59180428150E060E070E0BA01552716
:1012D0004427592990804929E3817E2BF801408BCE
:1012E000518B628B738B4C0184899589FC01E20FD1
:1012F000F31F4D915D916D917C91139740835183C4
:1013000062837383FFEFCF1ADF0AEF0AFF0A2C5FB5
:101310003F4FC8CF20813181C280D12CE12CF12CEC
:101320007601DD24CC24D32AC22A2381F22A4C015F
:10133000F80186899789A08DB18D8C159D05AE0524
:10134000BF0560F4B601660F771F848D958D0E94EE
:101350004C13D8015D969C938E935C97F801C68AD6
:10136000D78AE08EF18E412C512C32011801FAE11E
:101370002F0E311CF80186899789A08DB18D4816F2
:1013800059066A067B0608F05AC0B501680D791D3A
:10139000CE0101960E94640794012C5F3F4FC980E3
:1013A000DA80EB80FC80C901032E000CAA0BBB0B7A
:1013B000AC01BD014C0D5D1D6E1D7F1D4D835E8317
:1013C0006F837887F501E20FF31FAF014A195B09BC
:1013D000CA01A0E0B0E04D815E816F8178858417FD
:1013E0009507A607B70728F44191DF0112974C93A0
:1013F000ECCFC9018C0D9D1DF501E80FF91F319748
:101400001082215031092A0D3B1DD8015B963C9377
:101410002E935A974C01C201880F991F5C96ED914B
:10142000FC915D97E80FF91FD1018D919C919183FB
:101430008083BFEF4B1A5B0A6B0A7B0A9BCFC40108
:101440002896E2E10C941C19AAE0B0E0EAE2FAE086
:101450000C940E198C018DE693E09A8389831B828C
:101460001C821D821E821F82188619861A86D80148
:10147000ED91FC910190F081E02DAE014F5F5F4F47
:101480006AE070E0C80119950E94DE12F8016087D9
:101490007187828793872A96E4E00C942A194F92E9
:1014A0005F926F927F92AF92BF92CF92DF92EF9254
:1014B000FF920F931F93CF93DF93CDB7DEB72E9795
:1014C0000FB6F894DEBF0FBECDBF8C0189E793E065
:1014D0009A8389831C821B8286E393E09E838D839B
:1014E00098878F839A8789871B861C861D861E8610
:1014F000680188EEC81A8BEFD80A7801A6EBEA1AC1
:10150000ABEFFA0A412C92E0592E612C712CD601D6
:10151000ED91FC913097B9F1848195819C838B8307
:10152000808191819E838D8382819381DC01ED9105
:10153000FC910480F581E02D199598878F83D60161
:10154000ED91FC9182819381DC01ED91FC9106800B
:10155000F781E02D19959A8789874B865C866D8681
:101560007E86F80180819181F601A081B181189673
:101570006D917C911997DC01ED91FC91AE014F5F6B
:101580005F4FC8011995B2E0CB0ED11CCE14DF0419
:1015900009F0BDCF6801E4E8CE1AEBEFDE0A412C7A
:1015A00082E0582E612C712CF701A081B181109737
:1015B000E1F112968D919C9113979C838B831496E5
:1015C0008D919C9115979E838D83ED91FC91119740
:1015D0000480F581E02DCD01199598878F83D7017F
:1015E0008D919C91DC01ED91FC910680F781E02DBD
:1015F00019959A8789874B865C866D867E86D80189
:10160000ED91FC91A080B180F70180819181DC0196
:10161000ED91FC910280F381E02D1995AE014F5FB1
:101620005F4FBC01C801F5011995F2E0EF0EF11C06
:10163000EC14FD0409F0B8CFF801EA57FB4F81E044
:1016400080832E960FB6F894DEBF0FBECDBFDF911C
:10165000CF911F910F91FF90EF90DF90CF90BF90AF
:10166000AF907F906F905F904F900895AAE0B0E0A8
:10167000ECE3FBE00C9406198C015B018DE693E032
:101680009A8389831B821C821D821E821F82188678
:1016900019861A860E94DE12F801C084D184E28481
:1016A000F3849B01AC012C193D094E095F096901C6
:1016B0007A01B501CE0101960E94140288EE882EAF
:1016C00083E0982EA12CB12CC701B601A50194018D
:1016D0000E94CB18CB80DC80ED80FE80C20ED31E32
:1016E000E41EF51ECB82DC82ED82FE829B01AC0102
:1016F00060E472E48FE090E00E94A718CF80D88465
:10170000E984FA84DC01CB018C0D9D1DAE1DBF1D4B
:101710008F839887A987BA870E94DE12CB80DC80EE
:10172000ED80FE8031E0C31AD108E108F108A5017F
:1017300094010E94CB18C21AD30AE40AF50AF801F0
:10174000C486D586E686F786CF80D884E984FA8475
:10175000F6E3DF1AF5E6EF0AF4ECFF0A9B01AC01B1
:1017600060E472E48FE090E00E94A718C61AD70ADE
:10177000E80AF90AF801C08AD18AE28AF38AB80134
:10178000605F7F4FC8010C960E946A0E0E94DE12B5
:10179000F801E557FB4F60837183828393832A9618
:1017A000ECE00C942219A0E1B0E0E9EDFBE00C9430
:1017B0000019988B8F870E94DE124B015C012F85E8
:1017C000388925573B4F3E832D83F90180819181D4
:1017D000A281B381A5019401281B390B4A0B5B0B35
:1017E000DA01C901893F9A42A105B10528F0EF85C8
:1017F000F889EA57FB4F10820F85188904581B4F50
:10180000D8018D919C91892B81F0EF85F889E15762
:10181000FB4F80819181A281B38188159905AA052A
:10182000BB0518F4F801118210826F847888FCE7F8
:101830006F1AFBEF7F0A2F85388920583B4F3A8378
:101840002983CF84D88838E1C30ED11C4F855889AD
:101850004A575B4F58874F832F8538892C563B4F0B
:101860003A8729874F8558894D565B4F5C874B8750
:10187000EF84F88852E8E51A5BEFF50A2F8538897E
:101880002E573B4F3C832B834F85588941575B4FE5
:101890005E874D871401250154E1250E311C411C42
:1018A000511CEF85F88984899589A689B789892B88
:1018B0008A2B8B2B89F4AF85B88912968D919C91D8
:1018C0001397DC01ED91FC910680F781E02D1995CD
:1018D0009C0197FF15C037C10E94DE12DC01CB01CD
:1018E00088199909AA09BB09EF85F88924893589DE
:1018F00046895789281739074A075B07E0F64BC125
:10190000D3018D919C911197820F931F8D939C937E
:10191000F8014081518147305105D9F4AB81BC8138
:101920008D919C911197AC014F5F5F4F4D935C93EC
:10193000EF85F889E80FF91F208FF70180819181E9
:10194000019791838083892B09F0ABCF88E090E0E9
:101950002FC04115510521F52F3F310569F481E074
:1019600090E0F80191838083AD85BE852D923D92F4
:101970004D925C92139795CF0E94DE12DC01CB0151
:1019800088199909AA09BB0989389341A105B105AC
:1019900008F487CFEF85F889EA57FB4F1082FBC028
:1019A00041305105B1F42E3F310531F482E090E031
:1019B000D8018D939C9375CFF80111821082AF816D
:1019C000B8858C9181116DCF8F8598890E94240AEA
:1019D00068CF4230510569F4F70131832083AB8130
:1019E000BC811D921C9283E090E0F801918380837A
:1019F0002EC04330510561F4322F2227F701808138
:101A00009181280F391F3183208384E090E0D0CF6B
:101A10004430510581F460E071E00E94B7188F3FB7
:101A2000910531F485E090E0F8019183808339CF0E
:101A30001182108236CF4530510569F4E981FA816F
:101A400031832083E6E0F0E0D801ED93FC93D301ED
:101A50002D933C9326CF4630510599F4322F2227FF
:101A6000E981FA8180819181280F391F3183208398
:101A7000E7E0F0E0D801ED93FC93D7018D919C91C4
:101A800062CF4830510509F00CCFF8011182108265
:101A900060E071E00E94B7188F3F910509F001CF17
:101AA000A981BA818D919C910097C9F48F859889FD
:101AB0000E94240A8F8598890E944F0AEF85F88931
:101AC000E957FB4F80829182A282B382ED81FE8131
:101AD00080829182A282B3828FEF9FEF61C08A30B1
:101AE000910531F4B6018F8598890E94360BD9CEC5
:101AF0008630910551F4B60189859A850E949E0829
:101B000081E0AB85BC858C93CCCE8B30910521F4E4
:101B1000EF81F8851082C5CEFC01EF53FE4FEE0F2A
:101B2000FF1F2F853889E20FF31F80819181009775
:101B300009F4B7CEDC01ED91FC910190F081E02D2C
:101B4000B6011995AECEEF85F889EA57FB4F808133
:101B5000882321F10F85188909571B4FF8018081CF
:101B60009181A281B381A5019401281B390B4A0BF5
:101B70005B0BDA01C901853C9940A105B10570F004
:101B80008F8598890E94240AD8018D929D92AD92EA
:101B9000BC92139703C08EEF9FEF02C080E090E0ED
:101BA0006096E2E10C941C198CED93E00E94D30B3B
:101BB000089589EA93E09093DD038093DC0380E04D
:101BC00099E09093DF038093DE0380E091EEA0E044
:101BD000B0E08093E0039093E103A093E203B0931D
:101BE000E3031092620881E993E090937108809377
:101BF0007008109272081092730810927408109274
:101C0000750810927B0810927A0810927C08109246
:101C10007D0810927E0810927F081092850810921D
:101C200084081092860810928708109288081092F3
:101C3000890810928D0810928C08E4EFF7E0119259
:101C4000119288E0E632F807D1F7E6E2F8E0119267
:101C5000119288E0E835F807D1F7E4EFF3E011924C
:101C600085E0E43FF807D9F7E4EFF5E0119287E06B
:101C7000E43FF807D9F71092F0031092F1031092A5
:101C8000F2031092F30383EB93E09093CD038093E0
:101C9000CC038DE993E09093D3038093D203109209
:101CA000D4031092D5031092D6031092D70384ED7B
:101CB00094E09093D9038093D80381E090E09093CF
:101CC000DB038093DA0387E393E09093D10380935F
:101CD000D0030895A0E0B0E0E0E7FEE00C940A191C
:101CE0008C01EB01688179818A819B8120E03AEC4B
:101CF0004AE95BE30E94CB18F801C080D180E28002
:101D0000F380C20ED31EE41EF51EC082D182E28291
:101D1000F382688379838A839B83CDB7DEB7E8E05B
:101D20000C9426190E94EA120E946D05C2E2D0E1CD
:101D30000E94D40D2097E1F30E942210F9CFFC01FC
:101D400024853585F901E05CFF4F808191813296D1
:101D500020813181821B930B8F7399270895DC01B9
:101D60001C96ED91FC911D97DF01A05CBF4F2D915A
:101D70003C91119712968D919C91119728173907D4
:101D800039F08D919C91E80FF91F808190E00895C2
:101D90008FEF9FEF0895FC01A485B585FD01E05C00
:101DA000FF4F208131813296808191812817390738
:101DB00079F080819181A80FB91F8C9120813181A8
:101DC0002F5F3F4F2F7333273183208390E0089597
:101DD0008FEF9FEF0895FC0181A1882329F0A4894A
:101DE000B5898C9186FFFBCF11A208950F931F93A5
:101DF000CF93DF93FC01A685B7858D01005C1F4F53
:101E0000E8018881998101968F739927AD014E5B16
:101E10005F4FEA012881398182179307D1F3E801E6
:101E200028813981A20FB31F6C93A685B785A05C6A
:101E3000BF4F11969C938E93A689B7892C9181E010
:101E400090E0078C02C0880F991F0A94E2F7822B5A
:101E50008C9381E081A30488F589E02D80818064E2
:101E6000808381E090E0DF91CF911F910F910895E1
:101E7000FB01E05CFF4F208131812F5F3F4F2F73CB
:101E80003327DB01AE5BBF4F4D915C9124173507C3
:101E900041F040815181DB01A40FB51F8C93318348
:101EA0002083089508951F920F920FB60F92112468
:101EB0000BB60F922F933F934F935F936F937F9344
:101EC0008F939F93AF93BF93EF93FF938091C00045
:101ED00082FD07C08091C6006EEF7AE00E94380F45
:101EE00002C08091C600FF91EF91BF91AF919F9189
:101EF0008F917F916F915F914F913F912F910F90B3
:101F00000BBE0F900FBE0F901F90189508951F9253
:101F10000F920FB60F9211240BB60F922F933F938F
:101F20004F935F936F937F938F939F93AF93BF93E1
:101F3000EF93FF938091C80082FD07C08091CE008F
:101F400066E77AE00E94380F02C08091CE00FF91D0
:101F5000EF91BF91AF919F918F917F916F915F9121
:101F60004F913F912F910F900BBE0F900FBE0F908E
:101F70001F90189508951F920F920FB60F9211247B
:101F80000BB60F922F933F934F935F936F937F9373
:101F90008F939F93AF93BF93EF93FF938091D00064
:101FA00082FD07C08091D6006EEE79E00E94380F66
:101FB00002C08091D600FF91EF91BF91AF919F91A8
:101FC0008F917F916F915F914F913F912F910F90E2
:101FD0000BBE0F900FBE0F901F90189508951F9283
:101FE0000F920FB60F9211240BB60F922F933F93BF
:101FF0004F935F936F937F938F939F93AF93BF9311
:10200000EF93FF938091300182FD07C080913601EC
:1020100066E679E00E94380F02C080913601FF9198
:10202000EF91BF91AF919F918F917F916F915F9150
:102030004F913F912F910F900BBE0F900FBE0F90BD
:102040001F90189580E099E00E949F0E892B11F057
:102050000E94520F8EED98E00E949F0E892B11F086
:102060000E94860F8CEB98E00E949F0E892B11F046
:102070000E94BA0F8AE998E00E949F0E892B11F006
:102080000E94EE0F08951F920F920FB60F92112427
:102090000BB60F922F933F938F939F93EF93FF93E2
:1020A0002091FA0A3091FB0A8091FC0A9091FD0A76
:1020B0002817390731F48091C1008F7D8093C100CA
:1020C00014C0E091FC0AF091FD0AE654F54F20811E
:1020D0008091FC0A9091FD0A01968F739927909345
:1020E000FD0A8093FC0A2093C600FF91EF919F9117
:1020F0008F913F912F910F900BBE0F900FBE0F90BD
:102100001F9018951F920F920FB60F9211240BB6C5
:102110000F922F933F938F939F93EF93FF93209171
:10212000720A3091730A8091740A9091750A281787
:10213000390731F48091C9008F7D8093C90014C0A4
:10214000E091740AF091750AEE5CF54F2081809160
:10215000740A9091750A01968F7399279093750A66
:102160008093740A2093CE00FF91EF919F918F91FD
:102170003F912F910F900BBE0F900FBE0F901F90AD
:1021800018951F920F920FB60F9211240BB60F9253
:102190002F933F938F939F93EF93FF932091EA099F
:1021A0003091EB098091EC099091ED0928173907DE
:1021B00031F48091D1008F7D8093D10014C0E091E3
:1021C000EC09F091ED09E655F64F20818091EC097C
:1021D0009091ED0901968F7399279093ED09809363
:1021E000EC092093D600FF91EF919F918F913F9141
:1021F0002F910F900BBE0F900FBE0F901F90189550
:102200001F920F920FB60F9211240BB60F922F93BD
:102210003F938F939F93EF93FF93209162093091A7
:10222000630980916409909165092817390731F491
:10223000809131018F7D8093310114C0E091640958
:10224000F0916509EE5DF64F2081809164099091CF
:10225000650901968F7399279093650980936409A6
:1022600020933601FF91EF919F918F913F912F9194
:102270000F900BBE0F900FBE0F901F901895A0E00F
:10228000B0E0E5E4F1E10C940A19EC016A017B018C
:102290004115514E6105710511F1EC89FD8981E00F
:1022A00090E008A002C0880F991F0A94E2F780838B
:1022B00060E079E08DE390E0A70196010E94CB18E1
:1022C00089019A0101501109210931093695279593
:1022D000179507959801011580E11807A8F0EC897A
:1022E000FD89108260E874E88EE190E0A701960114
:1022F0000E94CB18DA01C9010197A109B109B6956D
:10230000A795979587959C01E889F9893083EA8993
:10231000FB89208319A2EE89FF89408181E090E04A
:102320009C010C8C02C0220F331F0A94E2F7242B6D
:102330002083EE89FF8940819C010D8C02C0220F11
:10234000331F0A94E2F7242B2083EE89FF89408112
:102350009C010E8C02C0220F331F0A94E2F7242B3B
:102360002083EE89FF8920810F8C02C0880F991F7E
:102370000A94E2F7809582238083CDB7DEB7E8E048
:102380000C942619CF92DF92EF92FF92E0E0F9E0F1
:102390001382128288EEC82E83E0D82EE12CF12C15
:1023A000C482D582E682F7826FEB73E0718360832B
:1023B0008EEF9AE0958784878AEB9AE097878687E5
:1023C00085EC90E0918B808B84EC90E0938B828BFA
:1023D00080EC90E0958B848B81EC90E0978B868BE2
:1023E00082EC90E0918F808F86EC90E0938F828FCB
:1023F00044E0448F33E0358F27E0268F95E0978FB8
:1024000081E080A3EEEDF8E013821282C482D582CF
:10241000E682F78271836083A6E7BAE0B587A48776
:10242000A2E3BAE0B787A687ADECB0E0B18BA08B92
:10243000ACECB0E0B38BA28BA8ECB0E0B58BA48B76
:10244000A9ECB0E0B78BA68BAAECB0E0B18FA08F5F
:10245000AEECB0E0B38FA28F448F358F268F978F6D
:1024600080A3ECEBF8E013821282C482D582E6826C
:10247000F78271836083AEEEB9E0B587A487AAEADC
:10248000B9E0B787A687A5EDB0E0B18BA08BA4ED2E
:10249000B0E0B38BA28BA0EDB0E0B58BA48BA1ED27
:1024A000B0E0B78BA68BA2EDB0E0B18FA08FA6ED08
:1024B000B0E0B38FA28F448F358F268F978F80A384
:1024C000EAE9F8E013821282C482D582E682F782BA
:1024D0007183608366E679E07587648762E279E0FC
:1024E0007787668765E371E0718B608B64E371E0E9
:1024F000738B628B60E371E0758B648B61E371E0D9
:10250000778B668B62E371E0718F608F66E371E0B9
:10251000738F628F448F358F268F978F80A3FF90A4
:10252000EF90DF90CF9008951F920F920FB60F9209
:1025300011242F933F938F939F93AF93BF938091D9
:10254000430B9091440BA091450BB091460B3091F9
:10255000420B23E0230F2D3720F40196A11DB11D5E
:1025600005C026E8230F0296A11DB11D2093420B42
:102570008093430B9093440BA093450BB093460B71
:102580008091470B9091480BA091490BB0914A0B59
:102590000196A11DB11D8093470B9093480BA0930A
:1025A000490BB0934A0BBF91AF919F918F913F918F
:1025B0002F910F900FBE0F901F9018952FB7F89482
:1025C0006091430B7091440B8091450B9091460BA9
:1025D0002FBF0895789484B5826084BD84B58160EE
:1025E00084BD85B5826085BD85B5816085BDEEE61B
:1025F000F0E0808181608083E1E8F0E010828081FA
:1026000082608083808181608083E0E8F0E0808167
:1026100081608083E1EBF0E0808184608083E0EB87
:10262000F0E0808181608083E1E9F0E08081826078
:102630008083808181608083E0E9F0E08081816037
:102640008083E1EAF0E08081826080838081816024
:102650008083E0EAF0E0808181608083E1E2F1E064
:10266000808182608083808181608083E0E2F1E00C
:10267000808181608083EAE7F0E0808184608083EC
:102680008081826080838081816080838081806896
:1026900080831092C1000895A0E0B0E0E2E5F3E18C
:1026A0000C940419EC01009721F4CB010E94B3159E
:1026B000B8C0FC01E60FF71F9C0122503109E21758
:1026C000F30708F4ACC0D9010D911C9111970617BE
:1026D0001707B0F00530110508F49FC0C801049732
:1026E0008617970708F499C002501109061B170BAB
:1026F000019311936D937C93CF010E9448168DC076
:102700005B01A01AB10A4C01800E911EA0914D0BE5
:10271000B0914E0B40E050E0E12CF12C109709F401
:102720004AC0A815B905D1F56D907C901197630149
:1027300082E0C80ED11CCA14DB0480F1A3014A193F
:102740005B096A0182E0C80ED11C1296BC901297F8
:102750001396AC91B5E0CB16D10440F0B282A383BE
:1027600051834083D9016D937C930AC00E5F1F4F44
:10277000C301800F911FF90191838083EB2DFA2F04
:10278000E114F10431F0D7011396FC93EE93129704
:1027900044C0F0934E0BE0934D0B3FC08D919C9144
:1027A00011974817590708F4AC017D0112960D9056
:1027B000BC91A02DB3CF80914B0B90914C0B881501
:1027C0009905E1F446175707C8F4809108029091E3
:1027D0000902009741F48DB79EB740910C025091C9
:1027E0000D02841B950BE817F907C8F4F0934C0B06
:1027F000E0934B0BF901718360830FC0CB010E9402
:10280000B3157C01009759F0A801BE010E945A1926
:10281000CE010E944816C70104C0CE0102C080E06C
:1028200090E0CDB7DEB7EEE00C94201990E0FC010B
:102830003197E131F10508F04AC08827EE58FF4F83
:102840008F4F0C94ED18809180008F7703C080919A
:1028500080008F7D80938000089584B58F7702C0BB
:1028600084B58F7D84BD08958091B0008F7703C0BB
:102870008091B0008F7D8093B0000895809190008A
:102880008F7707C0809190008F7D03C0809190006A
:10289000877F8093900008958091A0008F7707C074
:1028A0008091A0008F7D03C08091A000877F8093DE
:1028B000A0000895809120018F7707C080912001AA
:1028C0008F7D03C080912001877F80932001089530
:1028D000CF93DF9390E0FC01EA54FD4F2491FC017B
:1028E000E450FD4F8491882361F190E0880F991F97
:1028F000FC01E45AFC4FC591D491FC01EE5BFC4F06
:10290000A591B491611109C09FB7F8948881209571
:1029100082238883EC912E230BC0623061F49FB731
:10292000F8943881822F809583238883EC912E2B15
:102930002C939FBF06C08FB7F894E8812E2B288375
:102940008FBFDF91CF9108951F93CF93DF93282FEF
:1029500030E0F901E059FD4F8491F901EA54FD4F4F
:10296000D491F901E450FD4FC491CC23C9F0162F46
:1029700081110E941614EC2FF0E0EE0FFF1FEE5BAA
:10298000FC4FA591B4918FB7F894111105C09C919B
:10299000ED2FE095E92302C0EC91ED2BEC938FBF76
:1029A000DF91CF911F9108951F93CF93DF93182F3D
:1029B000EB0161E00E946814209711F460E004C00C
:1029C000CF3FD10529F461E0812F0E94A414A5C056
:1029D000E12FF0E0E059FD4FE4914E2F50E0FA0175
:1029E0003197E131F10508F093C08827ED57FF4F8B
:1029F0008F4F0C94ED1884B5806884BDC7BD8DC021
:102A000084B5806284BDC8BD88C080918000806824
:102A100080938000D0938900C09388007EC080910D
:102A20008000806280938000D0938B00C0938A00E6
:102A300074C08091B00080688093B000C093B300F0
:102A40006CC08091B00080628093B000C093B400ED
:102A500064C080919000806880939000D09399002A
:102A6000C09398005AC0809190008062809390003B
:102A7000D0939B00C0939A0050C0809190008860D2
:102A800080939000D0939D00C0939C0046C080919D
:102A9000A00080688093A0008091A0008F7B80932D
:102AA000A000D093A900C093A80037C08091A000D7
:102AB00080628093A000D093AB00C093AA002DC089
:102AC0008091A00088608093A000D093AD00C09357
:102AD000AC0023C080912001806880932001D093B6
:102AE0002901C093280119C0809120018062809340
:102AF0002001D0932B01C0932A010FC080912001A7
:102B0000886080932001D0932D01C0932C0105C0D3
:102B1000C038D1050CF057CF51CFDF91CF911F9125
:102B20000895A0E0B0E0E7E9F5E10C940A196C0122
:102B3000EB017B01E40EF51E00E010E0CE15DF0591
:102B400061F06991D601ED91FC910190F081E02D49
:102B5000C6011995080F191FF1CFC801CDB7DEB70F
:102B6000E8E00C942619CF93DF938230910510F49E
:102B700082E090E0E0914D0BF0914E0B20E030E0D0
:102B8000C0E0D0E0309711F14081518148175907DA
:102B9000C0F04817590761F482819381209719F09A
:102BA0009B838A832BC090934E0B80934D0B26C042
:102BB0002115310519F04217530718F49A01BE0187
:102BC000DF01EF010280F381E02DDCCF211531051B
:102BD00009F1281B390B2430310590F412968D91A0
:102BE0009C9113976115710521F0FB0193838283FA
:102BF00004C090934E0B80934D0BFD01329644C060
:102C0000FD01E20FF31F81939193225031092D931F
:102C10003C933AC020914B0B30914C0B232B41F449
:102C200020910A0230910B0230934C0B20934B0BF6
:102C300020910802309109022115310541F42DB788
:102C40003EB740910C0250910D02241B350BE091D0
:102C50004B0BF0914C0BE217F307A0F42E1B3F0B2C
:102C60002817390778F0AC014E5F5F4F24173507FE
:102C700048F04E0F5F1F50934C0B40934B0B8193CA
:102C8000919302C0E0E0F0E0CF01DF91CF91089591
:102C90000F931F93CF93DF93009709F48CC0FC012F
:102CA00032971382128200914D0B10914E0B011539
:102CB000110581F420813181820F931F20914B0BEC
:102CC00030914C0B2817390779F5F0934C0BE093B2
:102CD0004B0B71C0D80140E050E0AE17BF0750F475
:102CE00012962D913C911397AD012115310509F1F3
:102CF000D901F3CF9D01DA01338322836081718191
:102D0000860F971F8217930769F4EC012881398198
:102D1000260F371F2E5F3F4F318320838A819B818F
:102D200093838283452B29F4F0934E0BE0934D0B54
:102D300042C01396FC93EE931297ED01499159917D
:102D40009E01240F351FE217F30771F480819181F2
:102D5000840F951F029611969C938E938281938186
:102D600013969C938E931297E0E0F0E0D8011296B0
:102D70008D919C911397009719F0F8018C01F6CF73
:102D80008D919C9198012E5F3F4F820F931F209150
:102D90004B0B30914C0B2817390769F4309729F405
:102DA00010924E0B10924D0B02C0138212821093A0
:102DB0004C0B00934B0BDF91CF911F910F91089516
:102DC0005058BB27AA270E94F8160C9400180E949E
:102DD000F21738F00E94F91720F039F49F3F19F4E8
:102DE00026F40C94EF170EF4E095E7FB0C94E9172A
:102DF000E92F0E94111858F3BA1762077307840766
:102E0000950720F079F4A6F50C9433180EF4E095AC
:102E10000B2EBA2FA02D0B01B90190010C01CA0194
:102E2000A0011124FF27591B99F0593F50F4503E3F
:102E300068F11A16F040A22F232F342F4427585F31
:102E4000F3CF469537952795A795F0405395C9F749
:102E50007EF41F16BA0B620B730B840BBAF0915001
:102E6000A1F0FF0FBB1F661F771F881FC2F70EC0A0
:102E7000BA0F621F731F841F48F487957795679573
:102E8000B795F7959E3F08F0B0CF9395880F08F05F
:102E90009927EE0F9795879508950E94C51708F416
:102EA00081E008950E9459176894B1110C94341868
:102EB00008950E94191888F09F5798F0B92F992704
:102EC000B751B0F0E1F0660F771F881F991F1AF015
:102ED000BA95C9F714C0B13091F00E943318B1E02F
:102EE00008950C943318672F782F8827B85F39F02E
:102EF000B93FCCF3869577956795B395D9F73EF4AE
:102F000090958095709561957F4F8F4F9F4F089555
:102F1000E89409C097FB3EF4909580957095619573
:102F20007F4F8F4F9F4F9923A9F0F92F96E9BB2729
:102F30009395F695879577956795B795F111F8CFA5
:102F4000FAF4BB0F11F460FF1BC06F5F7F4F8F4F10
:102F50009F4F16C0882311F096E911C0772321F006
:102F60009EE8872F762F05C0662371F096E8862F9E
:102F700070E060E02AF09A95660F771F881FDAF7F5
:102F8000880F9695879597F90895990F0008550F22
:102F9000AA0BE0E8FEEF16161706E807F907C0F0DF
:102FA00012161306E407F50798F0621B730B840BE7
:102FB000950B39F40A2661F0232B242B252B21F4C1
:102FC00008950A2609F4A140A6958FEF811D811D61
:102FD000089597F99F6780E870E060E008959FEF9B
:102FE00080EC089500240A941616170618060906A0
:102FF000089500240A94121613061406050608956F
:10300000092E0394000C11F4882352F0BB0F40F4F6
:10301000BF2B11F460FF04C06F5F7F4F8F4F9F4F36
:10302000089557FD9058440F551F59F05F3F71F0B8
:103030004795880F97FB991F61F09F3F79F087951F
:103040000895121613061406551FF2CF4695F1DFA8
:1030500008C0161617061806991FF1CF8695710538
:10306000610508940895E894BB2766277727CB016C
:1030700097F908950E944D180C9400180E94F217B9
:1030800038F00E94F91720F0952311F00C94E917FD
:103090000C94EF1711240C9434180E94111870F33B
:1030A000959FC1F3950F50E0551F629FF001729FED
:1030B000BB27F00DB11D639FAA27F00DB11DAA1FFC
:1030C000649F6627B00DA11D661F829F2227B00D49
:1030D000A11D621F739FB00DA11D621F839FA00DD4
:1030E000611D221F749F3327A00D611D231F849F24
:1030F000600D211D822F762F6A2F11249F5750407B
:103100009AF0F1F088234AF0EE0FFF1FBB1F661FF5
:10311000771F881F91505040A9F79E3F510580F0BE
:103120000C94E9170C9434185F3FE4F3983ED4F301
:10313000869577956795B795F795E7959F5FC1F762
:10314000FE2B880F911D9695879597F90895DB01C1
:103150008F939F930E94F518BF91AF91A29F800D0E
:10316000911DA39F900DB29F900D1124089597FB80
:10317000072E16F4009407D077FD09D00E94371966
:1031800007FC05D03EF4909581959F4F089570956A
:1031900061957F4F0895A1E21A2EAA1BBB1BFD016A
:1031A0000DC0AA1FBB1FEE1FFF1FA217B307E40726
:1031B000F50720F0A21BB30BE40BF50B661F771F7E
:1031C000881F991F1A9469F760957095809590955E
:1031D0009B01AC01BD01CF010895EE0FFF1F881FB9
:1031E0008BBF0790F691E02D19940E944B19A59F73
:1031F000900DB49F900DA49F800D911D11240895F2
:103200002F923F924F925F926F927F928F929F92F6
:10321000AF92BF92CF92DF92EF92FF920F931F93E4
:10322000CF93DF93CDB7DEB7CA1BDB0B0FB6F89495
:10323000DEBF0FBECDBF19942A88398848885F84C5
:103240006E847D848C849B84AA84B984C884DF8046
:10325000EE80FD800C811B81AA81B981CE0FD11D2A
:103260000FB6F894DEBF0FBECDBFED010895AA1BC7
:10327000BB1B51E107C0AA1FBB1FA617B70710F061
:10328000A61BB70B881F991F5A95A9F78095909593
:10329000BC01CD010895A29FB001B39FC001A39FBF
:1032A000700D811D1124911DB29F700D811D11247F
:1032B000911D0895FB01DC0102C001900D92415067
:0A32C0005040D8F70895F894FFCFAE
:1032CA004600FF000000803E00004F0B8000737430
:1032DA00645F6D7367732F54696D6500636437317A
:1032EA003636633734633535326333313166626378
:1032FA0063326665356137626332383900726F73DB
:10330A0073657269616C5F6D7367732F546F70694F
:10331A0063496E666F0030616435316638386663BA
:10332A0034343839326638633130363834303737E6
:10333A0036343630303500726F7373657269616C7A
:10334A005F6D7367732F4C6F670031316162643749
:10335A003331633235393333323631636436313897
:10336A003362643132643632393500396630653950
:10337A0038626461363539383139383664646635CD
:10338A003361666137613430653439007374645F60
:10339A006D7367732F466C6F6174363400666462AE
:1033AA0032383231306266613964376339313134E7
:1033BA0036323630313738643961353834004D6544
:1033CA0073736167652066726F6D206465766963E1
:1033DA00652064726F707065643A206D65737361FD
:1033EA006765206C6172676572207468616E20621D
:1033FA0075666665722E002F726F626F636F6E322A
:10340A003031382F64697374616E636500726F734B
:10341A0073657269616C5F6D7367732F526571753D
:10342A00657374506172616D0000000000F0011450
:10343A00025A025D0200000000EB06D30760026335
:10344A000200000000C1069207660269020000003D
:10345A0000F5059E086C026F02000000007202E689
:10346A00029003930300000000BB03D30BB60300D2
:10347A000000009603AC03B003B30300000000F69B
:0C348A000E91159F0ECB0EAF0EEB0E0046
:00000001FF
