:100000000C9454020C9485020C9485020C94850285
:100010000C9485020C9485020C9485020C94850244
:100020000C9485020C9485020C9485020C94850234
:100030000C9485020C9485020C9485020C94850224
:100040000C9485020C9485020C9485020C94850214
:100050000C9485020C9485020C9485020C947C17F8
:100060000C9485020C9491120C9481130C948502CB
:100070000C9485020C9485020C9485020C948502E4
:100080000C9485020C9485020C9485020C948502D4
:100090000C94C5120C94C0130C9485020C94850228
:1000A0000C9485020C9485020C9485020C948502B4
:1000B0000C9485020C9485020C9485020C948502A4
:1000C0000C9485020C9485020C9485020C94F91210
:1000D0000C94FF130C9485020C942D130C943E1475
:1000E0000C94850228162D1632163C16B5164616A7
:1000F0004E16561660166A16741683168D16B516A9
:100100009716A116AB16D516D816CB16CF160F1705
:10011000DC16E016E616EA16EE16F416F816FC16CD
:100120000F17021706170A170C94FE080C949B0A67
:100130000C94A10A0C944E160C94E0160C942D0409
:100140000C94F7020C94DD110C942A040C94CA0947
:100150000C9428160C940F030C94FA090C94E616D0
:100160000C9483140C942D160C945D040C94B51609
:100170000C94BE040C94E2100C94AF040C94030392
:100180000C9406030C94C4040C94FA020C941D06FF
:100190000C94FD020C94DC0E0C94330D0C94B604FC
:1001A0000C94ED110C94B9040C9499040C949716CA
:1001B0000C94A1160C9434120C94AB160C94D2151A
:1001C0000C9460160C9467190C9483160C94AB0273
:1001D0000C9432160C9402170C9427040C944104CE
:1001E0000C946B040C94F4090C9457040C94B30411
:1001F0000C9446160C94AD0B0C94DC160C94F4166F
:100200000C94450E0C94EA160C9474160C94F1029E
:100210000C940F170C948F040C94D8160C94DC0AD1
:100220000C94D5160C94CB160C94EE160C94D81591
:100230000C94A70B0C94BB110C94E20E0C940912B5
:100240000C9456160C9400030C940A170C94930407
:100250000C9462050C9406170C946A160C943C16C8
:100260000C9409030C948D160C9400150C946013D7
:100270000C94CF160C9487020C94F4020C945A043C
:100280000C9429120C94FC160C9451080C94E20A5C
:100290000C947D030C9496040C94F8160C940407AB
:1002A0000C9479040000090A02080B0C0D070603E0
:1002B0000401000000000000000000000000000039
:1002C000000000000000000000000000000000002E
:1002D00011100F00000000000000000000000000EE
:1002E00000000000000000000000010210202008B3
:1002F0000810204010204080020102010804020181
:1003000001020408102040808040201008040201EF
:100310008004020180402010080402010804020148
:1003200001020408102040800102040810204080CF
:1003300005050505070508080808020202020A0A61
:10034000080804040404010101010101010103037F
:10035000030303030303040707070C0C0C0C0C0C2A
:100360000C0C0202020206060606060606060B0B27
:100370000B0B0B0B0B0B00002200250028002B00A1
:100380002E003100340002010000050108010B01BC
:1003900000002100240027002A002D003000330037
:1003A00001010000040107010A0100407A10F35A1C
:1003B00000A0724E18090010A5D4E80000E87648A5
:1003C000170000E40B54020000CA9A3B000000E151
:1003D000F505000080969800000040420F000000E4
:1003E000A08601000000102700000000E8030000C4
:1003F00000006400000000000A000000000001008E
:10040000000000002C76D888DC674F0823DFC1DFAE
:10041000AE59E1B1B796E5E3E453C63AE6519976B1
:1004200096E8E6C28426EB898C9B62ED407C6FFCEB
:10043000EFBC9C9F40F2BAA56FA5F490055A2AF72D
:100440005C936B6CF9676DC11BFCE0E40D47FEF536
:1004500020E6B500D0ED902E03009435770500809E
:10046000841E080000204E0A000000C80C333333FD
:10047000330F986E12831141EF8D2114893BE6559D
:1004800016CFFEE6DB18D1844B381BF77C1D901D80
:10049000A4BBE424203284725E228100C9F124ECE2
:1004A000A1E53D27E210001511241FBECFEFD1E2D8
:1004B000DEBFCDBF00E00CBF14E0A0E0B2E0ECE690
:1004C000FEE300E00BBF02C007900D92A633B10718
:1004D000D9F72BE0A6E3B4E001C01D92A13EB2071C
:1004E000E1F712E0C4E5D2E000E006C0219701097F
:1004F000802FFE010E94381CC235D10780E008071A
:10050000A9F70E94F4150C94341F0C940000DC0130
:10051000FB0112968C911297808313968C911397FE
:10052000818314968C911497828315968C911597DC
:10053000838316968C911697848317968C911797C0
:10054000858318968C911897868319968C9187834A
:1005500088E090E00895FC01DB014C9150E060E000
:1005600070E0428353836483758311968C91119755
:10057000582B428353836483758312968C91129710
:10058000682B428353836483758313968C911397EE
:10059000782B428353836483758314964C9114970C
:1005A00050E060E070E0468357836087718715965E
:1005B0008C911597582B46835783608771871696C1
:1005C0008C911697682B468357836087718717969F
:1005D0008C91782B468357836087718788E090E001
:1005E00008958AE192E0089588E292E0089589E40E
:1005F00092E0089582E692E0089583E892E00895FB
:1006000086E992E008958FE993E0089587EB92E000
:100610000895A0E0B0E0EFE0F3E00C94511CEB0192
:10062000FC0182809380A480B580D501C40177E16C
:10063000B595A795979587957A95D1F79927AA2784
:10064000BB270097A105B10521F080589C4FAF4F03
:10065000BF4F188219821A82B501A40125E0440F08
:10066000551F661F771F2A95D1F74B83B501A4014B
:1006700033E075956795579547953A95D1F74C8333
:10068000B501A401EBE07595679557954795EA95F7
:10069000D1F74D83AC01BD01F4E0440F551F661F37
:1006A000771FFA95D1F79501840153E13595279588
:1006B000179507955A95D1F70F70402B4E836C0113
:1006C0007D0164E0F594E794D794C7946A95D1F7D7
:1006D00020E030E0A901C501B4010E94981A87FD0D
:1006E00002C0CF8203C08C2D80688F8388E090E0A9
:1006F000CDB7DEB7ECE00C946D1C8F929F92AF9259
:10070000BF92CF92DF92EF92FF920F931F93FC0163
:10071000DB011396CC901397C294C69497E0C9223C
:100720008C2C912CA12CB12C82829382A482B58234
:100730001496CC901497D12CE12CF12C23E0CC0C06
:10074000DD1CEE1CFF1C2A95D1F7C828D928EA2801
:10075000FB28C282D382E482F58215960C9115970C
:1007600010E020E030E04BE0000F111F221F331F8C
:100770004A95D1F7C02AD12AE22AF32AC282D3822B
:10078000E482F58216960C9116970F7010E020E027
:1007900030E053E1000F111F221F331F5A95D1F78C
:1007A0000C291D292E293F29028313832483358395
:1007B00016968C91169782958F7017964C91179775
:1007C0004F7750E060E070E094E0440F551F661FE3
:1007D000771F9A95D1F7482B411551056105710591
:1007E00099F0405853406109710987E1440F551F42
:1007F000661F771F8A95D1F7402B512B622B732BE5
:10080000428353836483758317968C91807890E03C
:10081000A0E0B0E0B82FAA2799278827428153810A
:1008200064817581842B952BA62BB72B82839383B0
:10083000A483B58388E090E01F910F91FF90EF9023
:10084000DF90CF90BF90AF909F908F90089588EDEC
:1008500092E0089589EE92E00895DC01FB01129682
:100860004C91129713962C91139714969C91149770
:1008700015968C91408321839283838384E090E05A
:100880000895FB012181428150E060E070E0BA01EF
:1008900055274427522B2081422B2381722BFC01A8
:1008A000428353836483758384E090E008958AE0F3
:1008B00093E0089589E193E00895FC01828193819A
:1008C000A481B58180931E0990931F09A0932009EC
:1008D000B09321090895FC0182819381A481B5819F
:1008E00080931E0990931F09A0932009B0932109BA
:1008F00008950F931F93CF93DF938C01EC012696FD
:10090000CE010E944104D8011C96ED91FC911D97E7
:10091000CE011995DF91CF911F910F910895FC01A0
:100920008685978508958AE093E0089589E193E0AC
:1009300008950F931F93CF93DF938C01EC012696BC
:10094000CE010E947D03D8011C96ED91FC911D976C
:10095000CE011995DF91CF911F910F910895FC0160
:1009600086859785089588ED92E0089589EE92E056
:100970000895FC01EA57FB4F80810895A5E0B0E09F
:10098000E4ECF4E00C94531C8C016B0164367105AB
:100990003CF0FC01EA57FB4F8081882309F478C0C2
:1009A000DA01ED91FC910190F081E02DB801615EDA
:1009B0007D4FCA0119957801B8EEEB1ABDEFFB0A1D
:1009C0002FEFF70120832EEF31962083319680831D
:1009D000319690833196292F280F209520833196C8
:1009E000C082D801A25EBD4FDC9245E050E020E01D
:1009F00030E0BC016A5F7F4F6417750734F0A19146
:100A00002A0F311D4F5F5F4FF7CF6C01F8E0CF0E1B
:100A1000D11C800F911FFC01E15EFD4F20952083CA
:100A200021E0C21622E0D206CCF45701C5018E198E
:100A30009F098C159D0584F4D80112968D919C9187
:100A40001397F50161915F01DC01ED91FC9101903B
:100A5000F081E02D1995EACFC6011CC087ED93E027
:100A60009A83898383E08B838AE393E09D838C83DD
:100A7000D801ED91FC910190F081E02DAE014F5F26
:100A80005F4F67E070E0C80119958FEF9FEF02C0DC
:100A900080E090E02596EAE00C946F1C9C01809128
:100AA000020290910302821793072CF0C90137FFCD
:100AB00002C080E090E00895A4E2B0E0E2E6F5E054
:100AC0000C944D1C4B015C0129013A0161E088E165
:100AD0000E944C1760E089E10E944C1761E087E1B9
:100AE0000E944C1760E086E10E944C1729E23CE529
:100AF0004FEC5FE3C301B2010E94851B0E949D1A67
:100B00006B017C01CB010E944E05BC0183E00E9479
:100B100001162AE037ED43E25FE3C501B4010E940C
:100B2000851B0E949D1A69A37AA38BA39CA389A10C
:100B30009AA10E944E05BC0182E00E94011661E06C
:100B40008BE10E944C1760E08AE10E944C1761E043
:100B50008DE10E944C1760E08CE10E944C172DE360
:100B60003AE047EF5FE3C301B2010E94851B0E9498
:100B70009D1A2B013C01CB010E944E05BC0184E073
:100B80000E94011623E333E343ED5FE3C501B401A3
:100B90000E94851B0E949D1A4B015C01CB010E94A3
:100BA0004E05BC0185E00E940116C6010E944E055B
:100BB000BC01990F880B990B0E94D51A8E01075E14
:100BC0001F4F22E046E00E94A51C89A19AA10E9425
:100BD0004E05BC01990F880B990B0E94D51A08503D
:100BE000110922E046E00E94A51CC2010E944E05A8
:100BF000BC01990F880B990B0E94D51A0850110956
:100C000022E046E00E94A51CC4010E944E05BC01E2
:100C1000990F880B990B0E94D51A0850110922E0F0
:100C200046E00E94A51CA496E0E10C94691CA0E299
:100C3000B0E0EDE1F6E00C94511C6B017C01490140
:100C40005A0160E088E10E944C1761E089E10E944E
:100C50004C1761E087E10E944C1760E086E10E943A
:100C60004C1723E333E343EF5FE3C501B4010E9474
:100C7000851B0E949D1ACB010E944E05BC0183E09A
:100C80000E9401166091000270910102072E000C73
:100C9000880B990B0E94D51A2AE037ED43E25FE3F7
:100CA0000E94851B0E949D1ACB010E944E05BC012B
:100CB00082E00E94011661E08BE10E944C1760E027
:100CC0008AE10E944C1760E08DE10E944C1761E0C0
:100CD0008CE10E944C172DEC3CEC4CE050E4C70139
:100CE000B6010E94851B0E949D1ACB010E944E05F1
:100CF000BC0184E00E940116609100027091010223
:100D0000072E000C880B990B0E94D51A23E333E3BE
:100D100043ED5FE30E94851B0E949D1ACB010E9458
:100D20004E05BC0185E00E94011629E23CE54FEC2E
:100D30005FE3C701B6010E94851B0E949D1ACB018B
:100D40000E944E05BC01990F880B990B0E94D51A81
:100D50008E01075E1F4F22E046E00E94A51C2AE09C
:100D600037ED43E25FE3C501B4010E94851B0E9499
:100D70009D1ACB010E944E05BC01990F880B990B5F
:100D80000E94D51A0850110922E046E00E94A51CD5
:100D90002DE33AE047EF5FE3C501B4010E94851BF4
:100DA0000E949D1ACB010E944E05BC01990F880B31
:100DB000990B0E94D51A0850110922E046E00E94C2
:100DC000A51C23E333E343ED5FE3C701B6010E94B3
:100DD000851B0E949D1ACB010E944E05BC01990FF4
:100DE000880B990B0E94D51A0850110922E046E0A1
:100DF0000E94A51CA096ECE00C946D1CA0E1B0E054
:100E0000E4E0F7E00C944D1C80911C0990911D09C1
:100E10008130910509F097C060911E0970911F09FA
:100E200080912009909121098E01075F1F4F22E0D8
:100E300046E00E94A51C60911E0970911F098091D7
:100E40002009909121090E949D1A6B017C017093E9
:100E50001B0960931A090091180910911909072EAE
:100E6000000C880B990B0E94D51A20910802309132
:100E7000090240910A0250910B020E94851B4B010E
:100E80005C01C601801B910BBC01990F880B990B6B
:100E90000E94D51A20910402309105024091060269
:100EA000509107020E94851B9B01AC01C501B40152
:100EB0000E942C1A4B015C01C8018C0D9D1DBC01C8
:100EC000990F880B990B0E94D51A20912409309113
:100ED000250940912609509127090E94851B9B01F5
:100EE000AC01C501B4010E942C1A4B015C01D092E7
:100EF0001909C09218096091000270910102072E31
:100F0000000C880B990B0E94D51A6B017C01809113
:100F10002209909123090196909323098093220935
:100F2000A5019401C701B6010E942C1A2B013C01B6
:100F3000A5019401C701B6010E942B1AA3019201D9
:100F40000E94170699C0892B09F0A7C060911E095D
:100F500070911F0980912009909121098E01075FEE
:100F60001F4F22E046E00E94A51C60911E0970916F
:100F70001F0980912009909121090E949D1A6B01FF
:100F80007C0170931B0960931A0900911809109154
:100F90001909072E000C880B990B0E94D51A209175
:100FA00010023091110240911202509113020E94DE
:100FB000851B4B015C01C601801B910BBC01990F85
:100FC000880B990B0E94D51A20910C0230910D02CA
:100FD00040910E0250910F020E94851B9B01AC01B3
:100FE000C501B4010E942C1A4B015C01C8018C0D93
:100FF0009D1DBC01990F880B990B0E94D51A209159
:1010000028093091290940912A0950912B090E9401
:10101000851B9B01AC01C501B4010E942C1A4B0138
:101020005C01D0921909C092180960910002709178
:101030000102072E000C880B990B0E94D51A6B0138
:101040007C018091220990912309019690932309B4
:1010500080932209A5019401C701B6010E942C1AB0
:101060002B013C01A5019401C701B6010E942B1A76
:10107000A30192010E945C056091220970912309ED
:10108000072E000C880B990B0E94D51A8E010F5F5A
:101090001F4F22E046E00E94A51C6096E0E10C9400
:1010A000691CFC018281938190931D0980931C0926
:1010B0000E94FE06089561E088E10E94101761E039
:1010C00089E10E94101761E083E00E94101761E03F
:1010D00087E10E94101761E086E10E94101761E02D
:1010E00082E00E94101761E08BE10E94101761E01E
:1010F0008AE10E94101761E084E00E94101761E00D
:101100008DE10E94101761E08CE10E94101761E0F0
:1011100085E00E94101740916A0450916B04609121
:101120006C0470916D0480916804909169040E9430
:101130007D141092E3081092E2081092E5081092D4
:10114000E4081092E9081092E8081092E70810925B
:10115000E608A0EBB8E0FD0180E090E0219131913C
:10116000232B81F4FC01EE0FFF1FE055F74F26E51E
:1011700034E0318320838C599F4F9093590480939E
:10118000580404C001968931910541F780E090E050
:101190002D913D91232B81F4FC01EE0FFF1FE055B3
:1011A000F74F26E334E0318320838C599F4F90938F
:1011B000390480933804089501968931910541F7E7
:1011C0000895CF92DF92EF92FF9220E030E06A0123
:1011D0007B01022E04C0F694E794D794C7940A9436
:1011E000D2F7FC01C192CF01285F3F4F2032310579
:1011F00071F7FF90EF90DF90CF9008954F925F923C
:101200006F927F92AF92BF92CF92DF92EF92FF9256
:101210000F931F93CF93DF93EC017B018A81FB0136
:1012200080838B8181838C8182838D818383DB01A9
:10123000179640E050E0BA01E4E0F0E04A805B80BD
:101240006C807D808F010C5F1F4F4415550566052E
:101250007705C0F48A859B85E80FF91F3497D08005
:10126000218192818381FD013397D0823196208341
:10127000319690838C93F8014F5F5F4F6F4F7F4F94
:101280001496DCCFEE0DFF1D8C8580838D858183C8
:101290008E8582838F85838380E090E040E050E0FC
:1012A000BA014C845D846E847F84F701E00FF11FE6
:1012B0000C5F1F4F4415550566057705B8F4AC89DA
:1012C000BD89A80FB91FCC901196DC90119712968A
:1012D0003C91129713962C91C082D1823283238342
:1012E0004F5F5F4F6F4F7F4F0496DBCF8E898083B8
:1012F0008F898183888D8283898D8383412C512CB2
:1013000032018E899F89A88DB98D481659066A06C3
:101310007B0680F55201AA0CBB1CEC8DFD8DEA0DFD
:10132000FB1DA081B181FD0101900020E9F73197FB
:101330006F01CA1ADB0AA60160E070E0C701800FE6
:10134000911F0E94E1080C5F1F4F8C8D9D8DFC0149
:10135000EA0DFB1D60817181A601C701800F911FFD
:101360000E94C51C0C0D1D1DFFEF4F1A5F0A6F0A6E
:101370007F0AC7CFC801DF91CF911F910F91FF90D6
:10138000EF90DF90CF90BF90AF907F906F905F9085
:101390004F900895EF92FF920F931F93CF93DF9397
:1013A0008C017B01EC018A81FB018193AB81BC81C3
:1013B000ED0109900020E9F72197CA1BDB0BAE0174
:1013C00060E070E0CF010E94E108F8016381748160
:1013D000AE01C70105960E94C51CCE010596CDB78A
:1013E000DEB7E6E00C94731CA0E0B0E0EAEFF9E0B1
:1013F0000C94551C6C01EB01FC0182818883838174
:101400008983A481B581FD0101900020E9F731971E
:101410008F010A1B1B0BA80160E070E0CE01029651
:101420000E94E108F60164817581A801CE0106964B
:101430000E94C51CC8010696F601A681B781FD0170
:1014400001900020E9F731977F01EA1AFB0AA70112
:1014500060E070E08C0F9D1F0E94E108065F1F4F47
:10146000F60166817781A701CE01800F911F0E944E
:10147000C51C0E0D1F1DF601A085B185FD01019053
:101480000020E9F731977F01EA1AFB0AA70160E023
:1014900070E0CE01800F911F0E94E1080C5F1F4F8A
:1014A000F60160857185A701CE01800F911F0E9412
:1014B000C51CC8018E0D9F1DF601628543853485CC
:1014C0002585C80FD91F688349833A832B830496E7
:1014D000CDB7DEB7E8E00C94711CCF92DF92EF92AB
:1014E000FF92FC011082118212821382DB0120E044
:1014F00030E04D9150E0022E02C0440F551F0A9477
:10150000E2F7052E000C660B770BC080D180E280DD
:10151000F3804C295D296E297F29408351836283A2
:101520007383285F3F4F2032310519F7FF90EF900A
:10153000DF90CF900895A4E0B0E0E1EAFAE00C94E7
:10154000511C7C018B01FB018191BF01F70182835A
:10155000CE0101960E946D0A89819A81AB81BC817E
:101560004C015D01F5E08F0E911CA11CB11C6801BE
:1015700025E0C20ED11CA601401B510B60E070E0BB
:10158000481559056A057B0548F4F60141916F013C
:101590009F0122503109F9014083EDCFF801E80F96
:1015A000F91F14820C5F1F4FF70114830383059604
:1015B0002496ECE00C946D1CACE0B0E0E2EEFAE0B6
:1015C0000C944D1C7C018B01DB018C9190E0F701A8
:1015D0009383828311962C91922B938382836E5FE7
:1015E0007F4FCE0109960E946D0A89849A84AB844C
:1015F000BC84B501A4014A5F5F4F6F4F7F4FF80174
:101600003696CF01801B910BA0E0B0E084179507C0
:10161000A607B70728F48191DF0112978C93F1CFC9
:10162000F801E80DF91D1582C8010596D701159638
:101630009C938E931497B4016A5F7F4F600F711F64
:10164000CE0105960E946D0ABAE08B0E911C4D8169
:101650005E816F8178852401092C000C660877086B
:10166000440E551E661E771EF801E80DF91DCF01C8
:10167000801B910BA0E0B0E084159505A605B70589
:1016800028F48191DF0112978C93F1CF6401C40E8D
:10169000D51EB8016C0D7D1DFB0131971082C40170
:1016A0000197800F911FF70197838683CE010196E2
:1016B0000E946D0AA6014C5F5F4F49805A806B8083
:1016C0007C804A01052E000CAA08BB08840C951CDE
:1016D000A61CB71CF801E40FF51F9F01201B310B5E
:1016E000C901A0E0B0E088159905AA05BB0528F45A
:1016F0008191DF0112978C93F0CFCA01840D951D63
:10170000F801E80FF91FDF0111971C929A0121508F
:101710003109020F131FD70119961C930E931897C6
:101720002181428150E060E070E0BA0155274427F2
:10173000522B2081422B2381722BF7014287538742
:101740006487758704962C96E0E10C94691CA8E0E8
:10175000B0E0EDEAFBE00C944B1C8C015B01DB017B
:101760008C9111969C9111971296CC901297D12C36
:10177000E12CF12C7601DD24CC24D92AC82A139639
:101780008C91F82AF80182819381A481B5818C150E
:101790009D05AE05BF0570F4B601660F771F660F95
:1017A000771F828593850E946119D8011B969C93AF
:1017B0008E931A97F801C282D382E482F582D50112
:1017C0001796C12CD12C7601F4E08F2E912C980124
:1017D0002A5F3F4FF8014281538164817581C401C2
:1017E0000496C416D506E606F70680F54C9150E03F
:1017F00060E070E0742F662755274427FD0133977A
:10180000E0814E2BFD013297E0815E2BFD01319787
:10181000E0816E2BF80146835783608771874C0106
:10182000089742855385840F951FF90140815181A6
:1018300062817381FC014083518362837383FFEF74
:10184000CF1ADF0AEF0AFF0A1496C4CFF401EA0D9B
:10185000FB1D20813181C280D12CE12CF12C76013D
:10186000DD24CC24D32AC22A2381F22A4C01F80198
:1018700084859585A685B7858C159D05AE05BF0524
:1018800070F4B601660F771F660F771F84899589FC
:101890000E946119D80155969C938E935497F80134
:1018A000C486D586E686F78620E030E0C12CD12CB0
:1018B0007601D8015096F80144855585668577856F
:1018C000F501E80DF91DC4010496C416D506E60617
:1018D000F70648F59180428150E060E070E0BA017F
:1018E00055274427592990804929E3817E2BF80107
:1018F000408B518B628B738B4C0184899589FC01E1
:10190000E20FF31F4D915D916D917C911397408390
:10191000518362837383FFEFCF1ADF0AEF0AFF0A56
:101920002C5F3F4FC8CF20813181C280D12CE12C68
:10193000F12C7601DD24CC24D32AC22A2381F22A79
:101940004C01F80186899789A08DB18D8C159D0574
:10195000AE05BF0560F4B601660F771F848D958DC7
:101960000E946119D8015D969C938E935C97F80153
:10197000C68AD78AE08EF18E412C512C3201180193
:10198000FAE12F0E311CF80186899789A08DB18D5F
:10199000481659066A067B0608F05AC0B501680D5C
:1019A000791DCE0101960E946D0A94012C5F3F4F74
:1019B000C980DA80EB80FC80C901032E000CAA0BE1
:1019C000BB0BAC01BD014C0D5D1D6E1D7F1D4D831C
:1019D0005E836F837887F501E20FF31FAF014A1929
:1019E0005B09CA01A0E0B0E04D815E816F8178851E
:1019F00084179507A607B70728F44191DF011297CE
:101A00004C93ECCFC9018C0D9D1DF501E80FF91F1A
:101A100031971082215031092A0D3B1DD8015B9668
:101A20003C932E935A974C01C201880F991F5C96E4
:101A3000ED91FC915D97E80FF91FD1018D919C917B
:101A400091838083BFEF4B1A5B0A6B0A7B0A9BCFA3
:101A5000C4012896E2E10C94671CAAE0B0E0E3E33D
:101A6000FDE00C94591C8C018FEB93E09A838983E1
:101A70001B821C821D821E821F82188619861A866E
:101A8000D801ED91FC910190F081E02DAE014F5F06
:101A90005F4F6AE070E0C80119950E94C617F8010F
:101AA00060877187828793872A96E4E00C94751C7F
:101AB0004F925F926F927F92AF92BF92CF92DF92DE
:101AC000EF92FF920F931F93CF93DF93CDB7DEB7C3
:101AD0002E970FB6F894DEBF0FBECDBF8C018BECF6
:101AE00093E09A8389831C821B8282E793E09E8322
:101AF0008D8398878F839A8789871B861C861D868E
:101B00001E86680188EEC81A8BEFD80A7801A6EB0A
:101B1000EA1AABEFFA0A412C92E0592E612C712C93
:101B2000D601ED91FC913097B9F1848195819C8328
:101B30008B83808191819E838D8382819381DC015F
:101B4000ED91FC910480F581E02D199598878F83A4
:101B5000D601ED91FC9182819381DC01ED91FC91A4
:101B60000680F781E02D19959A8789874B865C86D8
:101B70006D867E86F80180819181F601A081B18118
:101B800018966D917C911997DC01ED91FC91AE0155
:101B90004F5F5F4FC8011995B2E0CB0ED11CCE1438
:101BA000DF0409F0BDCF6801E4E8CE1AEBEFDE0AEE
:101BB000412C82E0582E612C712CF701A081B1815B
:101BC0001097E1F112968D919C9113979C838B83D2
:101BD00014968D919C9115979E838D83ED91FC9128
:101BE00011970480F581E02DCD01199598878F8399
:101BF000D7018D919C91DC01ED91FC910680F781DC
:101C0000E02D19959A8789874B865C866D867E863E
:101C1000D801ED91FC91A080B180F7018081918184
:101C2000DC01ED91FC910280F381E02D1995AE016C
:101C30004F5F5F4FBC01C801F5011995F2E0EF0E4F
:101C4000F11CEC14FD0409F0B8CFF801EA57FB4F82
:101C500081E080832E960FB6F894DEBF0FBECDBF15
:101C6000DF91CF911F910F91FF90EF90DF90CF9078
:101C7000BF90AF907F906F905F904F900895AAE0D3
:101C8000B0E0E5E4FEE00C94511C8C015B018FEBAD
:101C900093E09A8389831B821C821D821E821F828D
:101CA000188619861A860E94C617F801C084D18446
:101CB000E284F3849B01AC012C193D094E095F09B4
:101CC00069017A01B501CE0101960E94AB0288EE4E
:101CD000882E83E0982EA12CB12CC701B601A50156
:101CE00094010E94161CCB80DC80ED80FE80C20E29
:101CF000D31EE41EF51ECB82DC82ED82FE829B01A8
:101D0000AC0160E472E48FE090E00E94F21BCF80AF
:101D1000D884E984FA84DC01CB018C0D9D1DAE1DB5
:101D2000BF1D8F839887A987BA870E94C617CB806B
:101D3000DC80ED80FE8031E0C31AD108E108F108B3
:101D4000A50194010E94161CC21AD30AE40AF50ADE
:101D5000F801C486D586E686F786CF80D884E984E4
:101D6000FA84F6E3DF1AF5E6EF0AF4ECFF0A9B01CA
:101D7000AC0160E472E48FE090E00E94F21BC61AAE
:101D8000D70AE80AF90AF801C08AD18AE28AF38AF6
:101D9000B801605F7F4FC8010C960E94B5110E9488
:101DA000C617F801E557FB4F6083718382839383E5
:101DB0002A96ECE00C946D1CA0E1B0E0E2EEFEE0AF
:101DC0000C944B1C988B8F870E94C6174B015C01AB
:101DD0002F85388925573B4F3E832D83F90180811C
:101DE0009181A281B381A5019401281B390B4A0B73
:101DF0005B0BDA01C901893F9A42A105B10528F0C0
:101E0000EF85F889EA57FB4F10820F85188904582F
:101E10001B4FD8018D919C91892B81F0EF85F8891A
:101E2000E157FB4F80819181A281B381881599058B
:101E3000AA05BB0518F4F801118210826F84788816
:101E4000FCE76F1AFBEF7F0A2F85388920583B4F3C
:101E50003A832983CF84D88838E1C30ED11C4F85BB
:101E600058894A575B4F58874F832F8538892C569E
:101E70003B4F3A8729874F8558894D565B4F5C8782
:101E80004B87EF84F88852E8E51A5BEFF50A2F8557
:101E900038892E573B4F3C832B834F8558894157B8
:101EA0005B4F5E874D871401250154E1250E311CDF
:101EB000411C511CEF85F88984899589A689B789C9
:101EC000892B8A2B8B2B89F4AF85B88912968D913B
:101ED0009C911397DC01ED91FC910680F781E02D38
:101EE00019959C0197FF15C037C10E94C617DC01E8
:101EF000CB0188199909AA09BB09EF85F8892489BA
:101F0000358946895789281739074A075B07E0F65C
:101F10004BC1D3018D919C911197820F931F8D938B
:101F20009C93F8014081518147305105D9F4AB8130
:101F3000BC818D919C911197AC014F5F5F4F4D9388
:101F40005C93EF85F889E80FF91F208FF7018081F6
:101F50009181019791838083892B09F0ABCF88E031
:101F600090E02FC04115510521F52F3F310569F44F
:101F700081E090E0F80191838083AD85BE852D924C
:101F80003D924D925C92139795CF0E94C617DC014B
:101F9000CB0188199909AA09BB0989389341A10580
:101FA000B10508F487CFEF85F889EA57FB4F108217
:101FB000FBC041305105B1F42E3F310531F482E0D0
:101FC00090E0D8018D939C9375CFF8011182108217
:101FD000AF81B8858C9181116DCF8F8598890E94D2
:101FE0002D0D68CF4230510569F4F701318320830C
:101FF000AB81BC811D921C9283E090E0F80191833B
:1020000080832EC04330510561F4322F2227F7011F
:1020100080819181280F391F3183208384E090E0F3
:10202000D0CF4430510581F460E071E00E94021C81
:102030008F3F910531F485E090E0F8019183808332
:1020400039CF1182108236CF4530510569F4E981CC
:10205000FA8131832083E6E0F0E0D801ED93FC9330
:10206000D3012D933C9326CF4630510599F4322F5E
:102070002227E981FA8180819181280F391F3183DC
:102080002083E7E0F0E0D801ED93FC93D7018D9138
:102090009C9162CF4830510509F00CCFF8011182B4
:1020A000108260E071E00E94021C8F3F910509F0F0
:1020B00001CFA981BA818D919C910097C9F48F8538
:1020C00098890E942D0D8F8598890E94580DEF8563
:1020D000F889E957FB4F80829182A282B382ED8119
:1020E000FE8180829182A282B3828FEF9FEF61C0D6
:1020F0008A30910531F4B6018F8598890E943F0E90
:10210000D9CE8630910551F4B60189859A850E9411
:10211000A70B81E0AB85BC858C93CCCE8B30910531
:1021200021F4EF81F8851082C5CEFC01EF53FE4FFC
:10213000EE0FFF1F2F853889E20FF31F80819181F9
:10214000009709F4B7CEDC01ED91FC910190F0818C
:10215000E02DB6011995AECEEF85F889EA57FB4F11
:102160008081882321F10F85188909571B4FF801B9
:1021700080819181A281B381A5019401281B390B33
:102180004A0B5B0BDA01C901853C9940A105B105F9
:1021900070F08F8598890E942D0DD8018D929D92A7
:1021A000AD92BC92139703C08EEF9FEF02C080E008
:1021B00090E06096E2E10C94671C86E694E00E9451
:1021C000DC0E089587E094E09093670480936604A2
:1021D00082E999E0909369048093680480E091EE2D
:1021E000A0E0B0E080936A0490936B04A0936C0429
:1021F000B0936D041092EC0883EE93E09093FB088B
:102200008093FA081092FC081092FD081092FE08C4
:102210001092FF0810920509109204091092060905
:1022200010920709109208091092090910920F09DB
:1022300010920E09109210091092110910921209B1
:10224000109213091092170910921609EEE7F8E0A0
:102250001192119288E0E03BF807D1F7E0EBF8E04B
:102260001192119288E0E23EF807D1F7EEE7F4E030
:10227000119286E0EE37F807D9F7EEE7F6E0119213
:1022800088E0EE37F807D9F710927A0410927B04B1
:1022900010927C0410927D0461E174E07093570405
:1022A000609356044FEE53E050935D0440935C04FA
:1022B00010925E0410925F04109260041092610408
:1022C0008DE594E0909363048093620481E090E054
:1022D000909365048093640423E733E030935B04B8
:1022E00020935A04709347046093460450934D041E
:1022F00040934C0410924E0410924F0410925004DC
:10230000109251044BE654E050935304409352040E
:10231000909355048093540430934B0420934A04C3
:102320002DE134E030933704209336042BEF33E073
:1023300030933D0420933C0410923E0410923F04DD
:10234000109240041092410421E538E03093430498
:1023500020934204909345048093440489E893E0D9
:1023600090933B0480933A040895A0E0B0E0EBEB37
:10237000F1E10C94551C8C01EB01688179818A8113
:102380009B8120E03AEC4AE95BE30E94161CF801CD
:10239000C080D180E280F380C20ED31EE41EF51E01
:1023A000C082D182E282F382688379838A839B83AD
:1023B000CDB7DEB7E8E00C94711CFC0124853585AF
:1023C000F901E05CFF4F808191813296208131815B
:1023D000821B930B8F7399270895DC011C96ED9156
:1023E000FC911D97DF01A05CBF4F2D913C9111978F
:1023F00012968D919C9111972817390739F08D917C
:102400009C91E80FF91F808190E008958FEF9FEF76
:102410000895FC01A485B585FD01E05CFF4F208196
:1024200031813296808191812817390779F0808136
:102430009181A80FB91F8C91208131812F5F3F4F6F
:102440002F7333273183208390E008958FEF9FEF20
:102450000895FC0181A1882329F0A489B5898C9174
:1024600086FFFBCF11A208950F931F93CF93DF93A5
:10247000FC01A685B7858D01005C1F4FE8018881AE
:10248000998101968F739927AD014E5B5F4FEA01E9
:102490002881398182179307D1F3E8012881398196
:1024A000A20FB31F6C93A685B785A05CBF4F119692
:1024B0009C938E93A689B7892C9181E090E0078C3C
:1024C00002C0880F991F0A94E2F7822B8C9381E057
:1024D00081A30488F589E02D80818064808381E078
:1024E00090E0DF91CF911F910F910895FB01E05C87
:1024F000FF4F208131812F5F3F4F2F733327DB0147
:10250000AE5BBF4F4D915C912417350741F0408180
:102510005181DB01A40FB51F8C9331832083089573
:1025200008951F920F920FB60F9211240BB60F92BF
:102530002F933F934F935F936F937F938F939F93CB
:10254000AF93BF93EF93FF938091C00082FD07C0CC
:102550008091C60060E97BE00E94761202C0809103
:10256000C600FF91EF91BF91AF919F918F917F91A5
:102570006F915F914F913F912F910F900BBE0F90F4
:102580000FBE0F901F90189508951F920F920FB6CF
:102590000F9211240BB60F922F933F934F935F939B
:1025A0006F937F938F939F93AF93BF93EF93FF931B
:1025B0008091C80082FD07C08091CE0068E07BE07A
:1025C0000E94761202C08091CE00FF91EF91BF91E0
:1025D000AF919F918F917F916F915F914F913F91BB
:1025E0002F910F900BBE0F900FBE0F901F9018955C
:1025F00008951F920F920FB60F9211240BB60F92EF
:102600002F933F934F935F936F937F938F939F93FA
:10261000AF93BF93EF93FF938091D00082FD07C0EB
:102620008091D60060E87AE00E94761202C0809124
:10263000D600FF91EF91BF91AF919F918F917F91C4
:102640006F915F914F913F912F910F900BBE0F9023
:102650000FBE0F901F90189508951F920F920FB6FE
:102660000F9211240BB60F922F933F934F935F93CA
:102670006F937F938F939F93AF93BF93EF93FF934A
:102680008091300182FD07C08091360168EF79E0CA
:102690000E94761202C080913601FF91EF91BF91A6
:1026A000AF919F918F917F916F915F914F913F91EA
:1026B0002F910F900BBE0F900FBE0F901F9018958B
:1026C00082E999E00E94DD11892B11F00E9490129D
:1026D00080E799E00E94DD11892B11F00E94C4125D
:1026E0008EE499E00E94DD11892B11F00E94F8120E
:1026F0008CE299E00E94DD11892B11F00E942C13CD
:1027000008951F920F920FB60F9211240BB60F92DD
:102710002F933F938F939F93EF93FF9320918C0B75
:1027200030918D0B80918E0B90918F0B281739076C
:1027300031F48091C1008F7D8093C10014C0E0917D
:102740008E0BF0918F0BE45BF44F208180918E0B08
:1027500090918F0B01968F73992790938F0B809395
:102760008E0B2093C600FF91EF919F918F913F9127
:102770002F910F900BBE0F900FBE0F901F901895CA
:102780001F920F920FB60F9211240BB60F922F9338
:102790003F938F939F93EF93FF932091040B30917E
:1027A000050B8091060B9091070B2817390731F420
:1027B0008091C9008F7D8093C90014C0E091060B01
:1027C000F091070BEC53F54F20818091060B90910F
:1027D000070B01968F7399279093070B8093060B35
:1027E0002093CE00FF91EF919F918F913F912F9178
:1027F0000F900BBE0F900FBE0F901F9018951F9259
:102800000F920FB60F9211240BB60F922F933F9396
:102810008F939F93EF93FF9320917C0A30917D0AD1
:1028200080917E0A90917F0A2817390731F48091B0
:10283000D1008F7D8093D10014C0E0917E0AF09189
:102840007F0AE45CF54F208180917E0A90917F0A97
:1028500001968F73992790937F0A80937E0A209325
:10286000D600FF91EF919F918F913F912F910F9003
:102870000BBE0F900FBE0F901F9018951F920F92D6
:102880000FB60F9211240BB60F922F933F938F9395
:102890009F93EF93FF932091F4093091F509809174
:1028A000F6099091F7092817390731F48091310121
:1028B0008F7D8093310114C0E091F609F091F70902
:1028C000EC54F64F20818091F6099091F70901961A
:1028D0008F7399279093F7098093F6092093360117
:1028E000FF91EF919F918F913F912F910F900BBE90
:1028F0000F900FBE0F901F901895A0E0B0E0E3E896
:10290000F4E10C94551CEC016A017B014115514E18
:102910006105710511F1EC89FD8981E090E008A065
:1029200002C0880F991F0A94E2F7808360E079E083
:102930008DE390E0A70196010E94161C89019A017F
:1029400001501109210931093695279517950795E9
:102950009801011580E11807A8F0EC89FD89108223
:1029600060E874E88EE190E0A70196010E94161CD1
:10297000DA01C9010197A109B109B695A795979503
:1029800087959C01E889F9893083EA89FB8920834E
:1029900019A2EE89FF89408181E090E09C010C8CB6
:1029A00002C0220F331F0A94E2F7242B2083EE8902
:1029B000FF8940819C010D8C02C0220F331F0A94B5
:1029C000E2F7242B2083EE89FF8940819C010E8C45
:1029D00002C0220F331F0A94E2F7242B2083EE89D2
:1029E000FF8920810F8C02C0880F991F0A94E2F79B
:1029F000809582238083CDB7DEB7E8E00C94711C0C
:102A0000CF92DF92EF92FF92E2E9F9E01382128215
:102A100088EEC82E83E0D82EE12CF12CC482D5821A
:102A2000E682F78269E274E07183608380E99BE06B
:102A3000958784878CE49BE09787868785EC90E078
:102A4000918B808B84EC90E0938B828B80EC90E078
:102A5000958B848B81EC90E0978B868B82EC90E059
:102A6000918F808F86EC90E0938F828F44E0448F2B
:102A700033E0358F27E0268F95E0978F81E080A3A4
:102A8000E0E7F9E013821282C482D582E682F782FF
:102A900071836083A8E0BBE0B587A487A4ECBAE0AB
:102AA000B787A687ADECB0E0B18BA08BACECB0E003
:102AB000B38BA28BA8ECB0E0B58BA48BA9ECB0E0F3
:102AC000B78BA68BAAECB0E0B18FA08FAEECB0E0D4
:102AD000B38FA28F448F358F268F978F80A3EEE41C
:102AE000F9E013821282C482D582E682F782718372
:102AF0006083A0E8BAE0B587A487ACE3BAE0B78703
:102B0000A687A5EDB0E0B18BA08BA4EDB0E0B38BB0
:102B1000A28BA0EDB0E0B58BA48BA1EDB0E0B78B9C
:102B2000A68BA2EDB0E0B18FA08FA6EDB0E0B38F81
:102B3000A28F448F358F268F978F80A3ECE2F9E028
:102B400013821282C482D582E682F7827183608307
:102B500068EF79E07587648764EB79E0778766874B
:102B600065E371E0718B608B64E371E0738B628B62
:102B700060E371E0758B648B61E371E0778B668B4A
:102B800062E371E0718F608F66E371E0738F628F33
:102B9000448F358F268F978F80A3FF90EF90DF9023
:102BA000CF900895A0E0B0E0E8EDF5E10C94551C5D
:102BB0006C01EB017B01E40EF51E00E010E0CE1588
:102BC000DF0561F06991D601ED91FC910190F081F2
:102BD000E02DC6011995080F191FF1CFC801CDB717
:102BE000DEB7E8E00C94711C0E94D2170E945B08CB
:102BF000C0E6D3E10E94DD102097E1F30E9460134C
:102C0000F9CF1F93CF93DF93182FEB0161E00E9460
:102C10001017209711F460E004C0CF3FD10529F4CC
:102C200061E0812F0E944C17A5C0E12FF0E0EC5528
:102C3000FD4FE4914E2F50E0FA013197E131F1055B
:102C400008F093C08827EE58FF4F8F4F0C94381C24
:102C500084B5806884BDC7BD8DC084B5806284BDE5
:102C6000C8BD88C080918000806880938000D09328
:102C70008900C09388007EC080918000806280932C
:102C80008000D0938B00C0938A0074C08091B00004
:102C900080688093B000C093B3006CC08091B00096
:102CA00080628093B000C093B40064C080919000B3
:102CB000806880939000D0939900C09398005AC088
:102CC00080919000806280939000D0939B00C0938D
:102CD0009A0050C080919000886080939000D093BB
:102CE0009D00C0939C0046C08091A00080688093A6
:102CF000A0008091A0008F7B8093A000D093A900BA
:102D0000C093A80037C08091A00080628093A0008B
:102D1000D093AB00C093AA002DC08091A000886022
:102D20008093A000D093AD00C093AC0023C08091ED
:102D30002001806880932001D0932901C09328014D
:102D400019C080912001806280932001D0932B01D3
:102D5000C0932A010FC080912001886080932001D8
:102D6000D0932D01C0932C0105C0C038D1050CF0C3
:102D700057CF51CFDF91CF911F91089590E0FC0183
:102D80003197E131F10508F04AC08827ED57FF4F30
:102D90008F4F0C94381C809180008F7703C08091F6
:102DA00080008F7D80938000089584B58F7702C066
:102DB00084B58F7D84BD08958091B0008F7703C066
:102DC0008091B0008F7D8093B00008958091900035
:102DD0008F7707C0809190008F7D03C08091900015
:102DE000877F8093900008958091A0008F7707C01F
:102DF0008091A0008F7D03C08091A000877F809389
:102E0000A0000895809120018F7707C08091200154
:102E10008F7D03C080912001877F809320010895DA
:102E2000CF93DF9390E0FC01E651FD4F2491FC012C
:102E3000E05DFC4F8491882361F190E0880F991F39
:102E4000FC01E057FC4FC591D491FC01EA58FC4FBE
:102E5000A591B491611109C09FB7F894888120951C
:102E600082238883EC912E230BC0623061F49FB7DC
:102E7000F8943881822F809583238883EC912E2BC0
:102E80002C939FBF06C08FB7F894E8812E2B288320
:102E90008FBFDF91CF9108951F93CF93DF93282F9A
:102EA00030E0F901EC55FD4F8491F901E651FD4FF9
:102EB000D491F901E05DFC4FC491CC23C9F0162FE9
:102EC00081110E94BE16EC2FF0E0EE0FFF1FEA58B2
:102ED000FC4FA591B4918FB7F894111105C09C9146
:102EE000ED2FE095E92302C0EC91ED2BEC938FBF21
:102EF000DF91CF911F9108951F920F920FB60F92FD
:102F000011242F933F938F939F93AF93BF938091FF
:102F1000D50B9091D60BA091D70BB091D80B3091D7
:102F2000D40B23E0230F2D3720F40196A11DB11DF2
:102F300005C026E8230F0296A11DB11D2093D40BD6
:102F40008093D50B9093D60BA093D70BB093D80B4F
:102F50008091D90B9091DA0BA091DB0BB091DC0B37
:102F60000196A11DB11D8093D90B9093DA0BA0930C
:102F7000DB0BB093DC0BBF91AF919F918F913F9191
:102F80002F910F900FBE0F901F9018952FB7F894A8
:102F90006091D50B7091D60B8091D70B9091D80B87
:102FA0002FBF0895789484B5826084BD84B5816014
:102FB00084BD85B5826085BD85B5816085BDEEE641
:102FC000F0E0808181608083E1E8F0E01082808120
:102FD00082608083808181608083E0E8F0E080818E
:102FE00081608083E1EBF0E0808184608083E0EBAE
:102FF000F0E0808181608083E1E9F0E0808182609F
:103000008083808181608083E0E9F0E0808181605D
:103010008083E1EAF0E0808182608083808181604A
:103020008083E0EAF0E0808181608083E1E2F1E08A
:10303000808182608083808181608083E0E2F1E032
:10304000808181608083EAE7F0E080818460808312
:1030500080818260808380818160808380818068BC
:1030600080831092C1000895CF93DF938230910541
:1030700010F482E090E0E091DF0BF091E00B20E0B3
:1030800030E0C0E0D0E0309711F140815181481725
:103090005907C0F04817590761F48281938120973E
:1030A00019F09B838A832BC09093E00B8093DF0BF6
:1030B00026C02115310519F04217530718F49A015B
:1030C000BE01DF01EF010280F381E02DDCCF21158D
:1030D000310509F1281B390B2430310590F4129683
:1030E0008D919C9113976115710521F0FB019383DC
:1030F000828304C09093E00B8093DF0BFD01329636
:1031000044C0FD01E20FF31F8193919322503109D6
:103110002D933C933AC02091DD0B3091DE0B232B95
:1031200041F420911602309117023093DE0B209368
:10313000DD0B20911402309115022115310541F467
:103140002DB73EB74091180250911902241B350B40
:10315000E091DD0BF091DE0BE217F307A0F42E1BDC
:103160003F0B2817390778F0AC014E5F5F4F2417EB
:10317000350748F04E0F5F1F5093DE0B4093DD0B79
:103180008193919302C0E0E0F0E0CF01DF91CF9115
:1031900008950F931F93CF93DF93009709F48CC08A
:1031A000FC013297138212820091DF0B1091E00B29
:1031B0000115110581F420813181820F931F209127
:1031C000DD0B3091DE0B2817390779F5F093DE0B14
:1031D000E093DD0B71C0D80140E050E0AE17BF07AF
:1031E00050F412962D913C911397AD0121153105A4
:1031F00009F1D901F3CF9D01DA0133832283608184
:103200007181860F971F8217930769F4EC0128815B
:103210003981260F371F2E5F3F4F318320838A81EC
:103220009B8193838283452B29F4F093E00BE093F9
:10323000DF0B42C01396FC93EE931297ED01499178
:1032400059919E01240F351FE217F30771F4808115
:103250009181840F951F029611969C938E93828183
:10326000938113969C938E931297E0E0F0E0D8013F
:1032700012968D919C911397009719F0F8018C018B
:10328000F6CF8D919C9198012E5F3F4F820F931F37
:103290002091DD0B3091DE0B2817390769F4309748
:1032A00029F41092E00B1092DF0B02C013821282FD
:1032B0001093DE0B0093DD0BDF91CF911F910F91E7
:1032C0000895A0E0B0E0E7E6F9E10C944F1CEC01B2
:1032D000009721F4CB010E943418B8C0FC01E60F1E
:1032E000F71F9C0122503109E217F30708F4ACC024
:1032F000D9010D911C91119706171707B0F00530F1
:10330000110508F49FC0C80104978617970708F4B1
:1033100099C002501109061B170B019311936D936D
:103320007C93CF010E94C9188DC05B01A01AB10A1D
:103330004C01800E911EA091DF0BB091E00B40E09C
:1033400050E0E12CF12C109709F44AC0A815B905FA
:10335000D1F56D907C901197630182E0C80ED11C6D
:10336000CA14DB0480F1A3014A195B096A0182E0F7
:10337000C80ED11C1296BC9012971396AC91B5E072
:10338000CB16D10440F0B282A38351834083D9018C
:103390006D937C930AC00E5F1F4FC301800F911F76
:1033A000F90191838083EB2DFA2FE114F10431F0C0
:1033B000D7011396FC93EE93129744C0F093E00B61
:1033C000E093DF0B3FC08D919C91119748175907EF
:1033D00008F4AC017D0112960D90BC91A02DB3CFE5
:1033E0008091DD0B9091DE0B88159905E1F446176D
:1033F0005707C8F48091140290911502009741F488
:103400008DB79EB74091180250911902841B950BFD
:10341000E817F907C8F4F093DE0BE093DD0BF90130
:10342000718360830FC0CB010E9434187C01009728
:1034300059F0A801BE010E94C51CCE010E94C91806
:10344000C70104C0CE0102C080E090E0CDB7DEB776
:10345000EEE00C946B1C5058BB27AA270E94431A1D
:103460000C944B1B0E943D1B38F00E94441B20F023
:1034700039F49F3F19F426F40C943A1B0EF4E095AE
:10348000E7FB0C94341BE92F0E945C1B58F3BA171E
:10349000620773078407950720F079F4A6F50C946A
:1034A0007E1B0EF4E0950B2EBA2FA02D0B01B90157
:1034B00090010C01CA01A0011124FF27591B99F0AA
:1034C000593F50F4503E68F11A16F040A22F232FB6
:1034D000342F4427585FF3CF469537952795A79506
:1034E000F0405395C9F77EF41F16BA0B620B730BAD
:1034F000840BBAF09150A1F0FF0FBB1F661F771F1E
:10350000881FC2F70EC0BA0F621F731F841F48F4D2
:10351000879577956795B795F7959E3F08F0B0CF5B
:103520009395880F08F09927EE0F97958795089542
:103530000E94101B08F481E008950E94A41A689468
:10354000B1110C947F1B08950E94641B88F09F5753
:1035500098F0B92F9927B751B0F0E1F0660F771FB7
:10356000881F991F1AF0BA95C9F714C0B13091F0AD
:103570000E947E1BB1E008950C947E1B672F782F6C
:103580008827B85F39F0B93FCCF386957795679572
:10359000B395D9F73EF490958095709561957F4FDE
:1035A0008F4F9F4F0895E89409C097FB3EF4909584
:1035B0008095709561957F4F8F4F9F4F9923A9F00C
:1035C000F92F96E9BB279395F6958795779567959B
:1035D000B795F111F8CFFAF4BB0F11F460FF1BC0DF
:1035E0006F5F7F4F8F4F9F4F16C0882311F096E972
:1035F00011C0772321F09EE8872F762F05C0662320
:1036000071F096E8862F70E060E02AF09A95660FD8
:10361000771F881FDAF7880F9695879597F9089591
:10362000990F0008550FAA0BE0E8FEEF16161706D3
:10363000E807F907C0F012161306E407F50798F03B
:10364000621B730B840B950B39F40A2661F0232B54
:10365000242B252B21F408950A2609F4A140A695D0
:103660008FEF811D811D089597F99F6780E870E0B5
:1036700060E008959FEF80EC089500240A941616E8
:10368000170618060906089500240A941216130650
:10369000140605060895092E0394000C11F48823DE
:1036A00052F0BB0F40F4BF2B11F460FF04C06F5FFA
:1036B0007F4F8F4F9F4F089557FD9058440F551FD0
:1036C00059F05F3F71F04795880F97FB991F61F0A4
:1036D0009F3F79F087950895121613061406551F1B
:1036E000F2CF4695F1DF08C0161617061806991F87
:1036F000F1CF86957105610508940895E894BB277C
:1037000066277727CB0197F908950E94981B0C94A0
:103710004B1B0E943D1B38F00E94441B20F0952358
:1037200011F00C94341B0C943A1B11240C947F1B45
:103730000E945C1B70F3959FC1F3950F50E0551FDD
:10374000629FF001729FBB27F00DB11D639FAA27F6
:10375000F00DB11DAA1F649F6627B00DA11D661F45
:10376000829F2227B00DA11D621F739FB00DA11D66
:10377000621F839FA00D611D221F749F3327A00D20
:10378000611D231F849F600D211D822F762F6A2FBC
:1037900011249F5750409AF0F1F088234AF0EE0F21
:1037A000FF1FBB1F661F771F881F91505040A9F74E
:1037B0009E3F510580F00C94341B0C947F1B5F3F9F
:1037C000E4F3983ED4F3869577956795B795F7958A
:1037D000E7959F5FC1F7FE2B880F911D9695879502
:1037E00097F90895DB018F939F930E94401CBF912E
:1037F000AF91A29F800D911DA39F900DB29F900D40
:103800001124089597FB072E16F4009407D077FD36
:1038100009D00E94821C07FC05D03EF4909581954A
:103820009F4F0895709561957F4F0895A1E21A2EDC
:10383000AA1BBB1BFD010DC0AA1FBB1FEE1FFF1F54
:10384000A217B307E407F50720F0A21BB30BE40BA4
:10385000F50B661F771F881F991F1A9469F76095EB
:103860007095809590959B01AC01BD01CF010895A5
:10387000EE0FFF1F881F8BBF0790F691E02D199464
:103880000E94961CA59F900DB49F900DA49F800D43
:10389000911D112408952F923F924F925F926F9243
:1038A0007F928F929F92AF92BF92CF92DF92EF92D0
:1038B000FF920F931F93CF93DF93CDB7DEB7CA1B51
:1038C000DB0B0FB6F894DEBF0FBECDBF19942A886C
:1038D000398848885F846E847D848C849B84AA8424
:1038E000B984C884DF80EE80FD800C811B81AA81B1
:1038F000B981CE0FD11D0FB6F894DEBF0FBECDBF7C
:10390000ED010895AA1BBB1B51E107C0AA1FBB1FF5
:10391000A617B70710F0A61BB70B881F991F5A955B
:10392000A9F780959095BC01CD010895A29FB001A3
:10393000B39FC001A39F700D811D1124911DB29FE3
:10394000700D811D1124911D0895EF920F931F9307
:10395000CF93DF93E80147FD02C034E001C034E1BA
:10396000E42F440FFF0BF7FF03C0F195E195F10938
:10397000E32E022F2E2FAE010E94CE1CCE01DF912E
:10398000CF911F910F91EF900895FB01DC0102C0D0
:1039900001900D9241505040D8F708954F925F9298
:1039A0006F927F929F92AF92BF92CF92DF92EF92EF
:1039B000FF920F931F93CF93DF93CDB7DEB7299775
:1039C0000FB6F894DEBF0FBECDBF6A01122FB02E26
:1039D0002BE3201720F0FF24F394F00E02C0BCE389
:1039E000FB2E0F2D27E0AE014F5F5F4F0E945C1E44
:1039F000AC018981982F9970913031F0E1FC06C0BB
:103A0000E0FE06C090E205C09DE203C09BE201C05B
:103A100090E0EE2DE07183FF3CC0911102C083E085
:103A200001C084E0811718F4212F281B01C020E079
:103A3000E1110BC0F601822F30E2882319F0319397
:103A40008150FBCFC20ED11C20E0992329F0D60172
:103A50009C93F60131966F01C6010396E2FE0AC0FF
:103A60003EE4D6013C9341E411964C931197129693
:103A70003C9306C03EE6F601308341E64183328343
:103A8000FC01322F40E2332309F442C0419331500C
:103A9000FACF82FF44C0911102C083E001C084E0EC
:103AA000811718F4212F281B01C020E0E1110BC061
:103AB000F601822F30E2882319F031938150FBCF39
:103AC000C20ED11C20E0992329F0D6019C93F60167
:103AD00031966F01C6010396E2FE0BC039E4D601B0
:103AE0003C933EE411963C93119736E412963C9336
:103AF00007C039E6F60130833EE6318336E632838D
:103B0000FC01322F40E2332319F041933150FBCFB7
:103B1000FC01E20FF11D10828EEF9FEFB7C0F1E0C4
:103B2000911101C0F0E06F2F70E01416150624F417
:103B30009A012F5F3F4F02C021E030E0260F371F70
:103B4000BB2029F06B2D70E06F5F7F4F02C060E0FB
:103B500070E0260F371F612F70E0261737071CF41F
:103B6000121B212F01C020E03E2D387159F4D601DF
:103B7000322F60E2332319F06D933150FBCFC20E28
:103B8000D11C20E0FF2331F0D6019C93B6016F5F7A
:103B90007F4F6B01E1110BC0F601922F30E39923A7
:103BA00019F031939150FBCFC20ED11C20E09F2D14
:103BB000940F3A81782F7071A72E84FF03C03133A0
:103BC00009F49150191624F4993018F098E001C0C6
:103BD00091E0E42F852F57FF02C0E0E080E06E2FD8
:103BE000782FE0E0F0E0AEE29A2E3A01691A71080F
:103BF0002A01461A570A0B2D10E01195019511095B
:103C00006F3F8FEF780729F4D6019C92C601019689
:103C10006C014617570784F0661677066CF47F012F
:103C2000E40CF51CA1E0B0E0AC0FBD1FEA0EFB1EDA
:103C3000D7011196BC9002C090E3B92E6150710972
:103C40003196C60101967C016017710724F0D601F8
:103C5000BC926C01D5CF6417750741F4363320F45C
:103C6000353321F4A11002C081E3B82EF601B082F1
:103C7000F701822F90E2882319F091938150FBCFB6
:103C8000F701E20FF11D108280E090E029960FB657
:103C9000F894DEBF0FBECDBFDF91CF911F910F9182
:103CA000FF90EF90DF90CF90BF90AF909F907F906C
:103CB0006F905F904F900895283008F027E03327E9
:103CC000DA01990F311D87FD91600096610571053C
:103CD00039F432602E5F3D9330E32A95E1F7089581
:103CE0009F3F30F080387105610509F03C5F3C5F13
:103CF0003D93913008F08068911DDF93CF931F931F
:103D00000F93FF92EF92192F987F9695E92F969532
:103D10009695E90FFF27EC5FFB4F99273327EE2499
:103D2000FF24A701E70105900894079428F4360FB3
:103D3000E71EF81E491F511D660F771F881F991F28
:103D40000694A1F70590079428F4E70EF81E491F82
:103D5000561FC11D770F881F991F661F0694A1F774
:103D60000590079428F4F80E491F561FC71FD11D50
:103D7000880F991F661F771F0694A1F70590079477
:103D800020F4490F561FC71FD81F990F661F771FB2
:103D9000881F0694A9F784911095177041F0D69565
:103DA000C79557954795F794E7941A95C1F7EAEAAE
:103DB000F3E0689415901591359165919591059072
:103DC0007FE27395E118F10A430B560BC90BD0093A
:103DD000C0F7E10CF11E431F561FC91FD01D7EF412
:103DE000703311F48A95E6CFE894015030F0080F53
:103DF0000AF40027021708F4202F2395022F7A33A4
:103E000028F079E37D932A95E9F710C07D932A95F0
:103E100089F6069497956795379517951794E11845
:103E2000F10A430B560BC90BD00998F023957E91EC
:103E300073957A3308F070E37C932013B8F77E9182
:103E400070617D9330F0839571E37D9370E32A95E3
:103E5000E1F71124EF90FF900F911F91CF91DF9127
:0C3E6000992787FD90950895F894FFCFF6
:103E6C007800FF009A99993FCDCC4C3F0000803FE1
:103E7C00CDCCCC3D0000E10B80007374645F6D739E
:103E8C0067732F54696D6500636437313636633759
:103E9C003463353532633331316662636332666560
:103EAC00356137626332383900726F7373657269CA
:103EBC00616C5F6D7367732F546F706963496E66C5
:103ECC006F003061643531663838666334343839A4
:103EDC003266386331303638343037373634363032
:103EEC00303500726F7373657269616C5F6D7367E7
:103EFC00732F4C6F67003131616264373331633239
:103F0C0035393333323631636436313833626431A8
:103F1C00326436323935003966306539386264615D
:103F2C003635393831393836646466353361666113
:103F3C0037613430653439007374645F6D73677343
:103F4C002F466C6F617436340066646232383231DD
:103F5C003062666139643763393131343632363028
:103F6C00313738643961353834007374645F6D737C
:103F7C0067732F496E74333200646135393039669A
:103F8C006265333738616561663835653534376558
:103F9C00383330636331626237004D657373616728
:103FAC00652066726F6D2064657669636520647246
:103FBC006F707065643A206D657373616765206C12
:103FCC006172676572207468616E206275666665E1
:103FDC00722E002F726F626F636F6E323031382F1A
:103FEC0064697374616E6365002F726F626F636FC7
:103FFC006E323031382F726F746174696F6E00726B
:10400C006F7373657269616C5F6D7367732F526543
:10401C007175657374506172616D000000000087EA
:10402C0002AB02F102F40200000000F409DC0AF712
:10403C0002FA0200000000CA099B0AFD02000300FC
:10404C00000000FE08A70B03030603000000000994
:10405C00037D0327042A04000000002D04410457AB
:10406C00045A0400000000BE04DC0EB90400000079
:10407C00009904AF04B304B6040000000079048F67
:10408C000493049604000000003412D215DD1109CB
:06409C0012ED11291200D3
:00000001FF
